8=FIX.4.4|9=176|35=D|34=2|49=FIX_ORDER_GEN2|52=20160106-19:36:10.059|56=NEXBOOK|1=00017|11=541470d0-175b-450e-9b37-add276e9cbb5|38=4000|40=2|44=1.4084|54=1|55=USD/CAD|60=20160106-19:36:10.058|10=249|
8=FIX.4.4|9=178|35=D|34=2|49=FIX_ORDER_GEN1|52=20160106-19:36:10.059|56=NEXBOOK|1=00161|11=820f4009-08a0-4c1d-81f8-c9594f485129|38=93000|40=2|44=1.40828|54=1|55=USD/CAD|60=20160106-19:36:10.025|10=175|
8=FIX.4.4|9=178|35=D|34=2|49=FIX_ORDER_GEN4|52=20160106-19:36:10.060|56=NEXBOOK|1=00359|11=86cabac6-fc07-4cd1-bf86-88e46d7df867|38=22000|40=2|44=0.73705|54=2|55=EUR/GBP|60=20160106-19:36:10.059|10=082|
8=FIX.4.4|9=178|35=D|34=2|49=FIX_ORDER_GEN3|52=20160106-19:36:10.061|56=NEXBOOK|1=00445|11=a63a8ab6-d5e5-4aa9-82cc-a6898fd3d875|38=33000|40=2|44=1.40768|54=1|55=USD/CAD|60=20160106-19:36:10.060|10=004|
8=FIX.4.4|9=167|35=D|34=3|49=FIX_ORDER_GEN1|52=20160106-19:36:10.062|56=NEXBOOK|1=00093|11=9a9dc39f-4327-47ab-b22d-44c51642046f|38=26000|40=1|54=2|55=USD/JPY|60=20160106-19:36:10.061|10=079|
8=FIX.4.4|9=178|35=D|34=3|49=FIX_ORDER_GEN2|52=20160106-19:36:10.063|56=NEXBOOK|1=00485|11=860d4516-94fa-4e92-aa57-758efa2a39be|38=59000|40=2|44=1.00884|54=2|55=USD/CHF|60=20160106-19:36:10.062|10=180|
8=FIX.4.4|9=178|35=D|34=3|49=FIX_ORDER_GEN4|52=20160106-19:36:10.064|56=NEXBOOK|1=00034|11=7e6927b9-b27e-4681-aeed-1727e262f82d|38=70000|40=2|44=1.40876|54=1|55=USD/CAD|60=20160106-19:36:10.063|10=121|
8=FIX.4.4|9=167|35=D|34=3|49=FIX_ORDER_GEN3|52=20160106-19:36:10.064|56=NEXBOOK|1=00280|11=46b7d785-2865-41fb-94f0-c093893b5f06|38=65000|40=1|54=2|55=GBP/USD|60=20160106-19:36:10.063|10=241|
8=FIX.4.4|9=178|35=D|34=4|49=FIX_ORDER_GEN1|52=20160106-19:36:10.065|56=NEXBOOK|1=00309|11=5cb20910-ac41-40b2-91f2-530c062bf41a|38=87000|40=2|44=1.00792|54=1|55=USD/CHF|60=20160106-19:36:10.064|10=029|
8=FIX.4.4|9=180|35=D|34=4|49=FIX_ORDER_GEN4|52=20160106-19:36:10.067|56=NEXBOOK|1=00303|11=7d82d42a-783a-414b-945b-a36bbbdea6de|38=58000|40=2|44=118.58011|54=2|55=USD/JPY|60=20160106-19:36:10.066|10=175|
8=FIX.4.4|9=180|35=D|34=4|49=FIX_ORDER_GEN2|52=20160106-19:36:10.066|56=NEXBOOK|1=00246|11=57a3285d-d1fb-4295-ba2b-22d76f8687da|38=93000|40=2|44=127.76864|54=2|55=EUR/JPY|60=20160106-19:36:10.065|10=061|
8=FIX.4.4|9=178|35=D|34=4|49=FIX_ORDER_GEN3|52=20160106-19:36:10.068|56=NEXBOOK|1=00009|11=e2c23ff1-fcb5-41fe-b6ee-daaa8b05ac2b|38=29000|40=2|44=1.07825|54=2|55=EUR/USD|60=20160106-19:36:10.067|10=048|
8=FIX.4.4|9=178|35=D|34=5|49=FIX_ORDER_GEN1|52=20160106-19:36:10.069|56=NEXBOOK|1=00245|11=25c0b048-2e9d-45a7-b89e-91196b56d2ed|38=62000|40=2|44=1.40939|54=2|55=USD/CAD|60=20160106-19:36:10.068|10=126|
8=FIX.4.4|9=176|35=D|34=5|49=FIX_ORDER_GEN2|52=20160106-19:36:10.070|56=NEXBOOK|1=00272|11=c520d40f-8f6a-4f24-8db4-4958549de419|38=49000|40=2|44=1.008|54=2|55=USD/CHF|60=20160106-19:36:10.069|10=234|
8=FIX.4.4|9=178|35=D|34=5|49=FIX_ORDER_GEN4|52=20160106-19:36:10.071|56=NEXBOOK|1=00077|11=2181aa4a-69eb-44d7-8192-fb4dd81ede3e|38=78000|40=2|44=1.46267|54=2|55=GBP/USD|60=20160106-19:36:10.070|10=022|
8=FIX.4.4|9=178|35=D|34=5|49=FIX_ORDER_GEN3|52=20160106-19:36:10.072|56=NEXBOOK|1=00381|11=3f0e85b7-64f7-4355-8907-63d763cc8a96|38=27000|40=2|44=1.40808|54=1|55=USD/CAD|60=20160106-19:36:10.071|10=244|
8=FIX.4.4|9=179|35=D|34=6|49=FIX_ORDER_GEN1|52=20160106-19:36:10.073|56=NEXBOOK|1=00495|11=9a960ab4-0be4-48fc-a376-eec7d0993f46|38=100000|40=2|44=1.46303|54=2|55=GBP/USD|60=20160106-19:36:10.072|10=017|
8=FIX.4.4|9=178|35=D|34=6|49=FIX_ORDER_GEN2|52=20160106-19:36:10.075|56=NEXBOOK|1=00016|11=8d8cfb23-d842-481a-adc8-6eb94893dd88|38=90000|40=2|44=0.70714|54=2|55=AUD/USD|60=20160106-19:36:10.073|10=240|
8=FIX.4.4|9=175|35=D|34=6|49=FIX_ORDER_GEN4|52=20160106-19:36:10.076|56=NEXBOOK|1=00303|11=ce83820f-f909-4e5b-96fb-c2cc0469a889|38=1000|40=2|44=1.008|54=2|55=USD/CHF|60=20160106-19:36:10.075|10=022|
8=FIX.4.4|9=178|35=D|34=6|49=FIX_ORDER_GEN3|52=20160106-19:36:10.077|56=NEXBOOK|1=00183|11=61847c69-65fe-4dc0-9498-d7a9162bd95a|38=48000|40=2|44=0.70675|54=1|55=AUD/USD|60=20160106-19:36:10.075|10=118|
8=FIX.4.4|9=167|35=D|34=7|49=FIX_ORDER_GEN1|52=20160106-19:36:10.078|56=NEXBOOK|1=00412|11=1d6c3dce-9375-4145-a0b4-42867989658e|38=35000|40=1|54=1|55=GBP/USD|60=20160106-19:36:10.076|10=246|
8=FIX.4.4|9=167|35=D|34=7|49=FIX_ORDER_GEN2|52=20160106-19:36:10.078|56=NEXBOOK|1=00162|11=9a83950f-a37d-4026-aca5-36c393710e04|38=20000|40=1|54=1|55=USD/JPY|60=20160106-19:36:10.077|10=033|
8=FIX.4.4|9=177|35=D|34=7|49=FIX_ORDER_GEN3|52=20160106-19:36:10.081|56=NEXBOOK|1=00211|11=1b05f4d5-d715-46e6-b151-933f1060a168|38=98000|40=2|44=1.4088|54=1|55=USD/CAD|60=20160106-19:36:10.079|10=164|
8=FIX.4.4|9=180|35=D|34=7|49=FIX_ORDER_GEN4|52=20160106-19:36:10.080|56=NEXBOOK|1=00020|11=1e7d672c-793b-4d52-a1eb-4cb988b7bce6|38=54000|40=2|44=118.46693|54=1|55=USD/JPY|60=20160106-19:36:10.078|10=148|
8=FIX.4.4|9=178|35=D|34=8|49=FIX_ORDER_GEN1|52=20160106-19:36:10.082|56=NEXBOOK|1=00049|11=b5a2e706-3f56-4c2c-aa40-cd79f61e0435|38=30000|40=2|44=1.46283|54=2|55=GBP/USD|60=20160106-19:36:10.080|10=158|
8=FIX.4.4|9=178|35=D|34=8|49=FIX_ORDER_GEN2|52=20160106-19:36:10.083|56=NEXBOOK|1=00405|11=929b1e5b-af4f-4441-bc6c-49cadfc25b29|38=56000|40=2|44=1.00744|54=1|55=USD/CHF|60=20160106-19:36:10.081|10=046|
8=FIX.4.4|9=180|35=D|34=8|49=FIX_ORDER_GEN4|52=20160106-19:36:10.084|56=NEXBOOK|1=00298|11=7bbb6a0b-1ae0-4e0c-9d4e-e9bd89ca1d38|38=94000|40=2|44=118.58577|54=2|55=USD/JPY|60=20160106-19:36:10.083|10=044|
8=FIX.4.4|9=178|35=D|34=8|49=FIX_ORDER_GEN3|52=20160106-19:36:10.085|56=NEXBOOK|1=00476|11=20661567-3074-4eb9-b898-90b53c538061|38=26000|40=2|44=1.00784|54=1|55=USD/CHF|60=20160106-19:36:10.084|10=103|
8=FIX.4.4|9=178|35=D|34=9|49=FIX_ORDER_GEN1|52=20160106-19:36:10.087|56=NEXBOOK|1=00072|11=c7db4287-dc6a-402d-962f-45e5679010b0|38=86000|40=2|44=1.46367|54=2|55=GBP/USD|60=20160106-19:36:10.085|10=092|
8=FIX.4.4|9=178|35=D|34=9|49=FIX_ORDER_GEN2|52=20160106-19:36:10.087|56=NEXBOOK|1=00405|11=93d077ca-b399-4bea-a594-7a0ff289dcd4|38=24000|40=2|44=0.70669|54=1|55=AUD/USD|60=20160106-19:36:10.086|10=037|
8=FIX.4.4|9=177|35=D|34=9|49=FIX_ORDER_GEN4|52=20160106-19:36:10.089|56=NEXBOOK|1=00211|11=88045472-23e2-4960-9d89-e570709e2783|38=9000|40=2|44=0.70642|54=1|55=AUD/USD|60=20160106-19:36:10.087|10=029|
8=FIX.4.4|9=178|35=D|34=9|49=FIX_ORDER_GEN3|52=20160106-19:36:10.090|56=NEXBOOK|1=00038|11=a2fb943c-aac6-4aed-820e-94653f23369e|38=60000|40=2|44=0.70612|54=1|55=AUD/USD|60=20160106-19:36:10.088|10=221|
8=FIX.4.4|9=181|35=D|34=10|49=FIX_ORDER_GEN1|52=20160106-19:36:10.091|56=NEXBOOK|1=00171|11=7d2af0ce-e702-4c55-afde-330f55bc3e20|38=49000|40=2|44=127.75201|54=1|55=EUR/JPY|60=20160106-19:36:10.089|10=211|
8=FIX.4.4|9=167|35=D|34=10|49=FIX_ORDER_GEN2|52=20160106-19:36:10.091|56=NEXBOOK|1=00206|11=1601d0bc-0373-472b-a218-5f88f738749a|38=2000|40=1|54=1|55=USD/CHF|60=20160106-19:36:10.090|10=197|
8=FIX.4.4|9=168|35=D|34=10|49=FIX_ORDER_GEN4|52=20160106-19:36:10.092|56=NEXBOOK|1=00309|11=1cb0d457-2a09-48b3-bb12-2a1cf7570e6e|38=67000|40=1|54=1|55=EUR/USD|60=20160106-19:36:10.091|10=209|
8=FIX.4.4|9=179|35=D|34=10|49=FIX_ORDER_GEN3|52=20160106-19:36:10.093|56=NEXBOOK|1=00041|11=f5068593-1903-4e91-b0fc-c24a480c7ad7|38=19000|40=2|44=1.07719|54=1|55=EUR/USD|60=20160106-19:36:10.092|10=139|
8=FIX.4.4|9=168|35=D|34=11|49=FIX_ORDER_GEN1|52=20160106-19:36:10.095|56=NEXBOOK|1=00311|11=e5e43fde-d2d0-489d-9580-8e245d6edda6|38=68000|40=1|54=1|55=USD/CHF|60=20160106-19:36:10.093|10=057|
8=FIX.4.4|9=167|35=D|34=11|49=FIX_ORDER_GEN2|52=20160106-19:36:10.095|56=NEXBOOK|1=00048|11=f22188ad-e586-4f41-b5d8-1f468ff6ef9b|38=6000|40=1|54=1|55=USD/CAD|60=20160106-19:36:10.094|10=215|
8=FIX.4.4|9=179|35=D|34=11|49=FIX_ORDER_GEN4|52=20160106-19:36:10.096|56=NEXBOOK|1=00472|11=502d7f83-432b-4f70-a6d6-8650293237b9|38=17000|40=2|44=0.73711|54=2|55=EUR/GBP|60=20160106-19:36:10.095|10=248|
8=FIX.4.4|9=179|35=D|34=11|49=FIX_ORDER_GEN3|52=20160106-19:36:10.097|56=NEXBOOK|1=00364|11=1209c835-78e4-428b-90b0-d113304a980c|38=61000|40=2|44=1.46271|54=2|55=GBP/USD|60=20160106-19:36:10.096|10=233|
8=FIX.4.4|9=179|35=D|34=12|49=FIX_ORDER_GEN1|52=20160106-19:36:10.098|56=NEXBOOK|1=00342|11=4ea80451-6978-4998-b9c7-b5eeab51ee8f|38=64000|40=2|44=1.07822|54=2|55=EUR/USD|60=20160106-19:36:10.097|10=019|
8=FIX.4.4|9=179|35=D|34=12|49=FIX_ORDER_GEN2|52=20160106-19:36:10.099|56=NEXBOOK|1=00375|11=1c28f67b-c91c-4cec-b031-2aeb22dc8644|38=78000|40=2|44=1.07719|54=1|55=EUR/USD|60=20160106-19:36:10.098|10=089|
8=FIX.4.4|9=179|35=D|34=12|49=FIX_ORDER_GEN4|52=20160106-19:36:10.101|56=NEXBOOK|1=00401|11=e2c06f7f-b631-429d-9bd4-309587ca66b0|38=88000|40=2|44=1.07837|54=2|55=EUR/USD|60=20160106-19:36:10.099|10=201|
8=FIX.4.4|9=178|35=D|34=12|49=FIX_ORDER_GEN3|52=20160106-19:36:10.102|56=NEXBOOK|1=00131|11=d513a414-06fe-4ae1-b3c0-a2f63eaf09b0|38=64000|40=2|44=1.4088|54=1|55=USD/CAD|60=20160106-19:36:10.100|10=196|
8=FIX.4.4|9=168|35=D|34=13|49=FIX_ORDER_GEN1|52=20160106-19:36:10.102|56=NEXBOOK|1=00357|11=f71aa244-342c-4e0c-a0b3-e12567facf73|38=53000|40=1|54=2|55=GBP/USD|60=20160106-19:36:10.101|10=219|
8=FIX.4.4|9=181|35=D|34=13|49=FIX_ORDER_GEN2|52=20160106-19:36:10.103|56=NEXBOOK|1=00300|11=260e601a-5e58-46f5-a1e5-f99c9ca9bfc5|38=77000|40=2|44=127.66543|54=1|55=EUR/JPY|60=20160106-19:36:10.102|10=133|
8=FIX.4.4|9=181|35=D|34=13|49=FIX_ORDER_GEN4|52=20160106-19:36:10.104|56=NEXBOOK|1=00432|11=ce57a85a-7670-477c-8a87-97ceb974c56d|38=55000|40=2|44=127.71205|54=1|55=EUR/JPY|60=20160106-19:36:10.103|10=056|
8=FIX.4.4|9=179|35=D|34=13|49=FIX_ORDER_GEN3|52=20160106-19:36:10.106|56=NEXBOOK|1=00429|11=bb7a3fd3-1cb3-4455-ab02-5af6910c0519|38=77000|40=2|44=1.46291|54=2|55=GBP/USD|60=20160106-19:36:10.104|10=198|
8=FIX.4.4|9=181|35=D|34=14|49=FIX_ORDER_GEN1|52=20160106-19:36:10.107|56=NEXBOOK|1=00394|11=13e9e2ca-535b-471e-9dcd-9c91eda3a781|38=90000|40=2|44=127.82525|54=2|55=EUR/JPY|60=20160106-19:36:10.105|10=186|
8=FIX.4.4|9=168|35=D|34=14|49=FIX_ORDER_GEN2|52=20160106-19:36:10.107|56=NEXBOOK|1=00200|11=0e895c77-18e7-42fa-b071-5715ab695398|38=50000|40=1|54=1|55=EUR/JPY|60=20160106-19:36:10.107|10=042|
8=FIX.4.4|9=168|35=D|34=14|49=FIX_ORDER_GEN4|52=20160106-19:36:10.108|56=NEXBOOK|1=00390|11=606b1c36-9bbf-42cd-b4ce-5f4293b33db3|38=99000|40=1|54=1|55=AUD/USD|60=20160106-19:36:10.107|10=045|
8=FIX.4.4|9=179|35=D|34=14|49=FIX_ORDER_GEN3|52=20160106-19:36:10.109|56=NEXBOOK|1=00206|11=57d90c3a-e4c2-4686-9f0e-b2f12af7bad7|38=93000|40=2|44=1.40923|54=2|55=USD/CAD|60=20160106-19:36:10.108|10=041|
8=FIX.4.4|9=179|35=D|34=15|49=FIX_ORDER_GEN1|52=20160106-19:36:10.110|56=NEXBOOK|1=00094|11=fd09f862-7239-467d-857c-97419b1285b2|38=49000|40=2|44=0.70717|54=2|55=AUD/USD|60=20160106-19:36:10.109|10=007|
8=FIX.4.4|9=179|35=D|34=15|49=FIX_ORDER_GEN2|52=20160106-19:36:10.111|56=NEXBOOK|1=00361|11=5c52db75-09ba-4538-b471-d8cf39b48959|38=25000|40=2|44=1.00892|54=2|55=USD/CHF|60=20160106-19:36:10.110|10=116|
8=FIX.4.4|9=179|35=D|34=15|49=FIX_ORDER_GEN4|52=20160106-19:36:10.112|56=NEXBOOK|1=00103|11=c93e2f9c-d9eb-4417-a976-19c649f333a7|38=15000|40=2|44=1.40852|54=1|55=USD/CAD|60=20160106-19:36:10.111|10=156|
8=FIX.4.4|9=179|35=D|34=15|49=FIX_ORDER_GEN3|52=20160106-19:36:10.113|56=NEXBOOK|1=00299|11=f3b54703-7cdc-4b79-9845-2475e22b339c|38=64000|40=2|44=1.00784|54=1|55=USD/CHF|60=20160106-19:36:10.112|10=078|
8=FIX.4.4|9=181|35=D|34=16|49=FIX_ORDER_GEN1|52=20160106-19:36:10.114|56=NEXBOOK|1=00413|11=ecc4a4bb-6345-4134-a2c0-1e06f2489a8a|38=61000|40=2|44=118.53483|54=2|55=USD/JPY|60=20160106-19:36:10.113|10=058|
8=FIX.4.4|9=179|35=D|34=16|49=FIX_ORDER_GEN2|52=20160106-19:36:10.115|56=NEXBOOK|1=00207|11=48f4985d-e795-4d36-91dc-c1d00b403604|38=74000|40=2|44=0.73681|54=2|55=EUR/GBP|60=20160106-19:36:10.114|10=079|
8=FIX.4.4|9=168|35=D|34=16|49=FIX_ORDER_GEN3|52=20160106-19:36:10.117|56=NEXBOOK|1=00261|11=1dd3dedb-f6e6-43bf-8c49-ebf0654aba60|38=26000|40=1|54=1|55=USD/CAD|60=20160106-19:36:10.116|10=167|
8=FIX.4.4|9=179|35=D|34=17|49=FIX_ORDER_GEN1|52=20160106-19:36:10.118|56=NEXBOOK|1=00396|11=7ed020ed-5050-4f1c-93aa-61f390dd1b8a|38=29000|40=2|44=0.73753|54=2|55=EUR/GBP|60=20160106-19:36:10.117|10=005|
8=FIX.4.4|9=181|35=D|34=17|49=FIX_ORDER_GEN2|52=20160106-19:36:10.120|56=NEXBOOK|1=00420|11=4e70572e-b850-4d3a-8156-d932ca5f0285|38=75000|40=2|44=127.79528|54=2|55=EUR/JPY|60=20160106-19:36:10.118|10=204|
8=FIX.4.4|9=177|35=D|34=16|49=FIX_ORDER_GEN4|52=20160106-19:36:10.120|56=NEXBOOK|1=00440|11=e25e2069-1f85-4f04-a45d-00f30944b852|38=68000|40=2|44=1.007|54=1|55=USD/CHF|60=20160106-19:36:10.115|10=154|
8=FIX.4.4|9=178|35=D|34=17|49=FIX_ORDER_GEN3|52=20160106-19:36:10.122|56=NEXBOOK|1=00080|11=c5669a81-1322-4aa9-873d-1f17dd7d84a0|38=76000|40=2|44=0.7063|54=1|55=AUD/USD|60=20160106-19:36:10.120|10=063|
8=FIX.4.4|9=181|35=D|34=18|49=FIX_ORDER_GEN1|52=20160106-19:36:10.123|56=NEXBOOK|1=00422|11=be388d8c-eb8f-4cb9-ba26-45b9ea3cad31|38=34000|40=2|44=127.66876|54=1|55=EUR/JPY|60=20160106-19:36:10.121|10=073|
8=FIX.4.4|9=179|35=D|34=18|49=FIX_ORDER_GEN2|52=20160106-19:36:10.124|56=NEXBOOK|1=00390|11=1b71172e-1a52-40b1-9afa-de5dc396e181|38=39000|40=2|44=1.00796|54=1|55=USD/CHF|60=20160106-19:36:10.123|10=196|
8=FIX.4.4|9=168|35=D|34=18|49=FIX_ORDER_GEN3|52=20160106-19:36:10.126|56=NEXBOOK|1=00173|11=966f0105-7447-4cf9-a28a-81850db8d77d|38=15000|40=1|54=2|55=USD/CAD|60=20160106-19:36:10.125|10=062|
8=FIX.4.4|9=168|35=D|34=19|49=FIX_ORDER_GEN1|52=20160106-19:36:10.127|56=NEXBOOK|1=00158|11=4d9c3425-0f26-4569-bc79-5d217ec515c8|38=20000|40=1|54=2|55=EUR/JPY|60=20160106-19:36:10.126|10=100|
8=FIX.4.4|9=181|35=D|34=19|49=FIX_ORDER_GEN2|52=20160106-19:36:10.128|56=NEXBOOK|1=00213|11=f2a092d9-3781-4eb6-a273-ded5e9b891e2|38=85000|40=2|44=127.77863|54=2|55=EUR/JPY|60=20160106-19:36:10.126|10=113|
8=FIX.4.4|9=168|35=D|34=19|49=FIX_ORDER_GEN3|52=20160106-19:36:10.130|56=NEXBOOK|1=00348|11=1eb2e45a-a82d-4940-be75-7a964936371c|38=25000|40=1|54=2|55=EUR/GBP|60=20160106-19:36:10.129|10=120|
8=FIX.4.4|9=168|35=D|34=20|49=FIX_ORDER_GEN1|52=20160106-19:36:10.131|56=NEXBOOK|1=00048|11=f422fb1a-5811-4544-a80a-462484a363e5|38=43000|40=1|54=2|55=GBP/USD|60=20160106-19:36:10.130|10=242|
8=FIX.4.4|9=181|35=D|34=20|49=FIX_ORDER_GEN2|52=20160106-19:36:10.132|56=NEXBOOK|1=00250|11=a5c4529c-b27c-4987-ab69-c931387bd16b|38=33000|40=2|44=127.75865|54=2|55=EUR/JPY|60=20160106-19:36:10.130|10=041|
8=FIX.4.4|9=181|35=D|34=20|49=FIX_ORDER_GEN3|52=20160106-19:36:10.134|56=NEXBOOK|1=00040|11=26cb91d3-724c-41aa-8325-bc64f80d814d|38=43000|40=2|44=127.78196|54=2|55=EUR/JPY|60=20160106-19:36:10.132|10=024|
8=FIX.4.4|9=179|35=D|34=21|49=FIX_ORDER_GEN1|52=20160106-19:36:10.135|56=NEXBOOK|1=00441|11=54eb9e3c-7e5d-45fa-8462-434c356c538e|38=32000|40=2|44=0.70609|54=1|55=AUD/USD|60=20160106-19:36:10.133|10=174|
8=FIX.4.4|9=178|35=D|34=17|49=FIX_ORDER_GEN4|52=20160106-19:36:10.128|56=NEXBOOK|1=00151|11=4f743a9b-dd4c-43a1-97b2-6b79e5290f62|38=6000|40=2|44=1.40943|54=2|55=USD/CAD|60=20160106-19:36:10.119|10=114|
8=FIX.4.4|9=181|35=D|34=21|49=FIX_ORDER_GEN2|52=20160106-19:36:10.136|56=NEXBOOK|1=00071|11=1f9cb2d8-8677-4c30-ae78-1eefae229d65|38=91000|40=2|44=127.81526|54=2|55=EUR/JPY|60=20160106-19:36:10.135|10=147|
8=FIX.4.4|9=179|35=D|34=18|49=FIX_ORDER_GEN4|52=20160106-19:36:10.136|56=NEXBOOK|1=00287|11=46e4f438-19fe-4f8d-a432-98d76d713516|38=95000|40=2|44=0.73636|54=1|55=EUR/GBP|60=20160106-19:36:10.124|10=116|
8=FIX.4.4|9=178|35=D|34=21|49=FIX_ORDER_GEN3|52=20160106-19:36:10.138|56=NEXBOOK|1=00359|11=4139af4c-201c-4837-b5e7-ef3ec4c8c44a|38=24000|40=2|44=1.4622|54=1|55=GBP/USD|60=20160106-19:36:10.137|10=213|
8=FIX.4.4|9=168|35=D|34=22|49=FIX_ORDER_GEN1|52=20160106-19:36:10.139|56=NEXBOOK|1=00119|11=c8b3f8f5-9b25-4e6d-97f8-a974bc22e8f6|38=33000|40=1|54=1|55=EUR/GBP|60=20160106-19:36:10.138|10=031|
8=FIX.4.4|9=179|35=D|34=22|49=FIX_ORDER_GEN2|52=20160106-19:36:10.140|56=NEXBOOK|1=00182|11=1f1ccd76-33cf-4e69-9f8b-4d0ab3929765|38=19000|40=2|44=1.00836|54=2|55=USD/CHF|60=20160106-19:36:10.139|10=223|
8=FIX.4.4|9=179|35=D|34=19|49=FIX_ORDER_GEN4|52=20160106-19:36:10.138|56=NEXBOOK|1=00224|11=1d52e3df-4117-4eeb-88cb-913de55f4ebd|38=54000|40=2|44=1.00732|54=1|55=USD/CHF|60=20160106-19:36:10.128|10=100|
8=FIX.4.4|9=181|35=D|34=20|49=FIX_ORDER_GEN4|52=20160106-19:36:10.141|56=NEXBOOK|1=00331|11=09d6f5be-7338-4b43-8576-502fb7241de2|38=17000|40=2|44=118.60558|54=2|55=USD/JPY|60=20160106-19:36:10.131|10=195|
8=FIX.4.4|9=179|35=D|34=22|49=FIX_ORDER_GEN3|52=20160106-19:36:10.143|56=NEXBOOK|1=00344|11=ed468eae-641a-44bf-b06d-355edaedc212|38=64000|40=2|44=1.46343|54=2|55=GBP/USD|60=20160106-19:36:10.141|10=138|
8=FIX.4.4|9=178|35=D|34=23|49=FIX_ORDER_GEN1|52=20160106-19:36:10.144|56=NEXBOOK|1=00324|11=1bd5ace3-22de-4996-a860-950e70b052be|38=6000|40=2|44=0.73678|54=2|55=EUR/GBP|60=20160106-19:36:10.143|10=163|
8=FIX.4.4|9=179|35=D|34=21|49=FIX_ORDER_GEN4|52=20160106-19:36:10.142|56=NEXBOOK|1=00389|11=24b94c69-3610-490e-bc7e-4466538fc13e|38=36000|40=2|44=1.00756|54=1|55=USD/CHF|60=20160106-19:36:10.136|10=078|
8=FIX.4.4|9=179|35=D|34=22|49=FIX_ORDER_GEN4|52=20160106-19:36:10.146|56=NEXBOOK|1=00422|11=900bd8cd-c07e-4171-ae90-348864491830|38=93000|40=2|44=1.07813|54=2|55=EUR/USD|60=20160106-19:36:10.140|10=043|
8=FIX.4.4|9=179|35=D|34=23|49=FIX_ORDER_GEN4|52=20160106-19:36:10.147|56=NEXBOOK|1=00078|11=71a454f9-9869-40a0-975b-f380cf081146|38=33000|40=2|44=0.70669|54=2|55=AUD/USD|60=20160106-19:36:10.145|10=005|
8=FIX.4.4|9=179|35=D|34=23|49=FIX_ORDER_GEN2|52=20160106-19:36:10.147|56=NEXBOOK|1=00111|11=42d35739-84f5-4fc7-92bb-2e58d0cc554d|38=24000|40=2|44=0.70672|54=2|55=AUD/USD|60=20160106-19:36:10.144|10=176|
8=FIX.4.4|9=181|35=D|34=23|49=FIX_ORDER_GEN3|52=20160106-19:36:10.148|56=NEXBOOK|1=00170|11=a5b04449-d96e-4a13-9f74-5bad99d0438d|38=79000|40=2|44=127.67875|54=1|55=EUR/JPY|60=20160106-19:36:10.146|10=071|
8=FIX.4.4|9=179|35=D|34=24|49=FIX_ORDER_GEN1|52=20160106-19:36:10.149|56=NEXBOOK|1=00259|11=b8bcb686-7d71-44b4-ba80-3396629011ee|38=40000|40=2|44=1.40891|54=2|55=USD/CAD|60=20160106-19:36:10.148|10=116|
8=FIX.4.4|9=179|35=D|34=24|49=FIX_ORDER_GEN2|52=20160106-19:36:10.151|56=NEXBOOK|1=00472|11=3c8612a8-f882-4685-b939-f747fa7c0e61|38=59000|40=2|44=1.46319|54=2|55=GBP/USD|60=20160106-19:36:10.149|10=112|
8=FIX.4.4|9=168|35=D|34=24|49=FIX_ORDER_GEN4|52=20160106-19:36:10.152|56=NEXBOOK|1=00230|11=ccd17759-98a1-46aa-acb4-dba33f3eb24c|38=51000|40=1|54=2|55=USD/JPY|60=20160106-19:36:10.150|10=145|
8=FIX.4.4|9=168|35=D|34=24|49=FIX_ORDER_GEN3|52=20160106-19:36:10.153|56=NEXBOOK|1=00437|11=692b3e84-01c0-45e9-956f-a6a24c324144|38=98000|40=1|54=2|55=AUD/USD|60=20160106-19:36:10.151|10=022|
8=FIX.4.4|9=167|35=D|34=25|49=FIX_ORDER_GEN2|52=20160106-19:36:10.154|56=NEXBOOK|1=00276|11=c78deec3-bab1-4269-b11b-09881d9fd080|38=9000|40=1|54=1|55=USD/CHF|60=20160106-19:36:10.153|10=200|
8=FIX.4.4|9=168|35=D|34=25|49=FIX_ORDER_GEN1|52=20160106-19:36:10.154|56=NEXBOOK|1=00281|11=7c9512ca-581a-4cbc-9c70-0c312138fedd|38=48000|40=1|54=2|55=EUR/JPY|60=20160106-19:36:10.152|10=014|
8=FIX.4.4|9=180|35=D|34=25|49=FIX_ORDER_GEN4|52=20160106-19:36:10.155|56=NEXBOOK|1=00270|11=32375bf5-b860-4a2f-8b20-d5f762f7e15c|38=1000|40=2|44=127.76198|54=2|55=EUR/JPY|60=20160106-19:36:10.154|10=253|
8=FIX.4.4|9=179|35=D|34=25|49=FIX_ORDER_GEN3|52=20160106-19:36:10.156|56=NEXBOOK|1=00290|11=95d97436-83bf-456c-80f2-90254efb5de9|38=14000|40=2|44=0.73684|54=2|55=EUR/GBP|60=20160106-19:36:10.155|10=158|
8=FIX.4.4|9=168|35=D|34=26|49=FIX_ORDER_GEN1|52=20160106-19:36:10.157|56=NEXBOOK|1=00005|11=844a0b16-3b1a-4d9b-9b49-e2416fbc2bd0|38=78000|40=1|54=2|55=AUD/USD|60=20160106-19:36:10.156|10=246|
8=FIX.4.4|9=179|35=D|34=26|49=FIX_ORDER_GEN2|52=20160106-19:36:10.158|56=NEXBOOK|1=00255|11=6932c414-8785-488d-9b62-649a84758df6|38=15000|40=2|44=1.40971|54=2|55=USD/CAD|60=20160106-19:36:10.157|10=220|
8=FIX.4.4|9=179|35=D|34=26|49=FIX_ORDER_GEN4|52=20160106-19:36:10.161|56=NEXBOOK|1=00160|11=213995a0-83e9-44df-a2cb-a1526ea8364e|38=16000|40=2|44=0.73633|54=1|55=EUR/GBP|60=20160106-19:36:10.159|10=171|
8=FIX.4.4|9=179|35=D|34=26|49=FIX_ORDER_GEN3|52=20160106-19:36:10.162|56=NEXBOOK|1=00121|11=2043fd2d-8204-4cdb-8ce6-952c18ac9a3f|38=19000|40=2|44=1.46172|54=1|55=GBP/USD|60=20160106-19:36:10.161|10=000|
