8=FIX.4.4|9=178|35=D|34=2|49=FIX_ORDER_GEN1|52=20151222-17:59:34.224|56=NEXBOOK|1=00263|11=1a2c4ad9-d2a8-4244-bea5-3572cb2c57f1|38=66000|40=2|44=0.73964|54=1|55=EUR/GBP|60=20151222-17:59:34.176|10=225|
8=FIX.4.4|9=177|35=D|34=2|49=FIX_ORDER_GEN2|52=20151222-17:59:34.225|56=NEXBOOK|1=00147|11=83ae3c89-83dd-4cf5-ad18-a13d6e689b80|38=5000|40=2|44=1.09655|54=1|55=EUR/USD|60=20151222-17:59:34.223|10=212|
8=FIX.4.4|9=178|35=D|34=2|49=FIX_ORDER_GEN4|52=20151222-17:59:34.226|56=NEXBOOK|1=00277|11=d05ff07e-c322-49b8-a973-e099399cc8dc|38=82000|40=2|44=0.72371|54=2|55=AUD/USD|60=20151222-17:59:34.224|10=210|
8=FIX.4.4|9=178|35=D|34=2|49=FIX_ORDER_GEN3|52=20151222-17:59:34.227|56=NEXBOOK|1=00433|11=3b927205-5d94-4b13-ae2b-edbd1ede849e|38=46000|40=2|44=1.48231|54=2|55=GBP/USD|60=20151222-17:59:34.225|10=020|
8=FIX.4.4|9=178|35=D|34=3|49=FIX_ORDER_GEN1|52=20151222-17:59:34.228|56=NEXBOOK|1=00361|11=3449ce8d-b929-4b95-83c0-da833d1e3548|38=70000|40=2|44=0.73979|54=1|55=EUR/GBP|60=20151222-17:59:34.227|10=115|
8=FIX.4.4|9=178|35=D|34=3|49=FIX_ORDER_GEN2|52=20151222-17:59:34.229|56=NEXBOOK|1=00419|11=bd29551c-da06-4576-b2ac-4b25e991a25d|38=85000|40=2|44=132.807|54=2|55=EUR/JPY|60=20151222-17:59:34.228|10=213|
8=FIX.4.4|9=179|35=D|34=3|49=FIX_ORDER_GEN4|52=20151222-17:59:34.230|56=NEXBOOK|1=00150|11=54aef4d4-887e-4e6f-9e4c-2ebe4660b163|38=28000|40=2|44=132.7895|54=2|55=EUR/JPY|60=20151222-17:59:34.229|10=076|
8=FIX.4.4|9=177|35=D|34=3|49=FIX_ORDER_GEN3|52=20151222-17:59:34.231|56=NEXBOOK|1=00037|11=e622a35b-7285-40f9-840f-9806d8e62ed6|38=1000|40=2|44=1.39316|54=1|55=USD/CAD|60=20151222-17:59:34.230|10=232|
8=FIX.4.4|9=167|35=D|34=4|49=FIX_ORDER_GEN1|52=20151222-17:59:34.232|56=NEXBOOK|1=00466|11=4316c7ca-e29c-4599-bc27-12efa94c8885|38=46000|40=1|54=1|55=GBP/USD|60=20151222-17:59:34.231|10=140|
8=FIX.4.4|9=178|35=D|34=4|49=FIX_ORDER_GEN2|52=20151222-17:59:34.233|56=NEXBOOK|1=00288|11=5e6fe352-3ca2-4856-be54-1614577f9a15|38=90000|40=2|44=1.39402|54=2|55=USD/CAD|60=20151222-17:59:34.232|10=032|
8=FIX.4.4|9=178|35=D|34=4|49=FIX_ORDER_GEN4|52=20151222-17:59:34.234|56=NEXBOOK|1=00378|11=e5d1be9c-4ba8-497b-b959-99fe4a7a1b0a|38=15000|40=2|44=0.73952|54=1|55=EUR/GBP|60=20151222-17:59:34.233|10=092|
8=FIX.4.4|9=178|35=D|34=4|49=FIX_ORDER_GEN3|52=20151222-17:59:34.235|56=NEXBOOK|1=00285|11=ced98819-7aa6-4ffa-a34f-b3a187f9e7d8|38=89000|40=2|44=1.48145|54=1|55=GBP/USD|60=20151222-17:59:34.234|10=110|
8=FIX.4.4|9=178|35=D|34=5|49=FIX_ORDER_GEN1|52=20151222-17:59:34.236|56=NEXBOOK|1=00186|11=72b6de1d-4069-420c-afb8-9ed9cbb2b1f7|38=95000|40=2|44=132.723|54=1|55=EUR/JPY|60=20151222-17:59:34.235|10=103|
8=FIX.4.4|9=178|35=D|34=5|49=FIX_ORDER_GEN2|52=20151222-17:59:34.237|56=NEXBOOK|1=00056|11=77fd4430-021e-4c11-bceb-3ab64c9718cc|38=11000|40=2|44=1.09721|54=2|55=EUR/USD|60=20151222-17:59:34.236|10=232|
8=FIX.4.4|9=179|35=D|34=5|49=FIX_ORDER_GEN4|52=20151222-17:59:34.238|56=NEXBOOK|1=00159|11=9919bd05-9024-4afb-92f6-794b6762b2ef|38=80000|40=2|44=121.0197|54=2|55=USD/JPY|60=20151222-17:59:34.237|10=193|
8=FIX.4.4|9=178|35=D|34=5|49=FIX_ORDER_GEN3|52=20151222-17:59:34.239|56=NEXBOOK|1=00168|11=75e5efdc-8ad9-470f-9c59-039890180159|38=12000|40=2|44=0.98716|54=2|55=USD/CHF|60=20151222-17:59:34.238|10=078|
8=FIX.4.4|9=176|35=D|34=6|49=FIX_ORDER_GEN1|52=20151222-17:59:34.240|56=NEXBOOK|1=00431|11=d18d5d6f-fd26-4a58-873a-8995320f286a|38=25000|40=2|44=0.986|54=1|55=USD/CHF|60=20151222-17:59:34.239|10=002|
8=FIX.4.4|9=177|35=D|34=6|49=FIX_ORDER_GEN2|52=20151222-17:59:34.241|56=NEXBOOK|1=00397|11=a7ec44fe-740a-477b-89f8-23ad95d4c320|38=28000|40=2|44=0.7397|54=1|55=EUR/GBP|60=20151222-17:59:34.240|10=152|
8=FIX.4.4|9=178|35=D|34=6|49=FIX_ORDER_GEN4|52=20151222-17:59:34.242|56=NEXBOOK|1=00056|11=50020bed-db49-4b89-8249-321887aabeb4|38=87000|40=2|44=132.709|54=1|55=EUR/JPY|60=20151222-17:59:34.241|10=165|
8=FIX.4.4|9=177|35=D|34=6|49=FIX_ORDER_GEN3|52=20151222-17:59:34.243|56=NEXBOOK|1=00176|11=d74537d9-0719-40dd-a0ad-22feeac8c47b|38=28000|40=2|44=1.0973|54=2|55=EUR/USD|60=20151222-17:59:34.242|10=250|
8=FIX.4.4|9=178|35=D|34=7|49=FIX_ORDER_GEN1|52=20151222-17:59:34.248|56=NEXBOOK|1=00268|11=32a45af5-2093-4404-8b5c-7f8684188ea8|38=79000|40=2|44=1.39342|54=2|55=USD/CAD|60=20151222-17:59:34.242|10=004|
8=FIX.4.4|9=178|35=D|34=7|49=FIX_ORDER_GEN4|52=20151222-17:59:34.250|56=NEXBOOK|1=00482|11=eab4ce64-ec80-4ed7-abcd-236da69c1a88|38=89000|40=2|44=0.73955|54=1|55=EUR/GBP|60=20151222-17:59:34.249|10=192|
8=FIX.4.4|9=180|35=D|34=7|49=FIX_ORDER_GEN2|52=20151222-17:59:34.249|56=NEXBOOK|1=00279|11=daa877a6-3a8f-4f0d-9094-e2c61ebc033a|38=87000|40=2|44=120.93157|54=1|55=USD/JPY|60=20151222-17:59:34.248|10=164|
8=FIX.4.4|9=177|35=D|34=7|49=FIX_ORDER_GEN3|52=20151222-17:59:34.252|56=NEXBOOK|1=00234|11=5f8f7fbe-3fef-46ce-9941-83e7f89d5ef5|38=59000|40=2|44=1.4819|54=1|55=GBP/USD|60=20151222-17:59:34.250|10=075|
8=FIX.4.4|9=179|35=D|34=8|49=FIX_ORDER_GEN1|52=20151222-17:59:34.254|56=NEXBOOK|1=00274|11=b24c6e47-5ed1-4a0a-9c9d-07f9bdce8244|38=24000|40=2|44=132.6915|54=1|55=EUR/JPY|60=20151222-17:59:34.253|10=111|
8=FIX.4.4|9=178|35=D|34=8|49=FIX_ORDER_GEN2|52=20151222-17:59:34.255|56=NEXBOOK|1=00084|11=49369f39-db96-4cac-adf0-23d609852626|38=77000|40=2|44=1.09664|54=1|55=EUR/USD|60=20151222-17:59:34.254|10=140|
8=FIX.4.4|9=167|35=D|34=8|49=FIX_ORDER_GEN4|52=20151222-17:59:34.256|56=NEXBOOK|1=00200|11=139db8d0-979b-4d19-ac26-67be11665932|38=51000|40=1|54=2|55=GBP/USD|60=20151222-17:59:34.255|10=039|
8=FIX.4.4|9=167|35=D|34=8|49=FIX_ORDER_GEN3|52=20151222-17:59:34.257|56=NEXBOOK|1=00181|11=12cde845-0180-4f78-ac05-9024bb4aa59d|38=60000|40=1|54=1|55=EUR/GBP|60=20151222-17:59:34.255|10=119|
8=FIX.4.4|9=180|35=D|34=9|49=FIX_ORDER_GEN1|52=20151222-17:59:34.259|56=NEXBOOK|1=00238|11=369ce61e-2bb3-4bb6-9a5c-9e9544d626f2|38=14000|40=2|44=121.03038|54=2|55=USD/JPY|60=20151222-17:59:34.258|10=065|
8=FIX.4.4|9=178|35=D|34=9|49=FIX_ORDER_GEN2|52=20151222-17:59:34.261|56=NEXBOOK|1=00304|11=da05737e-0301-44c9-91aa-bade40c1900c|38=56000|40=2|44=0.74033|54=1|55=EUR/GBP|60=20151222-17:59:34.259|10=158|
8=FIX.4.4|9=178|35=D|34=9|49=FIX_ORDER_GEN4|52=20151222-17:59:34.262|56=NEXBOOK|1=00390|11=b7ba1816-c2f6-467d-9f9f-3d8a5993dd00|38=84000|40=2|44=0.72368|54=2|55=AUD/USD|60=20151222-17:59:34.260|10=216|
8=FIX.4.4|9=178|35=D|34=9|49=FIX_ORDER_GEN3|52=20151222-17:59:34.263|56=NEXBOOK|1=00424|11=508e7b63-8751-44f0-aea3-781f943a3b90|38=98000|40=2|44=1.39411|54=2|55=USD/CAD|60=20151222-17:59:34.261|10=039|
8=FIX.4.4|9=179|35=D|34=10|49=FIX_ORDER_GEN1|52=20151222-17:59:34.264|56=NEXBOOK|1=00058|11=7d89bc65-0e83-4421-a2df-a4526c36e90f|38=12000|40=2|44=0.98592|54=1|55=USD/CHF|60=20151222-17:59:34.263|10=188|
8=FIX.4.4|9=178|35=D|34=10|49=FIX_ORDER_GEN2|52=20151222-17:59:34.266|56=NEXBOOK|1=00103|11=389e4b71-8b1e-4dbb-8ad3-a549708bb04a|38=3000|40=2|44=1.48246|54=2|55=GBP/USD|60=20151222-17:59:34.264|10=223|
8=FIX.4.4|9=179|35=D|34=10|49=FIX_ORDER_GEN4|52=20151222-17:59:34.267|56=NEXBOOK|1=00241|11=5427daa5-0a58-4977-924e-8fa23db8806f|38=70000|40=2|44=1.09673|54=1|55=EUR/USD|60=20151222-17:59:34.265|10=176|
8=FIX.4.4|9=178|35=D|34=10|49=FIX_ORDER_GEN3|52=20151222-17:59:34.268|56=NEXBOOK|1=00472|11=f46c5340-812b-461d-8499-bb8a5ec059b6|38=58000|40=2|44=0.9866|54=2|55=USD/CHF|60=20151222-17:59:34.266|10=110|
8=FIX.4.4|9=178|35=D|34=11|49=FIX_ORDER_GEN1|52=20151222-17:59:34.269|56=NEXBOOK|1=00154|11=89685734-3f5a-4eda-9920-e94124268fd9|38=59000|40=2|44=1.4816|54=1|55=GBP/USD|60=20151222-17:59:34.268|10=034|
8=FIX.4.4|9=178|35=D|34=11|49=FIX_ORDER_GEN2|52=20151222-17:59:34.271|56=NEXBOOK|1=00382|11=8a209563-53b7-4d40-8163-f9d177788aa0|38=2000|40=2|44=1.48234|54=2|55=GBP/USD|60=20151222-17:59:34.269|10=212|
8=FIX.4.4|9=179|35=D|34=11|49=FIX_ORDER_GEN4|52=20151222-17:59:34.272|56=NEXBOOK|1=00249|11=513ccd14-f96b-4d4d-838d-f6675b1fdfbf|38=31000|40=2|44=1.09652|54=1|55=EUR/USD|60=20151222-17:59:34.270|10=154|
8=FIX.4.4|9=180|35=D|34=11|49=FIX_ORDER_GEN3|52=20151222-17:59:34.273|56=NEXBOOK|1=00101|11=68fab74b-5a14-4545-b112-0ae864eb5f7b|38=49000|40=2|44=132.7825|54=2|55=EUR/JPY|60=20151222-17:59:34.271|10=039|
8=FIX.4.4|9=179|35=D|34=12|49=FIX_ORDER_GEN1|52=20151222-17:59:34.274|56=NEXBOOK|1=00277|11=6f8e80cc-b2f7-4055-b6b7-7bb2a97fd06b|38=54000|40=2|44=1.39271|54=1|55=USD/CAD|60=20151222-17:59:34.273|10=071|
8=FIX.4.4|9=179|35=D|34=12|49=FIX_ORDER_GEN2|52=20151222-17:59:34.275|56=NEXBOOK|1=00400|11=1dbc1c76-35e8-4806-af83-baa7e0ef1c8a|38=11000|40=2|44=1.39396|54=2|55=USD/CAD|60=20151222-17:59:34.274|10=101|
8=FIX.4.4|9=179|35=D|34=12|49=FIX_ORDER_GEN4|52=20151222-17:59:34.276|56=NEXBOOK|1=00424|11=ec6290c7-874c-4e31-9d4a-14de975f1069|38=90000|40=2|44=1.09697|54=2|55=EUR/USD|60=20151222-17:59:34.275|10=192|
8=FIX.4.4|9=181|35=D|34=12|49=FIX_ORDER_GEN3|52=20151222-17:59:34.278|56=NEXBOOK|1=00221|11=0f9e37c3-19c6-43e1-bebd-e5c127809a8a|38=55000|40=2|44=120.93157|54=1|55=USD/JPY|60=20151222-17:59:34.276|10=155|
8=FIX.4.4|9=179|35=D|34=13|49=FIX_ORDER_GEN1|52=20151222-17:59:34.279|56=NEXBOOK|1=00263|11=14d165b3-3fb2-4614-a4f4-cfb7a5ca06b3|38=23000|40=2|44=1.09652|54=1|55=EUR/USD|60=20151222-17:59:34.278|10=034|
8=FIX.4.4|9=181|35=D|34=13|49=FIX_ORDER_GEN2|52=20151222-17:59:34.280|56=NEXBOOK|1=00341|11=e6eff899-2c56-4bd5-95b2-af0dad513c3d|38=81000|40=2|44=121.06242|54=2|55=USD/JPY|60=20151222-17:59:34.279|10=247|
8=FIX.4.4|9=179|35=D|34=13|49=FIX_ORDER_GEN4|52=20151222-17:59:34.282|56=NEXBOOK|1=00204|11=a81becfa-99ef-43a0-abf0-ca6b1c399dcf|38=64000|40=2|44=1.48178|54=1|55=GBP/USD|60=20151222-17:59:34.280|10=058|
8=FIX.4.4|9=179|35=D|34=13|49=FIX_ORDER_GEN3|52=20151222-17:59:34.283|56=NEXBOOK|1=00348|11=583cb71f-27ff-41f0-be97-cf964a3df337|38=64000|40=2|44=0.98704|54=2|55=USD/CHF|60=20151222-17:59:34.282|10=051|
8=FIX.4.4|9=179|35=D|34=14|49=FIX_ORDER_GEN1|52=20151222-17:59:34.285|56=NEXBOOK|1=00490|11=6643e6df-f14e-4314-be7e-7f2bab0cd970|38=71000|40=2|44=1.48213|54=2|55=GBP/USD|60=20151222-17:59:34.283|10=081|
8=FIX.4.4|9=178|35=D|34=14|49=FIX_ORDER_GEN2|52=20151222-17:59:34.286|56=NEXBOOK|1=00049|11=1c907f55-7cd5-43c5-9a6c-1e576e54672d|38=9000|40=2|44=0.73982|54=1|55=EUR/GBP|60=20151222-17:59:34.284|10=125|
8=FIX.4.4|9=179|35=D|34=14|49=FIX_ORDER_GEN4|52=20151222-17:59:34.287|56=NEXBOOK|1=00080|11=2a2949cf-29f9-49d2-812f-6f4919f1ebea|38=27000|40=2|44=0.73997|54=1|55=EUR/GBP|60=20151222-17:59:34.286|10=027|
8=FIX.4.4|9=167|35=D|34=14|49=FIX_ORDER_GEN3|52=20151222-17:59:34.288|56=NEXBOOK|1=00066|11=f0c39c64-8428-440d-a8b7-f32a931dcf30|38=2000|40=1|54=1|55=EUR/USD|60=20151222-17:59:34.287|10=151|
8=FIX.4.4|9=179|35=D|34=15|49=FIX_ORDER_GEN1|52=20151222-17:59:34.289|56=NEXBOOK|1=00434|11=628f9306-afdf-4f6c-bce8-8cfaf2bd0bda|38=32000|40=2|44=0.98564|54=1|55=USD/CHF|60=20151222-17:59:34.288|10=077|
8=FIX.4.4|9=168|35=D|34=15|49=FIX_ORDER_GEN2|52=20151222-17:59:34.290|56=NEXBOOK|1=00389|11=67e96cd5-bdd2-4452-b532-e8bfa4019f00|38=43000|40=1|54=2|55=USD/CAD|60=20151222-17:59:34.289|10=220|
8=FIX.4.4|9=177|35=D|34=15|49=FIX_ORDER_GEN4|52=20151222-17:59:34.291|56=NEXBOOK|1=00003|11=58115cf2-a841-416d-a0e0-98df85139b50|38=66000|40=2|44=0.987|54=2|55=USD/CHF|60=20151222-17:59:34.290|10=241|
8=FIX.4.4|9=179|35=D|34=15|49=FIX_ORDER_GEN3|52=20151222-17:59:34.292|56=NEXBOOK|1=00136|11=5948b865-8fdd-4b08-91ee-06b1b021e46d|38=68000|40=2|44=1.09688|54=1|55=EUR/USD|60=20151222-17:59:34.291|10=233|
8=FIX.4.4|9=178|35=D|34=16|49=FIX_ORDER_GEN1|52=20151222-17:59:34.294|56=NEXBOOK|1=00439|11=7cc70511-589b-4683-9ac4-683dec58e9d0|38=71000|40=2|44=0.7404|54=2|55=EUR/GBP|60=20151222-17:59:34.292|10=116|
8=FIX.4.4|9=179|35=D|34=16|49=FIX_ORDER_GEN2|52=20151222-17:59:34.295|56=NEXBOOK|1=00369|11=a8179741-7773-4fac-bbf5-5077e74877ff|38=65000|40=2|44=1.39292|54=1|55=USD/CAD|60=20151222-17:59:34.294|10=178|
8=FIX.4.4|9=179|35=D|34=16|49=FIX_ORDER_GEN4|52=20151222-17:59:34.296|56=NEXBOOK|1=00257|11=bcce6d99-773c-4f35-bfbf-319ce99fa079|38=21000|40=2|44=1.39301|54=1|55=USD/CAD|60=20151222-17:59:34.295|10=142|
8=FIX.4.4|9=179|35=D|34=16|49=FIX_ORDER_GEN3|52=20151222-17:59:34.297|56=NEXBOOK|1=00192|11=aecef3e7-1442-419c-bb0c-bf33a66f7fb0|38=72000|40=2|44=0.98696|54=2|55=USD/CHF|60=20151222-17:59:34.296|10=187|
8=FIX.4.4|9=179|35=D|34=17|49=FIX_ORDER_GEN1|52=20151222-17:59:34.299|56=NEXBOOK|1=00368|11=0b33da06-ee29-4d6a-bd05-b337cf8411ad|38=77000|40=2|44=0.98532|54=1|55=USD/CHF|60=20151222-17:59:34.297|10=082|
8=FIX.4.4|9=179|35=D|34=17|49=FIX_ORDER_GEN2|52=20151222-17:59:34.300|56=NEXBOOK|1=00152|11=a1b23a74-5877-4b18-803d-d3622588a19e|38=87000|40=2|44=0.74027|54=1|55=EUR/GBP|60=20151222-17:59:34.299|10=052|
8=FIX.4.4|9=181|35=D|34=17|49=FIX_ORDER_GEN4|52=20151222-17:59:34.301|56=NEXBOOK|1=00362|11=34a40286-58f6-4700-bd15-a571af7cf31e|38=46000|40=2|44=121.06242|54=2|55=USD/JPY|60=20151222-17:59:34.300|10=236|
8=FIX.4.4|9=180|35=D|34=17|49=FIX_ORDER_GEN3|52=20151222-17:59:34.302|56=NEXBOOK|1=00139|11=bc91351e-fd8d-4acc-aa42-418c916d0eab|38=82000|40=2|44=121.0464|54=2|55=USD/JPY|60=20151222-17:59:34.301|10=214|
8=FIX.4.4|9=179|35=D|34=18|49=FIX_ORDER_GEN1|52=20151222-17:59:34.304|56=NEXBOOK|1=00457|11=0e816150-00e4-4caf-96f8-124a19d0d846|38=93000|40=2|44=1.48142|54=1|55=GBP/USD|60=20151222-17:59:34.302|10=084|
8=FIX.4.4|9=181|35=D|34=18|49=FIX_ORDER_GEN2|52=20151222-17:59:34.305|56=NEXBOOK|1=00259|11=1571a175-63ed-4724-9b5d-27c8f033558c|38=55000|40=2|44=121.01169|54=2|55=USD/JPY|60=20151222-17:59:34.304|10=169|
8=FIX.4.4|9=181|35=D|34=18|49=FIX_ORDER_GEN4|52=20151222-17:59:34.306|56=NEXBOOK|1=00414|11=74ca898f-b41a-41c4-8569-df994519298b|38=97000|40=2|44=121.01169|54=2|55=USD/JPY|60=20151222-17:59:34.305|10=246|
8=FIX.4.4|9=181|35=D|34=18|49=FIX_ORDER_GEN3|52=20151222-17:59:34.307|56=NEXBOOK|1=00051|11=1140229b-8295-4123-896e-407e7ec6bac9|38=18000|40=2|44=121.00635|54=2|55=USD/JPY|60=20151222-17:59:34.306|10=159|
8=FIX.4.4|9=179|35=D|34=19|49=FIX_ORDER_GEN1|52=20151222-17:59:34.309|56=NEXBOOK|1=00287|11=c8af8722-4bd4-488a-b388-ca70a38cccb1|38=29000|40=2|44=0.72407|54=2|55=AUD/USD|60=20151222-17:59:34.307|10=087|
8=FIX.4.4|9=180|35=D|34=19|49=FIX_ORDER_GEN2|52=20151222-17:59:34.310|56=NEXBOOK|1=00293|11=b5dda9ef-e3c4-4ecf-b095-5382284cb8ea|38=1000|40=2|44=120.94492|54=1|55=USD/JPY|60=20151222-17:59:34.309|10=248|
8=FIX.4.4|9=179|35=D|34=19|49=FIX_ORDER_GEN4|52=20151222-17:59:34.311|56=NEXBOOK|1=00431|11=cf1f2ba5-8e50-42dd-afdc-756a7cc66514|38=55000|40=2|44=0.74049|54=2|55=EUR/GBP|60=20151222-17:59:34.310|10=116|
8=FIX.4.4|9=168|35=D|34=19|49=FIX_ORDER_GEN3|52=20151222-17:59:34.312|56=NEXBOOK|1=00148|11=335cd4d6-5dcb-4ba9-91e4-52d0e3cb98e5|38=86000|40=1|54=2|55=EUR/USD|60=20151222-17:59:34.311|10=088|
8=FIX.4.4|9=178|35=D|34=20|49=FIX_ORDER_GEN1|52=20151222-17:59:34.313|56=NEXBOOK|1=00106|11=ed44ff6f-3304-4ed7-b01e-d5c0b32cd4e3|38=37000|40=2|44=0.9868|54=2|55=USD/CHF|60=20151222-17:59:34.312|10=049|
8=FIX.4.4|9=179|35=D|34=20|49=FIX_ORDER_GEN2|52=20151222-17:59:34.314|56=NEXBOOK|1=00021|11=dfcc9f6e-60aa-43ee-a9fd-f6d197d4f4a0|38=11000|40=2|44=0.74049|54=2|55=EUR/GBP|60=20151222-17:59:34.313|10=000|
8=FIX.4.4|9=179|35=D|34=20|49=FIX_ORDER_GEN4|52=20151222-17:59:34.315|56=NEXBOOK|1=00218|11=bf746d03-da76-453a-813b-ce3f90cade5a|38=7000|40=2|44=132.8035|54=2|55=EUR/JPY|60=20151222-17:59:34.314|10=136|
8=FIX.4.4|9=178|35=D|34=20|49=FIX_ORDER_GEN3|52=20151222-17:59:34.316|56=NEXBOOK|1=00211|11=bdf74e91-fedc-44d5-8784-aa28fd7a2625|38=17000|40=2|44=0.9864|54=2|55=USD/CHF|60=20151222-17:59:34.315|10=028|
8=FIX.4.4|9=168|35=D|34=21|49=FIX_ORDER_GEN1|52=20151222-17:59:34.317|56=NEXBOOK|1=00001|11=bb3edb40-db77-4108-9148-a6ae19dfce3f|38=55000|40=1|54=1|55=AUD/USD|60=20151222-17:59:34.316|10=097|
8=FIX.4.4|9=179|35=D|34=21|49=FIX_ORDER_GEN2|52=20151222-17:59:34.319|56=NEXBOOK|1=00187|11=c4927b5f-0c80-4fec-b57f-b4917f5c8940|38=83000|40=2|44=0.74033|54=1|55=EUR/GBP|60=20151222-17:59:34.317|10=254|
8=FIX.4.4|9=179|35=D|34=21|49=FIX_ORDER_GEN4|52=20151222-17:59:34.320|56=NEXBOOK|1=00383|11=b262415b-a177-4b30-a6a5-039bbe66f1d5|38=64000|40=2|44=132.793|54=2|55=EUR/JPY|60=20151222-17:59:34.319|10=200|
8=FIX.4.4|9=179|35=D|34=21|49=FIX_ORDER_GEN3|52=20151222-17:59:34.321|56=NEXBOOK|1=00027|11=36067cad-49d2-432c-a344-4c13d5cec2f8|38=96000|40=2|44=1.48195|54=2|55=GBP/USD|60=20151222-17:59:34.320|10=226|
8=FIX.4.4|9=168|35=D|34=22|49=FIX_ORDER_GEN1|52=20151222-17:59:34.322|56=NEXBOOK|1=00133|11=3c2a2211-aa51-49d9-9268-394a03e1796a|38=92000|40=1|54=1|55=USD/CAD|60=20151222-17:59:34.321|10=251|
8=FIX.4.4|9=178|35=D|34=22|49=FIX_ORDER_GEN2|52=20151222-17:59:34.323|56=NEXBOOK|1=00211|11=4a9c3192-7a7a-4018-83b9-89b74b731aa4|38=72000|40=2|44=132.66|54=1|55=EUR/JPY|60=20151222-17:59:34.322|10=053|
8=FIX.4.4|9=180|35=D|34=22|49=FIX_ORDER_GEN4|52=20151222-17:59:34.325|56=NEXBOOK|1=00470|11=7e004bb8-3bfa-4b94-b654-55bf945f84dd|38=46000|40=2|44=120.9289|54=1|55=USD/JPY|60=20151222-17:59:34.323|10=110|
8=FIX.4.4|9=179|35=D|34=22|49=FIX_ORDER_GEN3|52=20151222-17:59:34.326|56=NEXBOOK|1=00394|11=efd2dbb5-d1d8-4bc0-b938-b5ba81818c84|38=86000|40=2|44=0.72392|54=2|55=AUD/USD|60=20151222-17:59:34.324|10=135|
8=FIX.4.4|9=179|35=D|34=23|49=FIX_ORDER_GEN1|52=20151222-17:59:34.327|56=NEXBOOK|1=00168|11=fde587cd-4ea2-4281-a38c-c1173288e528|38=63000|40=2|44=0.72338|54=2|55=AUD/USD|60=20151222-17:59:34.326|10=203|
8=FIX.4.4|9=179|35=D|34=23|49=FIX_ORDER_GEN2|52=20151222-17:59:34.329|56=NEXBOOK|1=00264|11=819a611e-8e82-4cfa-a7ba-c2d065c99090|38=53000|40=2|44=0.72341|54=2|55=AUD/USD|60=20151222-17:59:34.327|10=238|
8=FIX.4.4|9=178|35=D|34=23|49=FIX_ORDER_GEN4|52=20151222-17:59:34.330|56=NEXBOOK|1=00488|11=2017ca60-cce3-4ac4-9de3-5594790dd93d|38=55000|40=2|44=132.73|54=1|55=EUR/JPY|60=20151222-17:59:34.329|10=218|
8=FIX.4.4|9=179|35=D|34=23|49=FIX_ORDER_GEN3|52=20151222-17:59:34.331|56=NEXBOOK|1=00203|11=f069e0e2-6da1-461b-b662-3561de0754bf|38=67000|40=2|44=0.72374|54=2|55=AUD/USD|60=20151222-17:59:34.330|10=174|
8=FIX.4.4|9=179|35=D|34=24|49=FIX_ORDER_GEN1|52=20151222-17:59:34.333|56=NEXBOOK|1=00343|11=4f7df1e3-7da4-4e9d-a6a0-606f895a6bec|38=49000|40=2|44=1.48204|54=2|55=GBP/USD|60=20151222-17:59:34.331|10=129|
8=FIX.4.4|9=178|35=D|34=24|49=FIX_ORDER_GEN2|52=20151222-17:59:34.334|56=NEXBOOK|1=00295|11=d74aa73a-dc83-48df-8681-137bf4a71daa|38=9000|40=2|44=0.98632|54=2|55=USD/CHF|60=20151222-17:59:34.333|10=029|
8=FIX.4.4|9=180|35=D|34=24|49=FIX_ORDER_GEN4|52=20151222-17:59:34.335|56=NEXBOOK|1=00014|11=9387872d-7f37-44f6-ab5e-8a0f6ff93abd|38=96000|40=2|44=120.9556|54=1|55=USD/JPY|60=20151222-17:59:34.334|10=129|
8=FIX.4.4|9=179|35=D|34=24|49=FIX_ORDER_GEN3|52=20151222-17:59:34.336|56=NEXBOOK|1=00213|11=7e74c72f-f9cf-4127-a3c7-fa782e9f3e0c|38=71000|40=2|44=1.39283|54=1|55=USD/CAD|60=20151222-17:59:34.335|10=079|
8=FIX.4.4|9=179|35=D|34=25|49=FIX_ORDER_GEN1|52=20151222-17:59:34.338|56=NEXBOOK|1=00255|11=ef18c713-e53b-4b69-bb63-b37736b85a04|38=90000|40=2|44=1.39271|54=1|55=USD/CAD|60=20151222-17:59:34.336|10=180|
8=FIX.4.4|9=178|35=D|34=25|49=FIX_ORDER_GEN2|52=20151222-17:59:34.339|56=NEXBOOK|1=00177|11=476bc480-dc97-4aef-aeaf-614a3e80e9ad|38=3000|40=2|44=0.72329|54=1|55=AUD/USD|60=20151222-17:59:34.338|10=136|
8=FIX.4.4|9=168|35=D|34=25|49=FIX_ORDER_GEN4|52=20151222-17:59:34.340|56=NEXBOOK|1=00411|11=a3672e50-e5a7-4ea9-bf84-cce0411d6855|38=10000|40=1|54=1|55=USD/CAD|60=20151222-17:59:34.339|10=199|
8=FIX.4.4|9=181|35=D|34=25|49=FIX_ORDER_GEN3|52=20151222-17:59:34.341|56=NEXBOOK|1=00500|11=a2612530-404d-40af-9ac4-84f5ac206807|38=76000|40=2|44=120.95026|54=1|55=USD/JPY|60=20151222-17:59:34.340|10=185|
8=FIX.4.4|9=168|35=D|34=26|49=FIX_ORDER_GEN1|52=20151222-17:59:34.342|56=NEXBOOK|1=00044|11=7ca62200-6cf6-4d21-aae6-d7235e015d38|38=51000|40=1|54=2|55=AUD/USD|60=20151222-17:59:34.341|10=152|
8=FIX.4.4|9=179|35=D|34=26|49=FIX_ORDER_GEN2|52=20151222-17:59:34.343|56=NEXBOOK|1=00335|11=c400345e-db05-4559-9c2b-c76aee7f5c08|38=95000|40=2|44=1.09712|54=2|55=EUR/USD|60=20151222-17:59:34.342|10=004|
8=FIX.4.4|9=178|35=D|34=26|49=FIX_ORDER_GEN4|52=20151222-17:59:34.345|56=NEXBOOK|1=00124|11=b6dfd642-3635-4f41-a8b3-428d1d0f876a|38=4000|40=2|44=1.48178|54=1|55=GBP/USD|60=20151222-17:59:34.343|10=144|
8=FIX.4.4|9=180|35=D|34=26|49=FIX_ORDER_GEN3|52=20151222-17:59:34.346|56=NEXBOOK|1=00404|11=73f47384-957b-4612-b1b3-238579d7f9ba|38=46000|40=2|44=132.7055|54=1|55=EUR/JPY|60=20151222-17:59:34.344|10=135|
8=FIX.4.4|9=168|35=D|34=27|49=FIX_ORDER_GEN1|52=20151222-17:59:34.347|56=NEXBOOK|1=00467|11=13e4a702-c389-4f37-a3c0-a343df1e9d76|38=92000|40=1|54=2|55=AUD/USD|60=20151222-17:59:34.346|10=190|
8=FIX.4.4|9=179|35=D|34=27|49=FIX_ORDER_GEN2|52=20151222-17:59:34.348|56=NEXBOOK|1=00266|11=6d1834ea-60ca-4521-988b-d4f6ace22bec|38=68000|40=2|44=1.09757|54=2|55=EUR/USD|60=20151222-17:59:34.347|10=117|
8=FIX.4.4|9=179|35=D|34=27|49=FIX_ORDER_GEN4|52=20151222-17:59:34.350|56=NEXBOOK|1=00150|11=f9b49747-6256-42ef-83dc-ee031559cc0e|38=14000|40=2|44=0.73994|54=1|55=EUR/GBP|60=20151222-17:59:34.348|10=213|
8=FIX.4.4|9=179|35=D|34=27|49=FIX_ORDER_GEN3|52=20151222-17:59:34.351|56=NEXBOOK|1=00144|11=91fe0e69-36f2-448c-b7d4-00e182a4d461|38=83000|40=2|44=0.72341|54=2|55=AUD/USD|60=20151222-17:59:34.349|10=146|
8=FIX.4.4|9=178|35=D|34=28|49=FIX_ORDER_GEN1|52=20151222-17:59:34.352|56=NEXBOOK|1=00461|11=936ba5d8-c6cb-481c-a13a-5867647e9702|38=3000|40=2|44=0.74024|54=1|55=EUR/GBP|60=20151222-17:59:34.351|10=092|
8=FIX.4.4|9=179|35=D|34=28|49=FIX_ORDER_GEN2|52=20151222-17:59:34.354|56=NEXBOOK|1=00168|11=b2233fbe-53ed-451f-83f4-f754b8af66e4|38=31000|40=2|44=0.73979|54=1|55=EUR/GBP|60=20151222-17:59:34.352|10=055|
8=FIX.4.4|9=179|35=D|34=28|49=FIX_ORDER_GEN4|52=20151222-17:59:34.355|56=NEXBOOK|1=00132|11=944065b2-6300-42f2-b195-81d77b62d59c|38=91000|40=2|44=1.09775|54=2|55=EUR/USD|60=20151222-17:59:34.354|10=030|
8=FIX.4.4|9=179|35=D|34=28|49=FIX_ORDER_GEN3|52=20151222-17:59:34.356|56=NEXBOOK|1=00417|11=ba609223-164f-4542-8f59-d6924717420f|38=69000|40=2|44=1.48133|54=1|55=GBP/USD|60=20151222-17:59:34.355|10=228|
8=FIX.4.4|9=179|35=D|34=29|49=FIX_ORDER_GEN1|52=20151222-17:59:34.358|56=NEXBOOK|1=00086|11=b9b0debc-f146-4fc3-ab82-c5572054d57e|38=42000|40=2|44=132.793|54=2|55=EUR/JPY|60=20151222-17:59:34.356|10=115|
8=FIX.4.4|9=179|35=D|34=29|49=FIX_ORDER_GEN2|52=20151222-17:59:34.359|56=NEXBOOK|1=00074|11=6c939b11-7843-4b55-99be-352a63c88efe|38=13000|40=2|44=1.48219|54=2|55=GBP/USD|60=20151222-17:59:34.358|10=179|
8=FIX.4.4|9=168|35=D|34=29|49=FIX_ORDER_GEN4|52=20151222-17:59:34.360|56=NEXBOOK|1=00271|11=230fb766-9d8e-42bc-aae5-4c62f201a682|38=18000|40=1|54=1|55=EUR/USD|60=20151222-17:59:34.359|10=246|
8=FIX.4.4|9=179|35=D|34=29|49=FIX_ORDER_GEN3|52=20151222-17:59:34.361|56=NEXBOOK|1=00204|11=1bc70abf-780d-4859-b690-14524d920527|38=46000|40=2|44=132.786|54=2|55=EUR/JPY|60=20151222-17:59:34.360|10=076|
8=FIX.4.4|9=178|35=D|34=30|49=FIX_ORDER_GEN1|52=20151222-17:59:34.362|56=NEXBOOK|1=00043|11=b694c33f-66db-49cf-bde3-1214519b1ff1|38=4000|40=2|44=0.74103|54=2|55=EUR/GBP|60=20151222-17:59:34.361|10=216|
8=FIX.4.4|9=181|35=D|34=30|49=FIX_ORDER_GEN2|52=20151222-17:59:34.363|56=NEXBOOK|1=00380|11=95fabc26-750c-4a04-83d1-01472b7e915d|38=21000|40=2|44=121.00902|54=2|55=USD/JPY|60=20151222-17:59:34.362|10=234|
8=FIX.4.4|9=179|35=D|34=30|49=FIX_ORDER_GEN4|52=20151222-17:59:34.365|56=NEXBOOK|1=00292|11=4cdd2e32-1150-48f3-9f36-a1a6caf792b7|38=34000|40=2|44=1.09685|54=1|55=EUR/USD|60=20151222-17:59:34.363|10=006|
8=FIX.4.4|9=179|35=D|34=30|49=FIX_ORDER_GEN3|52=20151222-17:59:34.366|56=NEXBOOK|1=00042|11=dfc53f76-8259-4c08-a37f-af478311e286|38=77000|40=2|44=0.98676|54=2|55=USD/CHF|60=20151222-17:59:34.365|10=172|
8=FIX.4.4|9=179|35=D|34=31|49=FIX_ORDER_GEN1|52=20151222-17:59:34.367|56=NEXBOOK|1=00316|11=541403ca-22ca-493d-a6e6-83d4e862492a|38=92000|40=2|44=1.09766|54=2|55=EUR/USD|60=20151222-17:59:34.366|10=169|
8=FIX.4.4|9=179|35=D|34=31|49=FIX_ORDER_GEN2|52=20151222-17:59:34.368|56=NEXBOOK|1=00292|11=58b611b4-58a7-49ea-b4d2-f2d8895173fa|38=47000|40=2|44=0.73997|54=1|55=EUR/GBP|60=20151222-17:59:34.367|10=227|
8=FIX.4.4|9=181|35=D|34=31|49=FIX_ORDER_GEN4|52=20151222-17:59:34.370|56=NEXBOOK|1=00122|11=db05b3f3-64e7-4450-b345-5c35e4e5a938|38=69000|40=2|44=120.98497|54=1|55=USD/JPY|60=20151222-17:59:34.368|10=024|
8=FIX.4.4|9=180|35=D|34=31|49=FIX_ORDER_GEN3|52=20151222-17:59:34.371|56=NEXBOOK|1=00374|11=3c3e8e4c-42e0-4b59-a29e-4cfcaf8daf10|38=79000|40=2|44=132.7475|54=1|55=EUR/JPY|60=20151222-17:59:34.369|10=002|
8=FIX.4.4|9=179|35=D|34=32|49=FIX_ORDER_GEN1|52=20151222-17:59:34.372|56=NEXBOOK|1=00457|11=47a3a842-a34c-47a3-b050-a786371b42d8|38=84000|40=2|44=0.98616|54=1|55=USD/CHF|60=20151222-17:59:34.371|10=087|
8=FIX.4.4|9=178|35=D|34=32|49=FIX_ORDER_GEN2|52=20151222-17:59:34.373|56=NEXBOOK|1=00179|11=9ebe1dcd-14e3-4e31-a824-96c97f9d491c|38=5000|40=2|44=0.98588|54=1|55=USD/CHF|60=20151222-17:59:34.372|10=007|
8=FIX.4.4|9=179|35=D|34=32|49=FIX_ORDER_GEN4|52=20151222-17:59:34.375|56=NEXBOOK|1=00455|11=37652e2b-5966-41de-9a13-8f5c684200bc|38=61000|40=2|44=1.48181|54=1|55=GBP/USD|60=20151222-17:59:34.373|10=106|
8=FIX.4.4|9=178|35=D|34=32|49=FIX_ORDER_GEN3|52=20151222-17:59:34.376|56=NEXBOOK|1=00323|11=ceca4737-e15a-46fb-a1f7-cc172b3c3601|38=12000|40=2|44=1.4813|54=1|55=GBP/USD|60=20151222-17:59:34.375|10=006|
8=FIX.4.4|9=179|35=D|34=33|49=FIX_ORDER_GEN1|52=20151222-17:59:34.378|56=NEXBOOK|1=00043|11=9b3eceae-5887-4fc2-914a-50da58ce7fef|38=83000|40=2|44=1.09658|54=1|55=EUR/USD|60=20151222-17:59:34.376|10=225|
8=FIX.4.4|9=168|35=D|34=33|49=FIX_ORDER_GEN4|52=20151222-17:59:34.379|56=NEXBOOK|1=00041|11=b01d39cb-559e-4b84-bb97-0358d09065bf|38=26000|40=1|54=1|55=GBP/USD|60=20151222-17:59:34.378|10=191|
8=FIX.4.4|9=179|35=D|34=33|49=FIX_ORDER_GEN3|52=20151222-17:59:34.381|56=NEXBOOK|1=00213|11=2c667101-e9ac-4dc5-bdd8-155a03891ffe|38=42000|40=2|44=1.09724|54=2|55=EUR/USD|60=20151222-17:59:34.379|10=051|
8=FIX.4.4|9=167|35=D|34=34|49=FIX_ORDER_GEN4|52=20151222-17:59:34.385|56=NEXBOOK|1=00200|11=27650d8e-727d-4364-8568-dd7fe34e9171|38=5000|40=1|54=2|55=USD/CHF|60=20151222-17:59:34.383|10=002|
8=FIX.4.4|9=177|35=D|34=33|49=FIX_ORDER_GEN2|52=20151222-17:59:34.384|56=NEXBOOK|1=00273|11=dab32964-0f5f-4f00-be74-d0c1207501a4|38=5000|40=2|44=0.7404|54=2|55=EUR/GBP|60=20151222-17:59:34.382|10=063|
8=FIX.4.4|9=181|35=D|34=34|49=FIX_ORDER_GEN2|52=20151222-17:59:34.386|56=NEXBOOK|1=00012|11=f6b6f250-b7f0-4075-9a4b-eb73b27e5511|38=27000|40=2|44=120.93424|54=1|55=USD/JPY|60=20151222-17:59:34.377|10=052|
8=FIX.4.4|9=179|35=D|34=34|49=FIX_ORDER_GEN1|52=20151222-17:59:34.391|56=NEXBOOK|1=00089|11=b8bdd576-8442-497c-835a-022412dc0ba6|38=68000|40=2|44=0.98604|54=1|55=USD/CHF|60=20151222-17:59:34.381|10=146|
8=FIX.4.4|9=179|35=D|34=34|49=FIX_ORDER_GEN3|52=20151222-17:59:34.393|56=NEXBOOK|1=00462|11=7cc5f3d3-1a59-4282-948d-93438ac76bbd|38=68000|40=2|44=0.73973|54=1|55=EUR/GBP|60=20151222-17:59:34.391|10=224|
8=FIX.4.4|9=168|35=D|34=35|49=FIX_ORDER_GEN1|52=20151222-17:59:34.393|56=NEXBOOK|1=00174|11=c5210e8b-8133-4cac-9131-52aab401dca2|38=15000|40=1|54=1|55=EUR/GBP|60=20151222-17:59:34.392|10=193|
8=FIX.4.4|9=180|35=D|34=35|49=FIX_ORDER_GEN4|52=20151222-17:59:34.395|56=NEXBOOK|1=00414|11=3ad9e26d-d5fb-449a-a932-70689bd1a384|38=93000|40=2|44=121.0197|54=2|55=USD/JPY|60=20151222-17:59:34.394|10=071|
8=FIX.4.4|9=179|35=D|34=35|49=FIX_ORDER_GEN2|52=20151222-17:59:34.394|56=NEXBOOK|1=00333|11=01af8b37-500a-4a6b-9142-1c87d3e86e34|38=95000|40=2|44=1.39334|54=1|55=USD/CAD|60=20151222-17:59:34.393|10=130|
8=FIX.4.4|9=179|35=D|34=35|49=FIX_ORDER_GEN3|52=20151222-17:59:34.396|56=NEXBOOK|1=00258|11=c72939a7-55fc-42ec-8ed1-862f4fb9a3de|38=91000|40=2|44=0.72308|54=1|55=AUD/USD|60=20151222-17:59:34.395|10=116|
8=FIX.4.4|9=168|35=D|34=36|49=FIX_ORDER_GEN1|52=20151222-17:59:34.397|56=NEXBOOK|1=00159|11=2b29fca4-aebe-4209-8966-8e7c81f261d2|38=11000|40=1|54=2|55=EUR/USD|60=20151222-17:59:34.396|10=012|
8=FIX.4.4|9=168|35=D|34=36|49=FIX_ORDER_GEN2|52=20151222-17:59:34.397|56=NEXBOOK|1=00275|11=f91e0aa0-8894-404d-8a5d-5007e39c04d8|38=61000|40=1|54=2|55=AUD/USD|60=20151222-17:59:34.397|10=151|
8=FIX.4.4|9=182|35=D|34=36|49=FIX_ORDER_GEN4|52=20151222-17:59:34.398|56=NEXBOOK|1=00237|11=540012b0-d431-4d12-8c33-5a992daabb13|38=100000|40=2|44=121.03038|54=2|55=USD/JPY|60=20151222-17:59:34.397|10=026|
8=FIX.4.4|9=179|35=D|34=36|49=FIX_ORDER_GEN3|52=20151222-17:59:34.399|56=NEXBOOK|1=00184|11=5d666f89-2b13-47a7-af87-8eda00f897bb|38=78000|40=2|44=0.98532|54=1|55=USD/CHF|60=20151222-17:59:34.398|10=031|
8=FIX.4.4|9=179|35=D|34=37|49=FIX_ORDER_GEN2|52=20151222-17:59:34.404|56=NEXBOOK|1=00099|11=87d79b5c-ab19-4814-af4d-1f5fa3c2ba74|38=19000|40=2|44=0.98568|54=1|55=USD/CHF|60=20151222-17:59:34.400|10=087|
8=FIX.4.4|9=179|35=D|34=37|49=FIX_ORDER_GEN4|52=20151222-17:59:34.404|56=NEXBOOK|1=00460|11=736812ad-46ad-4c3e-b84a-519af52bb744|38=53000|40=2|44=0.73979|54=1|55=EUR/GBP|60=20151222-17:59:34.401|10=241|
8=FIX.4.4|9=179|35=D|34=37|49=FIX_ORDER_GEN1|52=20151222-17:59:34.404|56=NEXBOOK|1=00311|11=ffb327e8-a0dd-4845-92b7-a0ea52303b84|38=95000|40=2|44=1.39346|54=1|55=USD/CAD|60=20151222-17:59:34.399|10=227|
8=FIX.4.4|9=179|35=D|34=37|49=FIX_ORDER_GEN3|52=20151222-17:59:34.405|56=NEXBOOK|1=00475|11=cb3571f0-a567-4016-82ac-2bb81f982cd6|38=54000|40=2|44=1.48201|54=2|55=GBP/USD|60=20151222-17:59:34.402|10=182|
8=FIX.4.4|9=179|35=D|34=38|49=FIX_ORDER_GEN2|52=20151222-17:59:34.406|56=NEXBOOK|1=00465|11=bb9abdb5-6bdb-452b-86b1-c12095fbb86b|38=98000|40=2|44=1.39342|54=2|55=USD/CAD|60=20151222-17:59:34.405|10=159|
8=FIX.4.4|9=180|35=D|34=38|49=FIX_ORDER_GEN4|52=20151222-17:59:34.407|56=NEXBOOK|1=00077|11=4294a986-0d13-4f29-8e57-53cd7a4d1c26|38=100000|40=2|44=0.98596|54=1|55=USD/CHF|60=20151222-17:59:34.406|10=152|
8=FIX.4.4|9=181|35=D|34=38|49=FIX_ORDER_GEN3|52=20151222-17:59:34.408|56=NEXBOOK|1=00217|11=df89c26b-5518-4c39-8a00-d2de86b0f94e|38=97000|40=2|44=120.97429|54=1|55=USD/JPY|60=20151222-17:59:34.407|10=134|
8=FIX.4.4|9=168|35=D|34=38|49=FIX_ORDER_GEN1|52=20151222-17:59:34.409|56=NEXBOOK|1=00306|11=84bdf4dc-2fde-42db-9fe0-d8b6c410530a|38=40000|40=1|54=2|55=EUR/GBP|60=20151222-17:59:34.404|10=149|
8=FIX.4.4|9=168|35=D|34=39|49=FIX_ORDER_GEN1|52=20151222-17:59:34.409|56=NEXBOOK|1=00070|11=212fa733-200a-4e66-9883-dd32aa40f559|38=72000|40=1|54=1|55=AUD/USD|60=20151222-17:59:34.408|10=077|
8=FIX.4.4|9=179|35=D|34=39|49=FIX_ORDER_GEN2|52=20151222-17:59:34.410|56=NEXBOOK|1=00419|11=dd4fe1ec-7ac9-4dc3-86e4-873e583f99ec|38=90000|40=2|44=0.72374|54=2|55=AUD/USD|60=20151222-17:59:34.409|10=164|
8=FIX.4.4|9=179|35=D|34=39|49=FIX_ORDER_GEN4|52=20151222-17:59:34.411|56=NEXBOOK|1=00140|11=56ca667f-7eaa-45fc-a07f-f3353a14a464|38=23000|40=2|44=0.98696|54=2|55=USD/CHF|60=20151222-17:59:34.410|10=023|
8=FIX.4.4|9=178|35=D|34=39|49=FIX_ORDER_GEN3|52=20151222-17:59:34.413|56=NEXBOOK|1=00463|11=0e7ca275-1607-4049-a2e5-fdcf3b34c3a3|38=72000|40=2|44=1.3931|54=1|55=USD/CAD|60=20151222-17:59:34.411|10=153|
8=FIX.4.4|9=179|35=D|34=40|49=FIX_ORDER_GEN1|52=20151222-17:59:34.414|56=NEXBOOK|1=00422|11=44b2a15d-69d0-4507-a325-44c4846d639f|38=51000|40=2|44=1.48207|54=2|55=GBP/USD|60=20151222-17:59:34.412|10=032|
8=FIX.4.4|9=179|35=D|34=40|49=FIX_ORDER_GEN2|52=20151222-17:59:34.415|56=NEXBOOK|1=00025|11=95f4189e-2175-4d47-a80b-01697188ceb5|38=31000|40=2|44=0.72404|54=2|55=AUD/USD|60=20151222-17:59:34.414|10=046|
8=FIX.4.4|9=178|35=D|34=40|49=FIX_ORDER_GEN4|52=20151222-17:59:34.416|56=NEXBOOK|1=00368|11=65cc6a0f-bb0b-4907-a6a9-b24357596b54|38=4000|40=2|44=1.39301|54=1|55=USD/CAD|60=20151222-17:59:34.415|10=116|
8=FIX.4.4|9=179|35=D|34=40|49=FIX_ORDER_GEN3|52=20151222-17:59:34.417|56=NEXBOOK|1=00436|11=adc60d6e-30a5-445e-8f78-9c919c713a19|38=91000|40=2|44=1.09763|54=2|55=EUR/USD|60=20151222-17:59:34.416|10=228|
8=FIX.4.4|9=181|35=D|34=41|49=FIX_ORDER_GEN1|52=20151222-17:59:34.418|56=NEXBOOK|1=00207|11=c267811b-059c-4a8b-a3a0-cbedacd21a5d|38=69000|40=2|44=120.95026|54=1|55=USD/JPY|60=20151222-17:59:34.417|10=013|
8=FIX.4.4|9=178|35=D|34=41|49=FIX_ORDER_GEN2|52=20151222-17:59:34.420|56=NEXBOOK|1=00481|11=d32ba4e4-a431-4ea7-b527-6cb45617f852|38=11000|40=2|44=132.66|54=1|55=EUR/JPY|60=20151222-17:59:34.418|10=146|
8=FIX.4.4|9=179|35=D|34=41|49=FIX_ORDER_GEN4|52=20151222-17:59:34.421|56=NEXBOOK|1=00412|11=f854ecb3-274e-4240-a803-3efb86881813|38=48000|40=2|44=1.48124|54=1|55=GBP/USD|60=20151222-17:59:34.419|10=096|
8=FIX.4.4|9=167|35=D|34=41|49=FIX_ORDER_GEN3|52=20151222-17:59:34.421|56=NEXBOOK|1=00043|11=4aee1cc4-a69f-4884-bfa8-eb2700b74130|38=2000|40=1|54=1|55=AUD/USD|60=20151222-17:59:34.421|10=198|
8=FIX.4.4|9=181|35=D|34=42|49=FIX_ORDER_GEN1|52=20151222-17:59:34.423|56=NEXBOOK|1=00113|11=48b1c25d-9cb3-4ea5-9965-22b1b00c6fd4|38=96000|40=2|44=120.99832|54=1|55=USD/JPY|60=20151222-17:59:34.421|10=094|
8=FIX.4.4|9=179|35=D|34=42|49=FIX_ORDER_GEN2|52=20151222-17:59:34.424|56=NEXBOOK|1=00131|11=4739e969-cc4a-40da-8cab-cb3a9cadab9a|38=95000|40=2|44=1.48187|54=1|55=GBP/USD|60=20151222-17:59:34.422|10=011|
8=FIX.4.4|9=179|35=D|34=42|49=FIX_ORDER_GEN4|52=20151222-17:59:34.425|56=NEXBOOK|1=00283|11=97cf4fee-852b-4d24-8491-f3fd0ff14b19|38=71000|40=2|44=1.48157|54=1|55=GBP/USD|60=20151222-17:59:34.424|10=052|
8=FIX.4.4|9=179|35=D|34=42|49=FIX_ORDER_GEN3|52=20151222-17:59:34.426|56=NEXBOOK|1=00199|11=be219345-77b0-4f3a-9a42-b477a3b73c04|38=46000|40=2|44=0.72386|54=2|55=AUD/USD|60=20151222-17:59:34.425|10=149|
8=FIX.4.4|9=168|35=D|34=43|49=FIX_ORDER_GEN1|52=20151222-17:59:34.427|56=NEXBOOK|1=00384|11=5377f84c-8931-4f24-9ae1-cbe5cdc9cec4|38=61000|40=1|54=1|55=EUR/JPY|60=20151222-17:59:34.426|10=111|
8=FIX.4.4|9=179|35=D|34=43|49=FIX_ORDER_GEN2|52=20151222-17:59:34.429|56=NEXBOOK|1=00346|11=acd0b6b4-08b3-4bf6-a79c-d2b8ee4cb8f5|38=84000|40=2|44=1.09745|54=2|55=EUR/USD|60=20151222-17:59:34.428|10=000|
8=FIX.4.4|9=179|35=D|34=43|49=FIX_ORDER_GEN4|52=20151222-17:59:34.430|56=NEXBOOK|1=00035|11=12f31b65-8f3b-44e7-8b32-7e4bbdef55fc|38=66000|40=2|44=1.39277|54=1|55=USD/CAD|60=20151222-17:59:34.429|10=075|
8=FIX.4.4|9=179|35=D|34=43|49=FIX_ORDER_GEN3|52=20151222-17:59:34.433|56=NEXBOOK|1=00003|11=2f877dd8-228f-44cc-b88c-727d5d42c94d|38=96000|40=2|44=1.09661|54=1|55=EUR/USD|60=20151222-17:59:34.430|10=021|
8=FIX.4.4|9=168|35=D|34=44|49=FIX_ORDER_GEN1|52=20151222-17:59:34.434|56=NEXBOOK|1=00448|11=b5f18e02-3430-49c4-91d3-755e6b858344|38=72000|40=1|54=1|55=EUR/JPY|60=20151222-17:59:34.433|10=024|
8=FIX.4.4|9=179|35=D|34=44|49=FIX_ORDER_GEN2|52=20151222-17:59:34.436|56=NEXBOOK|1=00035|11=13571e9a-0c4d-463a-a09b-ce7149c60a4d|38=26000|40=2|44=1.39402|54=2|55=USD/CAD|60=20151222-17:59:34.435|10=206|
8=FIX.4.4|9=179|35=D|34=44|49=FIX_ORDER_GEN4|52=20151222-17:59:34.437|56=NEXBOOK|1=00210|11=6ef434b2-40e5-4b21-ad7c-f6ee2578869e|38=43000|40=2|44=0.98624|54=1|55=USD/CHF|60=20151222-17:59:34.436|10=248|
8=FIX.4.4|9=168|35=D|34=44|49=FIX_ORDER_GEN3|52=20151222-17:59:34.438|56=NEXBOOK|1=00371|11=c377e24a-d653-4e12-b32b-25c39c7322d2|38=82000|40=1|54=1|55=EUR/GBP|60=20151222-17:59:34.437|10=126|
8=FIX.4.4|9=168|35=D|34=45|49=FIX_ORDER_GEN1|52=20151222-17:59:34.438|56=NEXBOOK|1=00380|11=0b13461e-0cb4-4400-8a79-9a57cceb67ea|38=55000|40=1|54=2|55=EUR/JPY|60=20151222-17:59:34.438|10=251|
8=FIX.4.4|9=179|35=D|34=45|49=FIX_ORDER_GEN2|52=20151222-17:59:34.439|56=NEXBOOK|1=00350|11=87aa198c-e8f1-4fb9-9bce-2304d5ebb3e9|38=16000|40=2|44=0.72257|54=1|55=AUD/USD|60=20151222-17:59:34.438|10=147|
8=FIX.4.4|9=179|35=D|34=45|49=FIX_ORDER_GEN4|52=20151222-17:59:34.440|56=NEXBOOK|1=00279|11=1321cbc1-f0a7-4b9d-946a-62de11d1a997|38=39000|40=2|44=1.39354|54=2|55=USD/CAD|60=20151222-17:59:34.439|10=231|
8=FIX.4.4|9=181|35=D|34=45|49=FIX_ORDER_GEN3|52=20151222-17:59:34.441|56=NEXBOOK|1=00421|11=4b228296-0b95-4706-ba8f-3ec6f1c3c259|38=69000|40=2|44=121.05441|54=2|55=USD/JPY|60=20151222-17:59:34.440|10=003|
8=FIX.4.4|9=178|35=D|34=46|49=FIX_ORDER_GEN1|52=20151222-17:59:34.442|56=NEXBOOK|1=00489|11=4d747230-e82c-4007-ad99-071787c33a7f|38=57000|40=2|44=0.9864|54=1|55=USD/CHF|60=20151222-17:59:34.441|10=013|
8=FIX.4.4|9=181|35=D|34=46|49=FIX_ORDER_GEN2|52=20151222-17:59:34.443|56=NEXBOOK|1=00229|11=003ac46d-9e2b-4ea5-a1e3-388f3a191e11|38=78000|40=2|44=120.96628|54=1|55=USD/JPY|60=20151222-17:59:34.442|10=101|
8=FIX.4.4|9=179|35=D|34=46|49=FIX_ORDER_GEN4|52=20151222-17:59:34.445|56=NEXBOOK|1=00429|11=b35f8d5b-f454-471d-9922-2a73bc0597c0|38=96000|40=2|44=1.48181|54=1|55=GBP/USD|60=20151222-17:59:34.443|10=165|
8=FIX.4.4|9=179|35=D|34=46|49=FIX_ORDER_GEN3|52=20151222-17:59:34.446|56=NEXBOOK|1=00376|11=0cbf5322-d4b1-412d-813b-24be04ab29ec|38=19000|40=2|44=0.74009|54=1|55=EUR/GBP|60=20151222-17:59:34.445|10=012|
8=FIX.4.4|9=179|35=D|34=47|49=FIX_ORDER_GEN1|52=20151222-17:59:34.448|56=NEXBOOK|1=00161|11=c56d5919-ac70-46cf-b0c7-d9b093ba2df3|38=41000|40=2|44=1.09778|54=2|55=EUR/USD|60=20151222-17:59:34.446|10=112|
8=FIX.4.4|9=181|35=D|34=47|49=FIX_ORDER_GEN2|52=20151222-17:59:34.450|56=NEXBOOK|1=00086|11=0615d418-af8b-497d-9d6f-8855b4e304a2|38=73000|40=2|44=121.06509|54=2|55=USD/JPY|60=20151222-17:59:34.448|10=028|
8=FIX.4.4|9=179|35=D|34=47|49=FIX_ORDER_GEN4|52=20151222-17:59:34.451|56=NEXBOOK|1=00497|11=4f90d9ef-910f-429a-ac48-ed3a310c4cb6|38=67000|40=2|44=1.39307|54=1|55=USD/CAD|60=20151222-17:59:34.450|10=075|
8=FIX.4.4|9=179|35=D|34=47|49=FIX_ORDER_GEN3|52=20151222-17:59:34.452|56=NEXBOOK|1=00317|11=6d73e761-72fa-403a-a18f-0eabed120773|38=97000|40=2|44=1.39342|54=2|55=USD/CAD|60=20151222-17:59:34.451|10=220|
8=FIX.4.4|9=168|35=D|34=48|49=FIX_ORDER_GEN1|52=20151222-17:59:34.453|56=NEXBOOK|1=00029|11=6a8fcb6b-c442-4d38-8413-b63db60cec14|38=76000|40=1|54=2|55=GBP/USD|60=20151222-17:59:34.452|10=019|
8=FIX.4.4|9=178|35=D|34=48|49=FIX_ORDER_GEN2|52=20151222-17:59:34.454|56=NEXBOOK|1=00261|11=e87bc422-c443-4383-881a-cf5c80aa72fe|38=6000|40=2|44=1.39331|54=1|55=USD/CAD|60=20151222-17:59:34.453|10=174|
8=FIX.4.4|9=168|35=D|34=48|49=FIX_ORDER_GEN4|52=20151222-17:59:34.454|56=NEXBOOK|1=00322|11=963134d0-74dd-48d2-8193-d19e640a1eaf|38=87000|40=1|54=2|55=USD/CAD|60=20151222-17:59:34.454|10=128|
8=FIX.4.4|9=179|35=D|34=48|49=FIX_ORDER_GEN3|52=20151222-17:59:34.456|56=NEXBOOK|1=00382|11=aad7be0a-1264-4569-875c-02471580aeae|38=18000|40=2|44=1.09778|54=2|55=EUR/USD|60=20151222-17:59:34.454|10=225|
8=FIX.4.4|9=179|35=D|34=49|49=FIX_ORDER_GEN1|52=20151222-17:59:34.457|56=NEXBOOK|1=00463|11=8f1556f4-6d7c-4def-9885-59192b728b97|38=44000|40=2|44=0.98676|54=2|55=USD/CHF|60=20151222-17:59:34.455|10=159|
8=FIX.4.4|9=179|35=D|34=49|49=FIX_ORDER_GEN2|52=20151222-17:59:34.458|56=NEXBOOK|1=00223|11=983999c2-6772-466c-9fd3-e23568181608|38=47000|40=2|44=132.758|54=2|55=EUR/JPY|60=20151222-17:59:34.457|10=243|
8=FIX.4.4|9=179|35=D|34=49|49=FIX_ORDER_GEN4|52=20151222-17:59:34.459|56=NEXBOOK|1=00307|11=adf0139d-c34c-44f3-9195-65a8fa3b163f|38=34000|40=2|44=0.98632|54=2|55=USD/CHF|60=20151222-17:59:34.458|10=000|
8=FIX.4.4|9=179|35=D|34=49|49=FIX_ORDER_GEN3|52=20151222-17:59:34.460|56=NEXBOOK|1=00099|11=6507fc9b-e3c6-4559-8a1e-b4ab0f67558b|38=59000|40=2|44=1.48112|54=1|55=GBP/USD|60=20151222-17:59:34.459|10=014|
8=FIX.4.4|9=167|35=D|34=50|49=FIX_ORDER_GEN2|52=20151222-17:59:34.461|56=NEXBOOK|1=00257|11=356f8e4a-766c-482c-b95d-cd46072940b2|38=9000|40=1|54=1|55=GBP/USD|60=20151222-17:59:34.460|10=091|
8=FIX.4.4|9=178|35=D|34=50|49=FIX_ORDER_GEN4|52=20151222-17:59:34.462|56=NEXBOOK|1=00307|11=667135a5-a8c7-469e-96e7-c6b63efcbfe6|38=2000|40=2|44=1.09724|54=2|55=EUR/USD|60=20151222-17:59:34.461|10=023|
8=FIX.4.4|9=179|35=D|34=50|49=FIX_ORDER_GEN3|52=20151222-17:59:34.463|56=NEXBOOK|1=00180|11=a9cf8ca3-00c7-4612-933a-9d46d0264ba8|38=13000|40=2|44=1.48183|54=2|55=GBP/USD|60=20151222-17:59:34.462|10=183|
8=FIX.4.4|9=168|35=D|34=50|49=FIX_ORDER_GEN1|52=20151222-17:59:34.460|56=NEXBOOK|1=00296|11=2c546304-ab4b-4d61-a259-0a220279ef98|38=72000|40=1|54=2|55=EUR/USD|60=20151222-17:59:34.460|10=092|
8=FIX.4.4|9=179|35=D|34=51|49=FIX_ORDER_GEN2|52=20151222-17:59:34.465|56=NEXBOOK|1=00253|11=08399e73-6a6d-45ca-8a3a-403b5941a3c4|38=42000|40=2|44=1.48118|54=1|55=GBP/USD|60=20151222-17:59:34.464|10=142|
8=FIX.4.4|9=179|35=D|34=51|49=FIX_ORDER_GEN4|52=20151222-17:59:34.466|56=NEXBOOK|1=00329|11=90465569-d447-49f7-9cb2-5645f96777d5|38=64000|40=2|44=1.48166|54=1|55=GBP/USD|60=20151222-17:59:34.465|10=015|
8=FIX.4.4|9=179|35=D|34=51|49=FIX_ORDER_GEN3|52=20151222-17:59:34.467|56=NEXBOOK|1=00027|11=07b39f02-d977-4bdf-b65b-2c087293caa2|38=21000|40=2|44=1.48267|54=2|55=GBP/USD|60=20151222-17:59:34.466|10=247|
8=FIX.4.4|9=179|35=D|34=51|49=FIX_ORDER_GEN1|52=20151222-17:59:34.467|56=NEXBOOK|1=00254|11=e4786c5d-6a9d-4316-bb1e-a9f9c69b589f|38=23000|40=2|44=1.39375|54=2|55=USD/CAD|60=20151222-17:59:34.463|10=052|
8=FIX.4.4|9=167|35=D|34=52|49=FIX_ORDER_GEN1|52=20151222-17:59:34.469|56=NEXBOOK|1=00007|11=6201b422-2f9b-498b-9e9f-ccbf80bff860|38=9000|40=1|54=1|55=USD/CAD|60=20151222-17:59:34.467|10=227|
8=FIX.4.4|9=177|35=D|34=52|49=FIX_ORDER_GEN2|52=20151222-17:59:34.469|56=NEXBOOK|1=00445|11=ee4d4074-3983-4ba9-a6c1-f840c295951a|38=90000|40=2|44=0.987|54=2|55=USD/CHF|60=20151222-17:59:34.468|10=063|
8=FIX.4.4|9=177|35=D|34=52|49=FIX_ORDER_GEN4|52=20151222-17:59:34.470|56=NEXBOOK|1=00413|11=dcb873dd-933f-4c7f-92db-756360352ec0|38=72000|40=2|44=1.097|54=1|55=EUR/USD|60=20151222-17:59:34.469|10=170|
8=FIX.4.4|9=179|35=D|34=52|49=FIX_ORDER_GEN3|52=20151222-17:59:34.472|56=NEXBOOK|1=00160|11=5c2ca604-c0ca-4bd6-a705-da18302e3a35|38=80000|40=2|44=0.74079|54=2|55=EUR/GBP|60=20151222-17:59:34.470|10=001|
8=FIX.4.4|9=178|35=D|34=53|49=FIX_ORDER_GEN1|52=20151222-17:59:34.473|56=NEXBOOK|1=00231|11=03f7f0d3-03b7-44d5-90bf-e419a6c652de|38=2000|40=2|44=0.73949|54=1|55=EUR/GBP|60=20151222-17:59:34.471|10=188|
8=FIX.4.4|9=179|35=D|34=53|49=FIX_ORDER_GEN2|52=20151222-17:59:34.474|56=NEXBOOK|1=00085|11=99535727-967f-44bf-b5a5-3e847867cf41|38=72000|40=2|44=1.39304|54=1|55=USD/CAD|60=20151222-17:59:34.472|10=073|
8=FIX.4.4|9=177|35=D|34=53|49=FIX_ORDER_GEN4|52=20151222-17:59:34.475|56=NEXBOOK|1=00167|11=3c7ffe3e-bf72-4a85-88ad-cd861f72efff|38=2000|40=2|44=0.7229|54=1|55=AUD/USD|60=20151222-17:59:34.474|10=156|
8=FIX.4.4|9=181|35=D|34=53|49=FIX_ORDER_GEN3|52=20151222-17:59:34.476|56=NEXBOOK|1=00046|11=78bf5107-7459-4556-a74b-ebf42cb22384|38=39000|40=2|44=121.01703|54=2|55=USD/JPY|60=20151222-17:59:34.475|10=227|
8=FIX.4.4|9=179|35=D|34=54|49=FIX_ORDER_GEN1|52=20151222-17:59:34.477|56=NEXBOOK|1=00277|11=92f89424-c3e2-4243-b15c-8c54d43ec7de|38=62000|40=2|44=0.72359|54=2|55=AUD/USD|60=20151222-17:59:34.476|10=221|
8=FIX.4.4|9=179|35=D|34=54|49=FIX_ORDER_GEN2|52=20151222-17:59:34.478|56=NEXBOOK|1=00051|11=c6e45393-cc32-4dba-bb43-352de98de9a3|38=71000|40=2|44=1.09763|54=2|55=EUR/USD|60=20151222-17:59:34.477|10=113|
8=FIX.4.4|9=168|35=D|34=54|49=FIX_ORDER_GEN4|52=20151222-17:59:34.479|56=NEXBOOK|1=00492|11=3c60203a-3f69-4be2-b7cb-df9b8e2c0b4a|38=51000|40=1|54=2|55=AUD/USD|60=20151222-17:59:34.478|10=123|
8=FIX.4.4|9=181|35=D|34=54|49=FIX_ORDER_GEN3|52=20151222-17:59:34.480|56=NEXBOOK|1=00016|11=7cf6c4d2-b88d-4694-95d7-f6b8a6f3b768|38=47000|40=2|44=120.97696|54=1|55=USD/JPY|60=20151222-17:59:34.479|10=163|
8=FIX.4.4|9=179|35=D|34=55|49=FIX_ORDER_GEN1|52=20151222-17:59:34.481|56=NEXBOOK|1=00271|11=e3b4bee7-589b-41be-9f49-818e35925c34|38=91000|40=2|44=1.48189|54=2|55=GBP/USD|60=20151222-17:59:34.480|10=229|
8=FIX.4.4|9=168|35=D|34=55|49=FIX_ORDER_GEN4|52=20151222-17:59:34.483|56=NEXBOOK|1=00461|11=693c9baa-7c90-414b-861b-4bb43912b5da|38=53000|40=1|54=1|55=USD/JPY|60=20151222-17:59:34.482|10=253|
8=FIX.4.4|9=179|35=D|34=55|49=FIX_ORDER_GEN3|52=20151222-17:59:34.485|56=NEXBOOK|1=00406|11=822fb697-77e7-43f5-b7b1-085256c2b294|38=15000|40=2|44=1.09781|54=2|55=EUR/USD|60=20151222-17:59:34.483|10=097|
8=FIX.4.4|9=179|35=D|34=56|49=FIX_ORDER_GEN1|52=20151222-17:59:34.486|56=NEXBOOK|1=00489|11=2ea59c13-f42c-47b0-a102-bdb31e63226c|38=39000|40=2|44=1.48178|54=1|55=GBP/USD|60=20151222-17:59:34.484|10=244|
8=FIX.4.4|9=168|35=D|34=56|49=FIX_ORDER_GEN4|52=20151222-17:59:34.487|56=NEXBOOK|1=00034|11=23bb2bec-feb6-40ca-b9f6-b1df771aa951|38=77000|40=1|54=2|55=USD/CAD|60=20151222-17:59:34.486|10=202|
8=FIX.4.4|9=168|35=D|34=56|49=FIX_ORDER_GEN3|52=20151222-17:59:34.488|56=NEXBOOK|1=00281|11=68e7dd4d-8201-44d4-a9e3-19ec829eb877|38=98000|40=1|54=1|55=EUR/JPY|60=20151222-17:59:34.487|10=001|
8=FIX.4.4|9=168|35=D|34=57|49=FIX_ORDER_GEN1|52=20151222-17:59:34.489|56=NEXBOOK|1=00052|11=fd8b7acf-42d2-4885-a076-8a28b469b375|38=88000|40=1|54=1|55=USD/CAD|60=20151222-17:59:34.488|10=202|
8=FIX.4.4|9=180|35=D|34=55|49=FIX_ORDER_GEN2|52=20151222-17:59:34.484|56=NEXBOOK|1=00094|11=52d5c44f-6941-440f-bae3-c145e0ae1ecb|38=55000|40=2|44=132.6915|54=1|55=EUR/JPY|60=20151222-17:59:34.481|10=146|
8=FIX.4.4|9=168|35=D|34=56|49=FIX_ORDER_GEN2|52=20151222-17:59:34.490|56=NEXBOOK|1=00311|11=d2861f64-5eca-4639-8e3f-7732765a5d26|38=12000|40=1|54=2|55=USD/CAD|60=20151222-17:59:34.486|10=087|
8=FIX.4.4|9=179|35=D|34=57|49=FIX_ORDER_GEN2|52=20151222-17:59:34.492|56=NEXBOOK|1=00258|11=e5f2cc41-ea44-4e8d-b592-b63611457f58|38=96000|40=2|44=0.74073|54=2|55=EUR/GBP|60=20151222-17:59:34.490|10=218|
8=FIX.4.4|9=168|35=D|34=57|49=FIX_ORDER_GEN4|52=20151222-17:59:34.492|56=NEXBOOK|1=00023|11=4786f463-cf13-43e0-943c-64ce25c5d272|38=84000|40=1|54=2|55=EUR/GBP|60=20151222-17:59:34.492|10=101|
8=FIX.4.4|9=180|35=D|34=57|49=FIX_ORDER_GEN3|52=20151222-17:59:34.494|56=NEXBOOK|1=00482|11=63939463-5153-462f-a258-94a7b6c7ea66|38=35000|40=2|44=132.7475|54=1|55=EUR/JPY|60=20151222-17:59:34.493|10=109|
8=FIX.4.4|9=179|35=D|34=58|49=FIX_ORDER_GEN1|52=20151222-17:59:34.497|56=NEXBOOK|1=00032|11=9abed51e-f76e-4cfa-8672-d9765f5895e8|38=85000|40=2|44=1.48219|54=2|55=GBP/USD|60=20151222-17:59:34.495|10=094|
8=FIX.4.4|9=179|35=D|34=58|49=FIX_ORDER_GEN2|52=20151222-17:59:34.499|56=NEXBOOK|1=00257|11=4e530138-409a-4206-95c7-a5a7550baad3|38=23000|40=2|44=0.74003|54=1|55=EUR/GBP|60=20151222-17:59:34.498|10=097|
8=FIX.4.4|9=179|35=D|34=58|49=FIX_ORDER_GEN4|52=20151222-17:59:34.501|56=NEXBOOK|1=00372|11=c49218f4-af9e-42ed-b4af-82ab854b3098|38=38000|40=2|44=1.48187|54=1|55=GBP/USD|60=20151222-17:59:34.500|10=046|
8=FIX.4.4|9=179|35=D|34=58|49=FIX_ORDER_GEN3|52=20151222-17:59:34.503|56=NEXBOOK|1=00161|11=7a73db81-6c5d-4df9-8dc1-26664970483e|38=21000|40=2|44=1.48136|54=1|55=GBP/USD|60=20151222-17:59:34.502|10=155|
8=FIX.4.4|9=181|35=D|34=59|49=FIX_ORDER_GEN1|52=20151222-17:59:34.505|56=NEXBOOK|1=00409|11=86186b06-41b4-4690-9555-204592282cff|38=23000|40=2|44=121.04373|54=2|55=USD/JPY|60=20151222-17:59:34.504|10=029|
8=FIX.4.4|9=179|35=D|34=59|49=FIX_ORDER_GEN2|52=20151222-17:59:34.507|56=NEXBOOK|1=00423|11=d0d1acb7-99e4-41a3-b6f4-411b63104010|38=94000|40=2|44=0.74094|54=2|55=EUR/GBP|60=20151222-17:59:34.506|10=125|
8=FIX.4.4|9=167|35=D|34=59|49=FIX_ORDER_GEN4|52=20151222-17:59:34.511|56=NEXBOOK|1=00430|11=1916361f-fbc4-4a72-a9f0-8df2f806dfb6|38=2000|40=1|54=2|55=USD/CHF|60=20151222-17:59:34.509|10=221|
8=FIX.4.4|9=167|35=D|34=59|49=FIX_ORDER_GEN3|52=20151222-17:59:34.513|56=NEXBOOK|1=00133|11=d030d71c-427e-4c24-accd-1b8f17b65bf3|38=8000|40=1|54=2|55=EUR/GBP|60=20151222-17:59:34.512|10=255|
8=FIX.4.4|9=180|35=D|34=60|49=FIX_ORDER_GEN1|52=20151222-17:59:34.515|56=NEXBOOK|1=00443|11=d4321619-79a4-45a5-9166-e47a2506eec5|38=100000|40=2|44=0.73979|54=1|55=EUR/GBP|60=20151222-17:59:34.514|10=095|
8=FIX.4.4|9=179|35=D|34=60|49=FIX_ORDER_GEN2|52=20151222-17:59:34.517|56=NEXBOOK|1=00414|11=44af422f-78b0-45ef-9f7d-4483f7a27822|38=86000|40=2|44=1.09652|54=1|55=EUR/USD|60=20151222-17:59:34.516|10=184|
8=FIX.4.4|9=179|35=D|34=60|49=FIX_ORDER_GEN4|52=20151222-17:59:34.518|56=NEXBOOK|1=00046|11=042b0a00-66ff-48ec-ab3f-7aa3e999d2cf|38=65000|40=2|44=0.72299|54=1|55=AUD/USD|60=20151222-17:59:34.517|10=136|
8=FIX.4.4|9=179|35=D|34=60|49=FIX_ORDER_GEN3|52=20151222-17:59:34.519|56=NEXBOOK|1=00275|11=bf9de538-6e40-4611-aa88-84393866d697|38=5000|40=2|44=132.8315|54=2|55=EUR/JPY|60=20151222-17:59:34.518|10=111|
8=FIX.4.4|9=178|35=D|34=61|49=FIX_ORDER_GEN1|52=20151222-17:59:34.520|56=NEXBOOK|1=00107|11=74f3c101-23cc-4d97-b978-f425e5da57a4|38=79000|40=2|44=0.9858|54=1|55=USD/CHF|60=20151222-17:59:34.519|10=150|
8=FIX.4.4|9=178|35=D|34=61|49=FIX_ORDER_GEN2|52=20151222-17:59:34.521|56=NEXBOOK|1=00217|11=672f963f-0ac4-4674-ad32-d13dbe3f818f|38=16000|40=2|44=0.7229|54=1|55=AUD/USD|60=20151222-17:59:34.520|10=184|
8=FIX.4.4|9=179|35=D|34=61|49=FIX_ORDER_GEN4|52=20151222-17:59:34.522|56=NEXBOOK|1=00042|11=013ab546-92ee-4ef4-b471-82edc4d4aacb|38=18000|40=2|44=0.98704|54=2|55=USD/CHF|60=20151222-17:59:34.521|10=105|
8=FIX.4.4|9=178|35=D|34=61|49=FIX_ORDER_GEN3|52=20151222-17:59:34.523|56=NEXBOOK|1=00103|11=fe92801b-6370-4ad9-b2ad-b7e6df32a60c|38=36000|40=2|44=1.3928|54=1|55=USD/CAD|60=20151222-17:59:34.522|10=252|
8=FIX.4.4|9=179|35=D|34=62|49=FIX_ORDER_GEN1|52=20151222-17:59:34.523|56=NEXBOOK|1=00385|11=45e7cc66-be2c-4880-9852-567123f3617a|38=29000|40=2|44=0.98676|54=2|55=USD/CHF|60=20151222-17:59:34.523|10=072|
8=FIX.4.4|9=179|35=D|34=62|49=FIX_ORDER_GEN2|52=20151222-17:59:34.524|56=NEXBOOK|1=00268|11=38f090a3-a7ae-46bc-b5ca-49768b0de293|38=11000|40=2|44=1.09727|54=2|55=EUR/USD|60=20151222-17:59:34.523|10=052|
8=FIX.4.4|9=179|35=D|34=62|49=FIX_ORDER_GEN4|52=20151222-17:59:34.525|56=NEXBOOK|1=00239|11=190db869-3809-4352-9cf3-7bf97afc9d7f|38=64000|40=2|44=0.72293|54=1|55=AUD/USD|60=20151222-17:59:34.524|10=232|
8=FIX.4.4|9=179|35=D|34=62|49=FIX_ORDER_GEN3|52=20151222-17:59:34.526|56=NEXBOOK|1=00366|11=14124631-5236-4889-b4d2-013aab858030|38=37000|40=2|44=0.73967|54=1|55=EUR/GBP|60=20151222-17:59:34.525|10=160|
8=FIX.4.4|9=168|35=D|34=63|49=FIX_ORDER_GEN1|52=20151222-17:59:34.527|56=NEXBOOK|1=00280|11=549dba2a-b826-453c-a45f-02581c16f44f|38=67000|40=1|54=2|55=USD/CAD|60=20151222-17:59:34.526|10=164|
8=FIX.4.4|9=168|35=D|34=63|49=FIX_ORDER_GEN2|52=20151222-17:59:34.527|56=NEXBOOK|1=00153|11=ede6423c-4a63-4199-9344-74fbc3c897ff|38=58000|40=1|54=2|55=USD/CAD|60=20151222-17:59:34.527|10=195|
8=FIX.4.4|9=179|35=D|34=63|49=FIX_ORDER_GEN4|52=20151222-17:59:34.528|56=NEXBOOK|1=00430|11=503e2f8b-4766-43e2-b496-ebc2b9324b0a|38=46000|40=2|44=0.98728|54=2|55=USD/CHF|60=20151222-17:59:34.527|10=198|
8=FIX.4.4|9=167|35=D|34=63|49=FIX_ORDER_GEN3|52=20151222-17:59:34.529|56=NEXBOOK|1=00007|11=cf8fd7d8-f240-4b71-b98f-b1a771b1913a|38=9000|40=1|54=1|55=USD/CAD|60=20151222-17:59:34.528|10=219|
8=FIX.4.4|9=181|35=D|34=64|49=FIX_ORDER_GEN1|52=20151222-17:59:34.530|56=NEXBOOK|1=00122|11=ffa23864-5332-4515-b071-8e573363403a|38=85000|40=2|44=121.04373|54=2|55=USD/JPY|60=20151222-17:59:34.529|10=060|
8=FIX.4.4|9=179|35=D|34=64|49=FIX_ORDER_GEN2|52=20151222-17:59:34.530|56=NEXBOOK|1=00386|11=f9180c0f-3d76-4798-ad92-9d0654af43b0|38=17000|40=2|44=0.73991|54=1|55=EUR/GBP|60=20151222-17:59:34.530|10=163|
8=FIX.4.4|9=179|35=D|34=64|49=FIX_ORDER_GEN4|52=20151222-17:59:34.531|56=NEXBOOK|1=00345|11=79ca50d0-4088-4148-b673-ed5a4e509073|38=22000|40=2|44=1.48199|54=1|55=GBP/USD|60=20151222-17:59:34.530|10=055|
8=FIX.4.4|9=179|35=D|34=64|49=FIX_ORDER_GEN3|52=20151222-17:59:34.532|56=NEXBOOK|1=00020|11=940f0af3-17c0-47e5-b775-9e4a9985291f|38=49000|40=2|44=1.39393|54=2|55=USD/CAD|60=20151222-17:59:34.531|10=101|
8=FIX.4.4|9=179|35=D|34=65|49=FIX_ORDER_GEN1|52=20151222-17:59:34.533|56=NEXBOOK|1=00128|11=9b1f35c7-37fd-4445-ac73-c03460638ac0|38=34000|40=2|44=0.74024|54=1|55=EUR/GBP|60=20151222-17:59:34.532|10=132|
8=FIX.4.4|9=168|35=D|34=65|49=FIX_ORDER_GEN2|52=20151222-17:59:34.534|56=NEXBOOK|1=00412|11=8c611cc7-6ecd-4bbf-bf53-b5cac6e334e5|38=25000|40=1|54=1|55=AUD/USD|60=20151222-17:59:34.533|10=205|
8=FIX.4.4|9=179|35=D|34=65|49=FIX_ORDER_GEN4|52=20151222-17:59:34.534|56=NEXBOOK|1=00139|11=7fdffe8f-0bdc-41d2-a6bc-9f23414bb8ff|38=34000|40=2|44=1.39295|54=1|55=USD/CAD|60=20151222-17:59:34.534|10=016|
8=FIX.4.4|9=181|35=D|34=65|49=FIX_ORDER_GEN3|52=20151222-17:59:34.535|56=NEXBOOK|1=00073|11=7827b1ca-90ae-4b41-aa84-703c930d16bc|38=24000|40=2|44=121.01169|54=2|55=USD/JPY|60=20151222-17:59:34.534|10=084|
8=FIX.4.4|9=168|35=D|34=66|49=FIX_ORDER_GEN1|52=20151222-17:59:34.536|56=NEXBOOK|1=00490|11=474a2985-699f-431d-9e11-d810ae49b9b1|38=41000|40=1|54=1|55=AUD/USD|60=20151222-17:59:34.535|10=104|
8=FIX.4.4|9=179|35=D|34=66|49=FIX_ORDER_GEN2|52=20151222-17:59:34.537|56=NEXBOOK|1=00051|11=aa69bf30-8fd5-44a4-a163-bcbf2a876689|38=44000|40=2|44=0.72329|54=2|55=AUD/USD|60=20151222-17:59:34.536|10=045|
8=FIX.4.4|9=179|35=D|34=66|49=FIX_ORDER_GEN4|52=20151222-17:59:34.538|56=NEXBOOK|1=00338|11=a0cb0366-8d17-44a3-bd3a-7fdae7ba59f8|38=92000|40=2|44=1.09727|54=2|55=EUR/USD|60=20151222-17:59:34.537|10=166|
8=FIX.4.4|9=179|35=D|34=66|49=FIX_ORDER_GEN3|52=20151222-17:59:34.538|56=NEXBOOK|1=00412|11=21ae4322-a330-4594-8b02-196e614671cd|38=41000|40=2|44=1.48175|54=1|55=GBP/USD|60=20151222-17:59:34.537|10=250|
8=FIX.4.4|9=179|35=D|34=67|49=FIX_ORDER_GEN1|52=20151222-17:59:34.539|56=NEXBOOK|1=00056|11=9df99aaa-651b-456c-8fc4-e40dfb861941|38=14000|40=2|44=0.98588|54=1|55=USD/CHF|60=20151222-17:59:34.538|10=064|
8=FIX.4.4|9=178|35=D|34=67|49=FIX_ORDER_GEN2|52=20151222-17:59:34.540|56=NEXBOOK|1=00170|11=9cd16daf-afbd-4b7a-92b7-3a5b7d1fb33f|38=9000|40=2|44=1.39342|54=2|55=USD/CAD|60=20151222-17:59:34.539|10=207|
8=FIX.4.4|9=179|35=D|34=67|49=FIX_ORDER_GEN4|52=20151222-17:59:34.541|56=NEXBOOK|1=00126|11=ddc6ba27-eefe-4952-baa3-685b2c4346c6|38=57000|40=2|44=1.39334|54=1|55=USD/CAD|60=20151222-17:59:34.540|10=116|
8=FIX.4.4|9=179|35=D|34=67|49=FIX_ORDER_GEN3|52=20151222-17:59:34.541|56=NEXBOOK|1=00140|11=0f6ce34a-0c9b-435d-acc1-f84b124e7281|38=10000|40=2|44=1.39331|54=1|55=USD/CAD|60=20151222-17:59:34.541|10=245|
8=FIX.4.4|9=179|35=D|34=68|49=FIX_ORDER_GEN1|52=20151222-17:59:34.542|56=NEXBOOK|1=00156|11=ec53696a-b3a1-476f-9051-d59f3efddc7a|38=83000|40=2|44=0.98728|54=2|55=USD/CHF|60=20151222-17:59:34.541|10=102|
8=FIX.4.4|9=178|35=D|34=68|49=FIX_ORDER_GEN2|52=20151222-17:59:34.543|56=NEXBOOK|1=00214|11=031b13d3-2a0b-4586-ac72-3fa78e171de2|38=11000|40=2|44=1.4824|54=2|55=GBP/USD|60=20151222-17:59:34.542|10=115|
8=FIX.4.4|9=181|35=D|34=68|49=FIX_ORDER_GEN4|52=20151222-17:59:34.544|56=NEXBOOK|1=00418|11=a4139515-1f2c-40b6-9d2b-f29d747b1ff5|38=18000|40=2|44=120.97429|54=1|55=USD/JPY|60=20151222-17:59:34.543|10=075|
8=FIX.4.4|9=179|35=D|34=68|49=FIX_ORDER_GEN3|52=20151222-17:59:34.544|56=NEXBOOK|1=00079|11=29b71d1d-493a-4d91-810a-6a6d5f3c98b4|38=66000|40=2|44=1.48178|54=1|55=GBP/USD|60=20151222-17:59:34.544|10=220|
8=FIX.4.4|9=179|35=D|34=69|49=FIX_ORDER_GEN1|52=20151222-17:59:34.545|56=NEXBOOK|1=00384|11=4f16f069-4df8-4ffd-b42a-27d02fea0afa|38=55000|40=2|44=132.807|54=2|55=EUR/JPY|60=20151222-17:59:34.544|10=212|
8=FIX.4.4|9=179|35=D|34=69|49=FIX_ORDER_GEN2|52=20151222-17:59:34.546|56=NEXBOOK|1=00308|11=523ddcc6-0218-4211-b84f-48fb3bb5f843|38=65000|40=2|44=0.72356|54=2|55=AUD/USD|60=20151222-17:59:34.545|10=203|
8=FIX.4.4|9=168|35=D|34=69|49=FIX_ORDER_GEN4|52=20151222-17:59:34.546|56=NEXBOOK|1=00129|11=3ed7d510-ef6c-4bb6-a825-0d8574787a87|38=47000|40=1|54=2|55=AUD/USD|60=20151222-17:59:34.546|10=216|
8=FIX.4.4|9=179|35=D|34=69|49=FIX_ORDER_GEN3|52=20151222-17:59:34.547|56=NEXBOOK|1=00124|11=63e80c73-d4d8-40c6-933d-15afdaa5c748|38=93000|40=2|44=0.72299|54=1|55=AUD/USD|60=20151222-17:59:34.546|10=011|
8=FIX.4.4|9=179|35=D|34=70|49=FIX_ORDER_GEN1|52=20151222-17:59:34.548|56=NEXBOOK|1=00077|11=6afc5563-59aa-48b0-850d-86de2b03ce55|38=43000|40=2|44=1.48181|54=1|55=GBP/USD|60=20151222-17:59:34.547|10=251|
8=FIX.4.4|9=179|35=D|34=70|49=FIX_ORDER_GEN2|52=20151222-17:59:34.549|56=NEXBOOK|1=00470|11=94d1761c-e78f-4384-90df-ab7d91324a1e|38=96000|40=2|44=1.39342|54=2|55=USD/CAD|60=20151222-17:59:34.548|10=203|
8=FIX.4.4|9=180|35=D|34=70|49=FIX_ORDER_GEN4|52=20151222-17:59:34.549|56=NEXBOOK|1=00097|11=b571e27d-4f03-4af8-879e-d548d2952fb9|38=96000|40=2|44=132.7545|54=1|55=EUR/JPY|60=20151222-17:59:34.549|10=057|
8=FIX.4.4|9=180|35=D|34=70|49=FIX_ORDER_GEN3|52=20151222-17:59:34.550|56=NEXBOOK|1=00401|11=bdf30164-a835-4ef8-90d5-48e417018c1a|38=9000|40=2|44=121.01436|54=2|55=USD/JPY|60=20151222-17:59:34.549|10=204|
8=FIX.4.4|9=181|35=D|34=71|49=FIX_ORDER_GEN1|52=20151222-17:59:34.551|56=NEXBOOK|1=00488|11=afd7ec63-9288-43be-8094-631b734511fd|38=91000|40=2|44=121.01703|54=2|55=USD/JPY|60=20151222-17:59:34.550|10=015|
8=FIX.4.4|9=179|35=D|34=71|49=FIX_ORDER_GEN2|52=20151222-17:59:34.552|56=NEXBOOK|1=00054|11=af243863-3a41-4f84-a27d-787d108c196f|38=69000|40=2|44=0.72329|54=1|55=AUD/USD|60=20151222-17:59:34.551|10=111|
8=FIX.4.4|9=179|35=D|34=71|49=FIX_ORDER_GEN4|52=20151222-17:59:34.552|56=NEXBOOK|1=00253|11=97a60acb-5474-40ed-bed1-edd1776c3099|38=56000|40=2|44=0.72374|54=2|55=AUD/USD|60=20151222-17:59:34.552|10=042|
8=FIX.4.4|9=180|35=D|34=71|49=FIX_ORDER_GEN3|52=20151222-17:59:34.553|56=NEXBOOK|1=00269|11=491307bf-4090-4843-8aac-3149de51b9c6|38=72000|40=2|44=132.7615|54=2|55=EUR/JPY|60=20151222-17:59:34.552|10=175|
8=FIX.4.4|9=178|35=D|34=72|49=FIX_ORDER_GEN1|52=20151222-17:59:34.554|56=NEXBOOK|1=00063|11=40b56355-e11d-4eea-b406-2131cb0a38c6|38=78000|40=2|44=0.7404|54=2|55=EUR/GBP|60=20151222-17:59:34.553|10=117|
8=FIX.4.4|9=181|35=D|34=72|49=FIX_ORDER_GEN2|52=20151222-17:59:34.554|56=NEXBOOK|1=00066|11=706ce903-6d9a-4181-a880-c1ed1ea92459|38=81000|40=2|44=120.97963|54=1|55=USD/JPY|60=20151222-17:59:34.554|10=029|
8=FIX.4.4|9=179|35=D|34=72|49=FIX_ORDER_GEN3|52=20151222-17:59:34.556|56=NEXBOOK|1=00106|11=75fca0ab-8012-461f-a48a-8b8dbf0149b7|38=32000|40=2|44=1.09649|54=1|55=EUR/USD|60=20151222-17:59:34.555|10=051|
8=FIX.4.4|9=178|35=D|34=72|49=FIX_ORDER_GEN4|52=20151222-17:59:34.556|56=NEXBOOK|1=00029|11=106318bd-1661-4422-9cac-6048d3ebec0d|38=28000|40=2|44=0.9856|54=1|55=USD/CHF|60=20151222-17:59:34.554|10=134|
8=FIX.4.4|9=179|35=D|34=73|49=FIX_ORDER_GEN2|52=20151222-17:59:34.557|56=NEXBOOK|1=00427|11=a00fef3f-673c-431e-b01d-763c48ae0291|38=74000|40=2|44=1.48195|54=2|55=GBP/USD|60=20151222-17:59:34.556|10=249|
8=FIX.4.4|9=178|35=D|34=73|49=FIX_ORDER_GEN1|52=20151222-17:59:34.557|56=NEXBOOK|1=00227|11=a9df6197-0bda-4671-86da-d28395425887|38=37000|40=2|44=0.7404|54=2|55=EUR/GBP|60=20151222-17:59:34.556|10=076|
8=FIX.4.4|9=179|35=D|34=73|49=FIX_ORDER_GEN4|52=20151222-17:59:34.558|56=NEXBOOK|1=00095|11=59356d81-ab58-49da-9959-72e27f0eb29b|38=16000|40=2|44=0.74027|54=1|55=EUR/GBP|60=20151222-17:59:34.557|10=186|
8=FIX.4.4|9=169|35=D|34=73|49=FIX_ORDER_GEN3|52=20151222-17:59:34.558|56=NEXBOOK|1=00113|11=0fdc92fe-9a5f-4705-a6eb-6ebdd0a8dcaf|38=100000|40=1|54=1|55=USD/CHF|60=20151222-17:59:34.558|10=095|
8=FIX.4.4|9=168|35=D|34=74|49=FIX_ORDER_GEN1|52=20151222-17:59:34.559|56=NEXBOOK|1=00485|11=b7cd6392-93df-4f63-a3cb-9ab0ca4db1d3|38=68000|40=1|54=1|55=EUR/USD|60=20151222-17:59:34.558|10=200|
8=FIX.4.4|9=179|35=D|34=74|49=FIX_ORDER_GEN2|52=20151222-17:59:34.560|56=NEXBOOK|1=00075|11=d2e1efa8-b7a9-4bf0-a22d-8d1e0ece6859|38=54000|40=2|44=0.72263|54=1|55=AUD/USD|60=20151222-17:59:34.559|10=188|
8=FIX.4.4|9=181|35=D|34=74|49=FIX_ORDER_GEN4|52=20151222-17:59:34.560|56=NEXBOOK|1=00115|11=d1a0f47b-8a7f-479a-8f13-f4b569d781af|38=44000|40=2|44=121.03839|54=2|55=USD/JPY|60=20151222-17:59:34.560|10=168|
8=FIX.4.4|9=168|35=D|34=74|49=FIX_ORDER_GEN3|52=20151222-17:59:34.561|56=NEXBOOK|1=00368|11=f3a0690b-9180-488d-8307-225f83e1aee1|38=42000|40=1|54=1|55=EUR/JPY|60=20151222-17:59:34.560|10=118|
8=FIX.4.4|9=179|35=D|34=75|49=FIX_ORDER_GEN1|52=20151222-17:59:34.562|56=NEXBOOK|1=00282|11=8f9d3922-4c93-4665-8ce7-7f249bae00cb|38=77000|40=2|44=0.98548|54=1|55=USD/CHF|60=20151222-17:59:34.561|10=225|
8=FIX.4.4|9=180|35=D|34=75|49=FIX_ORDER_GEN2|52=20151222-17:59:34.562|56=NEXBOOK|1=00292|11=7d599719-6984-4c84-a8dc-6865cb9aa879|38=35000|40=2|44=132.7335|54=1|55=EUR/JPY|60=20151222-17:59:34.562|10=221|
8=FIX.4.4|9=181|35=D|34=75|49=FIX_ORDER_GEN4|52=20151222-17:59:34.563|56=NEXBOOK|1=00415|11=36774f4c-b512-4529-abb5-d7bb546bc942|38=86000|40=2|44=121.05441|54=2|55=USD/JPY|60=20151222-17:59:34.562|10=063|
8=FIX.4.4|9=179|35=D|34=75|49=FIX_ORDER_GEN3|52=20151222-17:59:34.564|56=NEXBOOK|1=00437|11=d803587c-39c2-4eb0-a08f-fcfbfa2f21e6|38=63000|40=2|44=1.39393|54=2|55=USD/CAD|60=20151222-17:59:34.563|10=130|
8=FIX.4.4|9=178|35=D|34=76|49=FIX_ORDER_GEN1|52=20151222-17:59:34.564|56=NEXBOOK|1=00241|11=86205e7b-07a5-4212-b701-b1cbc32d6efe|38=1000|40=2|44=0.98632|54=1|55=USD/CHF|60=20151222-17:59:34.564|10=168|
8=FIX.4.4|9=168|35=D|34=76|49=FIX_ORDER_GEN2|52=20151222-17:59:34.565|56=NEXBOOK|1=00022|11=bea8ca83-a3d7-475e-ae1c-66b699fa21b4|38=28000|40=1|54=1|55=AUD/USD|60=20151222-17:59:34.564|10=125|
8=FIX.4.4|9=179|35=D|34=76|49=FIX_ORDER_GEN4|52=20151222-17:59:34.566|56=NEXBOOK|1=00124|11=c3bfba4d-a3bd-4425-a839-7a0dfb8ad79e|38=67000|40=2|44=0.98592|54=1|55=USD/CHF|60=20151222-17:59:34.565|10=240|
8=FIX.4.4|9=181|35=D|34=76|49=FIX_ORDER_GEN3|52=20151222-17:59:34.567|56=NEXBOOK|1=00259|11=06dd80e9-2053-44c0-9f5c-5e89d15f6ff3|38=36000|40=2|44=121.01169|54=2|55=USD/JPY|60=20151222-17:59:34.566|10=089|
8=FIX.4.4|9=168|35=D|34=77|49=FIX_ORDER_GEN1|52=20151222-17:59:34.567|56=NEXBOOK|1=00406|11=c0789491-8f4a-49dc-85ee-8b8e948dcfb2|38=48000|40=1|54=2|55=USD/CHF|60=20151222-17:59:34.567|10=067|
8=FIX.4.4|9=181|35=D|34=77|49=FIX_ORDER_GEN2|52=20151222-17:59:34.568|56=NEXBOOK|1=00361|11=2e8437e0-0932-40d8-85aa-8bb65bc957eb|38=96000|40=2|44=120.99567|54=2|55=USD/JPY|60=20151222-17:59:34.567|10=100|
8=FIX.4.4|9=179|35=D|34=77|49=FIX_ORDER_GEN4|52=20151222-17:59:34.568|56=NEXBOOK|1=00175|11=236f2f13-6bfe-4283-9669-ac69d090ae95|38=45000|40=2|44=1.39408|54=2|55=USD/CAD|60=20151222-17:59:34.568|10=174|
8=FIX.4.4|9=179|35=D|34=77|49=FIX_ORDER_GEN3|52=20151222-17:59:34.569|56=NEXBOOK|1=00393|11=3652a64e-ae61-479c-8016-1478b8e8f6bc|38=33000|40=2|44=1.48222|54=2|55=GBP/USD|60=20151222-17:59:34.568|10=180|
8=FIX.4.4|9=168|35=D|34=78|49=FIX_ORDER_GEN1|52=20151222-17:59:34.570|56=NEXBOOK|1=00440|11=7ecf67a0-aef4-45e2-96ba-6678de9b9f54|38=36000|40=1|54=2|55=USD/CHF|60=20151222-17:59:34.569|10=099|
8=FIX.4.4|9=179|35=D|34=78|49=FIX_ORDER_GEN2|52=20151222-17:59:34.570|56=NEXBOOK|1=00170|11=6193517c-a564-4757-a388-95d8aac488ab|38=60000|40=2|44=0.98708|54=2|55=USD/CHF|60=20151222-17:59:34.570|10=120|
8=FIX.4.4|9=180|35=D|34=78|49=FIX_ORDER_GEN4|52=20151222-17:59:34.571|56=NEXBOOK|1=00104|11=37e1121f-7547-4621-937c-547a1603cd10|38=65000|40=2|44=132.8105|54=2|55=EUR/JPY|60=20151222-17:59:34.570|10=014|
8=FIX.4.4|9=179|35=D|34=78|49=FIX_ORDER_GEN3|52=20151222-17:59:34.572|56=NEXBOOK|1=00090|11=3bf0783d-87c3-4f50-b509-74ea5bdc5895|38=40000|40=2|44=1.48178|54=1|55=GBP/USD|60=20151222-17:59:34.571|10=218|
8=FIX.4.4|9=181|35=D|34=79|49=FIX_ORDER_GEN1|52=20151222-17:59:34.573|56=NEXBOOK|1=00259|11=1d785976-100e-45e6-b2b0-391f9b573b38|38=64000|40=2|44=121.02237|54=2|55=USD/JPY|60=20151222-17:59:34.572|10=187|
8=FIX.4.4|9=179|35=D|34=79|49=FIX_ORDER_GEN2|52=20151222-17:59:34.573|56=NEXBOOK|1=00091|11=adf10502-428d-4636-b302-2a887143c280|38=59000|40=2|44=1.39339|54=2|55=USD/CAD|60=20151222-17:59:34.572|10=245|
8=FIX.4.4|9=181|35=D|34=79|49=FIX_ORDER_GEN4|52=20151222-17:59:34.574|56=NEXBOOK|1=00389|11=0e738f92-61c7-4191-9740-272dd893d6b7|38=53000|40=2|44=121.05174|54=2|55=USD/JPY|60=20151222-17:59:34.573|10=162|
8=FIX.4.4|9=168|35=D|34=79|49=FIX_ORDER_GEN3|52=20151222-17:59:34.574|56=NEXBOOK|1=00025|11=a8e80106-fb87-4a81-be72-c83d25eed37c|38=82000|40=1|54=1|55=EUR/GBP|60=20151222-17:59:34.574|10=039|
8=FIX.4.4|9=179|35=D|34=80|49=FIX_ORDER_GEN1|52=20151222-17:59:34.575|56=NEXBOOK|1=00475|11=5886ed99-46fe-4959-b5f3-b8f7e142fad2|38=34000|40=2|44=0.72287|54=1|55=AUD/USD|60=20151222-17:59:34.574|10=038|
8=FIX.4.4|9=179|35=D|34=80|49=FIX_ORDER_GEN2|52=20151222-17:59:34.575|56=NEXBOOK|1=00262|11=af646d9e-9454-47ec-9623-c272fa997a6e|38=15000|40=2|44=0.72293|54=1|55=AUD/USD|60=20151222-17:59:34.575|10=232|
8=FIX.4.4|9=179|35=D|34=80|49=FIX_ORDER_GEN4|52=20151222-17:59:34.576|56=NEXBOOK|1=00441|11=b24d3193-3a9f-41f2-ade2-a1ea4e5d01d3|38=38000|40=2|44=0.98668|54=2|55=USD/CHF|60=20151222-17:59:34.575|10=079|
8=FIX.4.4|9=179|35=D|34=80|49=FIX_ORDER_GEN3|52=20151222-17:59:34.577|56=NEXBOOK|1=00250|11=4c7aba8f-9efe-4d09-9cfd-a1dd56165c50|38=11000|40=2|44=1.48234|54=2|55=GBP/USD|60=20151222-17:59:34.576|10=189|
8=FIX.4.4|9=168|35=D|34=81|49=FIX_ORDER_GEN1|52=20151222-17:59:34.577|56=NEXBOOK|1=00076|11=1a2c3850-1d5e-44f6-8c32-79c305033d3e|38=49000|40=1|54=2|55=GBP/USD|60=20151222-17:59:34.577|10=095|
8=FIX.4.4|9=179|35=D|34=81|49=FIX_ORDER_GEN2|52=20151222-17:59:34.578|56=NEXBOOK|1=00298|11=13a759df-0d72-4467-ba1e-020db57004c5|38=49000|40=2|44=0.72386|54=2|55=AUD/USD|60=20151222-17:59:34.577|10=161|
8=FIX.4.4|9=168|35=D|34=83|49=FIX_ORDER_GEN1|52=20151222-17:59:34.583|56=NEXBOOK|1=00458|11=d83320b2-5abe-4f05-b8bd-b07576c698d0|38=84000|40=1|54=2|55=EUR/GBP|60=20151222-17:59:34.582|10=243|
8=FIX.4.4|9=180|35=D|34=82|49=FIX_ORDER_GEN3|52=20151222-17:59:34.582|56=NEXBOOK|1=00493|11=6ed2443d-da30-4e2a-a760-5bdefd5907bb|38=64000|40=2|44=132.7545|54=2|55=EUR/JPY|60=20151222-17:59:34.581|10=203|
8=FIX.4.4|9=178|35=D|34=82|49=FIX_ORDER_GEN4|52=20151222-17:59:34.581|56=NEXBOOK|1=00072|11=6c855f99-3aaa-4b54-9694-62cf37fd1e7a|38=49000|40=2|44=0.9874|54=2|55=USD/CHF|60=20151222-17:59:34.580|10=222|
8=FIX.4.4|9=181|35=D|34=83|49=FIX_ORDER_GEN2|52=20151222-17:59:34.587|56=NEXBOOK|1=00385|11=099fb07d-402b-405c-860a-9949bea5d6d1|38=11000|40=2|44=120.99834|54=2|55=USD/JPY|60=20151222-17:59:34.583|10=082|
8=FIX.4.4|9=168|35=D|34=83|49=FIX_ORDER_GEN4|52=20151222-17:59:34.588|56=NEXBOOK|1=00365|11=c81d1788-64ac-411c-b656-9e22cbbadd78|38=53000|40=1|54=1|55=USD/CAD|60=20151222-17:59:34.587|10=029|
8=FIX.4.4|9=168|35=D|34=83|49=FIX_ORDER_GEN3|52=20151222-17:59:34.588|56=NEXBOOK|1=00258|11=3ad4e4df-0c6e-411d-a5dc-a7c970aab6bf|38=25000|40=1|54=2|55=USD/CAD|60=20151222-17:59:34.587|10=251|
8=FIX.4.4|9=178|35=D|34=81|49=FIX_ORDER_GEN4|52=20151222-17:59:34.579|56=NEXBOOK|1=00368|11=077614d3-ef5a-4948-bd37-5f5c40c95f7e|38=53000|40=2|44=1.4813|54=1|55=GBP/USD|60=20151222-17:59:34.578|10=183|
8=FIX.4.4|9=179|35=D|34=84|49=FIX_ORDER_GEN1|52=20151222-17:59:34.588|56=NEXBOOK|1=00340|11=3da51d06-5ff1-410f-a5cc-4037a245fe65|38=76000|40=2|44=1.48142|54=1|55=GBP/USD|60=20151222-17:59:34.588|10=244|
8=FIX.4.4|9=179|35=D|34=84|49=FIX_ORDER_GEN4|52=20151222-17:59:34.589|56=NEXBOOK|1=00348|11=0d56eaf6-fac6-4610-8568-4fc48b265f0d|38=74000|40=2|44=0.72308|54=1|55=AUD/USD|60=20151222-17:59:34.584|10=019|
8=FIX.4.4|9=168|35=D|34=84|49=FIX_ORDER_GEN2|52=20151222-17:59:34.589|56=NEXBOOK|1=00191|11=c067a971-f700-4c0b-9218-6d8cd4f2cb7f|38=58000|40=1|54=2|55=EUR/JPY|60=20151222-17:59:34.588|10=028|
8=FIX.4.4|9=179|35=D|34=82|49=FIX_ORDER_GEN2|52=20151222-17:59:34.580|56=NEXBOOK|1=00328|11=96ba3cec-5bba-46be-b18e-d1aeffc50df8|38=23000|40=2|44=0.74094|54=2|55=EUR/GBP|60=20151222-17:59:34.580|10=113|
8=FIX.4.4|9=179|35=D|34=82|49=FIX_ORDER_GEN1|52=20151222-17:59:34.580|56=NEXBOOK|1=00002|11=3735248f-e816-4c76-96c6-9d2c821d6405|38=92000|40=2|44=0.72356|54=2|55=AUD/USD|60=20151222-17:59:34.579|10=029|
8=FIX.4.4|9=179|35=D|34=85|49=FIX_ORDER_GEN4|52=20151222-17:59:34.590|56=NEXBOOK|1=00220|11=a5f54ba2-27a5-4eea-84f7-bdbf43a9bc4f|38=92000|40=2|44=1.09664|54=1|55=EUR/USD|60=20151222-17:59:34.589|10=004|
8=FIX.4.4|9=179|35=D|34=85|49=FIX_ORDER_GEN1|52=20151222-17:59:34.590|56=NEXBOOK|1=00083|11=c7d4972d-71fe-4f1b-b92e-81b782d93490|38=42000|40=2|44=0.98532|54=1|55=USD/CHF|60=20151222-17:59:34.585|10=217|
8=FIX.4.4|9=179|35=D|34=81|49=FIX_ORDER_GEN3|52=20151222-17:59:34.579|56=NEXBOOK|1=00475|11=d161f37c-375c-4d53-9a6f-fcfabac137ab|38=66000|40=2|44=0.98712|54=2|55=USD/CHF|60=20151222-17:59:34.578|10=196|
8=FIX.4.4|9=179|35=D|34=85|49=FIX_ORDER_GEN2|52=20151222-17:59:34.590|56=NEXBOOK|1=00258|11=ac1ffd17-c117-4f10-9af8-d8f2c3f56df1|38=61000|40=2|44=0.72308|54=1|55=AUD/USD|60=20151222-17:59:34.586|10=145|
8=FIX.4.4|9=168|35=D|34=84|49=FIX_ORDER_GEN3|52=20151222-17:59:34.590|56=NEXBOOK|1=00006|11=b46f5b7a-d67e-4ef1-8fbe-134d65191973|38=74000|40=1|54=1|55=USD/CHF|60=20151222-17:59:34.585|10=246|
8=FIX.4.4|9=179|35=D|34=86|49=FIX_ORDER_GEN1|52=20151222-17:59:34.591|56=NEXBOOK|1=00489|11=1a927705-f7ce-4e86-a5e9-b614b1b54a54|38=57000|40=2|44=0.73961|54=1|55=EUR/GBP|60=20151222-17:59:34.590|10=224|
8=FIX.4.4|9=179|35=D|34=85|49=FIX_ORDER_GEN3|52=20151222-17:59:34.591|56=NEXBOOK|1=00447|11=c5041371-8515-4bd9-9b05-6773be957ca0|38=85000|40=2|44=0.72404|54=2|55=AUD/USD|60=20151222-17:59:34.589|10=077|
8=FIX.4.4|9=179|35=D|34=86|49=FIX_ORDER_GEN2|52=20151222-17:59:34.591|56=NEXBOOK|1=00150|11=c844fcb8-dde3-445f-8baa-5f31ead79e3d|38=81000|40=2|44=1.39396|54=2|55=USD/CAD|60=20151222-17:59:34.591|10=234|
8=FIX.4.4|9=180|35=D|34=86|49=FIX_ORDER_GEN4|52=20151222-17:59:34.592|56=NEXBOOK|1=00173|11=2b8fef17-5bfb-431d-b1ba-2bdaaddfca91|38=8000|40=2|44=120.99567|54=2|55=USD/JPY|60=20151222-17:59:34.591|10=190|
8=FIX.4.4|9=180|35=D|34=86|49=FIX_ORDER_GEN3|52=20151222-17:59:34.593|56=NEXBOOK|1=00278|11=f764c15d-9147-428a-a07b-265e794a4128|38=64000|40=2|44=132.8385|54=2|55=EUR/JPY|60=20151222-17:59:34.592|10=154|
8=FIX.4.4|9=180|35=D|34=87|49=FIX_ORDER_GEN1|52=20151222-17:59:34.593|56=NEXBOOK|1=00022|11=af4e1f32-7cc5-4777-96d0-018e25c34c56|38=96000|40=2|44=132.7825|54=2|55=EUR/JPY|60=20151222-17:59:34.593|10=239|
8=FIX.4.4|9=179|35=D|34=87|49=FIX_ORDER_GEN2|52=20151222-17:59:34.594|56=NEXBOOK|1=00435|11=8da4ec23-0de2-4418-b0e6-e7555a4af7fc|38=12000|40=2|44=0.74103|54=2|55=EUR/GBP|60=20151222-17:59:34.593|10=085|
8=FIX.4.4|9=179|35=D|34=87|49=FIX_ORDER_GEN4|52=20151222-17:59:34.595|56=NEXBOOK|1=00442|11=6974ba40-06c7-402a-99e5-95aca543709c|38=46000|40=2|44=1.48222|54=2|55=GBP/USD|60=20151222-17:59:34.594|10=122|
8=FIX.4.4|9=178|35=D|34=87|49=FIX_ORDER_GEN3|52=20151222-17:59:34.595|56=NEXBOOK|1=00173|11=5b005423-a70f-4dff-a295-a9b029437c06|38=44000|40=2|44=0.9856|54=1|55=USD/CHF|60=20151222-17:59:34.594|10=103|
8=FIX.4.4|9=181|35=D|34=88|49=FIX_ORDER_GEN1|52=20151222-17:59:34.596|56=NEXBOOK|1=00192|11=dc9d47e4-945f-40de-81b7-920206dae32e|38=55000|40=2|44=121.02771|54=2|55=USD/JPY|60=20151222-17:59:34.595|10=129|
8=FIX.4.4|9=179|35=D|34=88|49=FIX_ORDER_GEN2|52=20151222-17:59:34.597|56=NEXBOOK|1=00233|11=b9e73bc9-fdcc-48dd-b5b7-6f65bf913118|38=73000|40=2|44=1.09727|54=2|55=EUR/USD|60=20151222-17:59:34.596|10=193|
8=FIX.4.4|9=179|35=D|34=88|49=FIX_ORDER_GEN4|52=20151222-17:59:34.597|56=NEXBOOK|1=00241|11=831c7857-d11a-496c-bd76-0cca98f0876a|38=36000|40=2|44=0.98636|54=1|55=USD/CHF|60=20151222-17:59:34.597|10=232|
8=FIX.4.4|9=168|35=D|34=88|49=FIX_ORDER_GEN3|52=20151222-17:59:34.598|56=NEXBOOK|1=00295|11=38615ee5-f3a9-40fb-9710-81b9bbed1d80|38=70000|40=1|54=2|55=EUR/USD|60=20151222-17:59:34.597|10=026|
8=FIX.4.4|9=179|35=D|34=89|49=FIX_ORDER_GEN1|52=20151222-17:59:34.599|56=NEXBOOK|1=00071|11=69f9c84a-27b5-46ea-82d7-4c9bfaaa7149|38=63000|40=2|44=1.39283|54=1|55=USD/CAD|60=20151222-17:59:34.598|10=064|
8=FIX.4.4|9=179|35=D|34=89|49=FIX_ORDER_GEN2|52=20151222-17:59:34.599|56=NEXBOOK|1=00323|11=0d7824b5-1f62-4351-b6ff-9bf4d78e4a69|38=54000|40=2|44=1.09682|54=1|55=EUR/USD|60=20151222-17:59:34.599|10=004|
8=FIX.4.4|9=168|35=D|34=89|49=FIX_ORDER_GEN4|52=20151222-17:59:34.600|56=NEXBOOK|1=00210|11=4d5e543c-8815-4932-aeea-5de5b8bfae0a|38=30000|40=1|54=2|55=EUR/GBP|60=20151222-17:59:34.599|10=119|
8=FIX.4.4|9=179|35=D|34=89|49=FIX_ORDER_GEN3|52=20151222-17:59:34.601|56=NEXBOOK|1=00199|11=e4748b43-83c4-437b-8ab3-f7b63fa93ae8|38=24000|40=2|44=1.39348|54=2|55=USD/CAD|60=20151222-17:59:34.600|10=248|
8=FIX.4.4|9=179|35=D|34=90|49=FIX_ORDER_GEN1|52=20151222-17:59:34.602|56=NEXBOOK|1=00478|11=34f0edb2-9581-4ab9-8465-74297a5a854e|38=67000|40=2|44=1.09676|54=1|55=EUR/USD|60=20151222-17:59:34.601|10=143|
8=FIX.4.4|9=168|35=D|34=90|49=FIX_ORDER_GEN2|52=20151222-17:59:34.602|56=NEXBOOK|1=00391|11=59dc8ff1-0059-4522-b707-35fd9f45a385|38=19000|40=1|54=1|55=USD/CHF|60=20151222-17:59:34.602|10=087|
8=FIX.4.4|9=181|35=D|34=90|49=FIX_ORDER_GEN4|52=20151222-17:59:34.603|56=NEXBOOK|1=00305|11=e7bba110-3fa8-4034-99a5-2a45a5bdd69b|38=42000|40=2|44=120.96361|54=1|55=USD/JPY|60=20151222-17:59:34.602|10=132|
8=FIX.4.4|9=168|35=D|34=90|49=FIX_ORDER_GEN3|52=20151222-17:59:34.603|56=NEXBOOK|1=00475|11=12132bcd-cedd-47ed-be66-8a186645a7b5|38=56000|40=1|54=2|55=EUR/GBP|60=20151222-17:59:34.603|10=070|
8=FIX.4.4|9=168|35=D|34=91|49=FIX_ORDER_GEN1|52=20151222-17:59:34.604|56=NEXBOOK|1=00135|11=d6314d34-d81c-4b5c-82f5-76b77ca8b3ce|38=23000|40=1|54=2|55=EUR/GBP|60=20151222-17:59:34.603|10=016|
8=FIX.4.4|9=178|35=D|34=91|49=FIX_ORDER_GEN2|52=20151222-17:59:34.605|56=NEXBOOK|1=00241|11=800a8d9c-a5a9-4c7f-b5a9-2f5a9fa9a093|38=6000|40=2|44=0.74006|54=1|55=EUR/GBP|60=20151222-17:59:34.604|10=028|
8=FIX.4.4|9=168|35=D|34=91|49=FIX_ORDER_GEN4|52=20151222-17:59:34.605|56=NEXBOOK|1=00066|11=621ccb5f-cd64-4e40-8ec1-3e7045713aaf|38=44000|40=1|54=2|55=EUR/JPY|60=20151222-17:59:34.605|10=038|
8=FIX.4.4|9=179|35=D|34=91|49=FIX_ORDER_GEN3|52=20151222-17:59:34.606|56=NEXBOOK|1=00338|11=0dd0236d-27af-4d92-a498-a85706650af3|38=18000|40=2|44=0.74049|54=2|55=EUR/GBP|60=20151222-17:59:34.605|10=152|
8=FIX.4.4|9=168|35=D|34=92|49=FIX_ORDER_GEN1|52=20151222-17:59:34.607|56=NEXBOOK|1=00195|11=79a7749b-ac8c-4729-99b0-81c5e2d8f7a3|38=54000|40=1|54=1|55=EUR/JPY|60=20151222-17:59:34.607|10=241|
8=FIX.4.4|9=168|35=D|34=92|49=FIX_ORDER_GEN2|52=20151222-17:59:34.608|56=NEXBOOK|1=00147|11=50b3211e-4859-46ed-94d7-cd8c0c2ffffa|38=60000|40=1|54=1|55=USD/JPY|60=20151222-17:59:34.607|10=105|
8=FIX.4.4|9=179|35=D|34=92|49=FIX_ORDER_GEN4|52=20151222-17:59:34.609|56=NEXBOOK|1=00101|11=014200b6-25cc-4e8e-9755-18c63dd92ea9|38=50000|40=2|44=1.09742|54=2|55=EUR/USD|60=20151222-17:59:34.608|10=165|
8=FIX.4.4|9=179|35=D|34=92|49=FIX_ORDER_GEN3|52=20151222-17:59:34.609|56=NEXBOOK|1=00052|11=7d2b7dab-f2b4-47e7-a4ca-5178f5eb0b2e|38=56000|40=2|44=1.48148|54=1|55=GBP/USD|60=20151222-17:59:34.608|10=182|
8=FIX.4.4|9=168|35=D|34=93|49=FIX_ORDER_GEN1|52=20151222-17:59:34.610|56=NEXBOOK|1=00311|11=5ad2bebf-f251-43b4-bb3b-c322ba968c8c|38=37000|40=1|54=2|55=USD/CHF|60=20151222-17:59:34.609|10=137|
8=FIX.4.4|9=178|35=D|34=93|49=FIX_ORDER_GEN2|52=20151222-17:59:34.610|56=NEXBOOK|1=00295|11=58cd2d9b-5cf9-4ece-a2af-f2e124e9caf4|38=96000|40=2|44=0.9866|54=2|55=USD/CHF|60=20151222-17:59:34.610|10=235|
8=FIX.4.4|9=168|35=D|34=93|49=FIX_ORDER_GEN4|52=20151222-17:59:34.611|56=NEXBOOK|1=00465|11=d3b48039-d90e-4e6f-b078-b25d5cf101d1|38=89000|40=1|54=1|55=AUD/USD|60=20151222-17:59:34.610|10=232|
8=FIX.4.4|9=181|35=D|34=93|49=FIX_ORDER_GEN3|52=20151222-17:59:34.611|56=NEXBOOK|1=00485|11=294ae104-f20b-44c4-8add-82d16c5070cc|38=30000|40=2|44=121.04907|54=2|55=USD/JPY|60=20151222-17:59:34.611|10=081|
8=FIX.4.4|9=179|35=D|34=94|49=FIX_ORDER_GEN1|52=20151222-17:59:34.612|56=NEXBOOK|1=00311|11=0612e364-d2d4-4264-a2be-b4e5f7b09966|38=17000|40=2|44=0.98676|54=2|55=USD/CHF|60=20151222-17:59:34.611|10=141|
8=FIX.4.4|9=179|35=D|34=94|49=FIX_ORDER_GEN2|52=20151222-17:59:34.613|56=NEXBOOK|1=00384|11=c73d664a-6f59-4aba-b4eb-0a264e752946|38=54000|40=2|44=0.72317|54=1|55=AUD/USD|60=20151222-17:59:34.612|10=247|
8=FIX.4.4|9=179|35=D|34=94|49=FIX_ORDER_GEN4|52=20151222-17:59:34.613|56=NEXBOOK|1=00373|11=6e0898d9-25f9-486f-abdf-f95dd7628999|38=87000|40=2|44=1.09766|54=2|55=EUR/USD|60=20151222-17:59:34.613|10=032|
8=FIX.4.4|9=179|35=D|34=94|49=FIX_ORDER_GEN3|52=20151222-17:59:34.614|56=NEXBOOK|1=00246|11=6f51a6c3-f08d-4842-b203-60a0a82059ec|38=61000|40=2|44=132.744|54=2|55=EUR/JPY|60=20151222-17:59:34.613|10=158|
8=FIX.4.4|9=178|35=D|34=95|49=FIX_ORDER_GEN1|52=20151222-17:59:34.614|56=NEXBOOK|1=00144|11=9f47132d-c18b-42eb-aa45-0edfc7aebe2f|38=6000|40=2|44=1.09769|54=2|55=EUR/USD|60=20151222-17:59:34.614|10=195|
8=FIX.4.4|9=179|35=D|34=95|49=FIX_ORDER_GEN2|52=20151222-17:59:34.615|56=NEXBOOK|1=00474|11=1f2fa654-7440-4f7e-8d15-94a9801d2fb4|38=54000|40=2|44=0.74003|54=1|55=EUR/GBP|60=20151222-17:59:34.614|10=153|
8=FIX.4.4|9=179|35=D|34=95|49=FIX_ORDER_GEN4|52=20151222-17:59:34.616|56=NEXBOOK|1=00137|11=0c07fb42-583f-4963-94a9-a60b63044531|38=85000|40=2|44=1.48196|54=1|55=GBP/USD|60=20151222-17:59:34.615|10=018|
8=FIX.4.4|9=179|35=D|34=95|49=FIX_ORDER_GEN3|52=20151222-17:59:34.616|56=NEXBOOK|1=00471|11=9d92c859-b1f1-46d5-a513-64ce56721439|38=97000|40=2|44=0.98544|54=1|55=USD/CHF|60=20151222-17:59:34.616|10=080|
8=FIX.4.4|9=168|35=D|34=96|49=FIX_ORDER_GEN1|52=20151222-17:59:34.617|56=NEXBOOK|1=00113|11=45ca810c-b56e-458c-8236-4429c3abda8f|38=58000|40=1|54=2|55=AUD/USD|60=20151222-17:59:34.616|10=237|
8=FIX.4.4|9=179|35=D|34=96|49=FIX_ORDER_GEN2|52=20151222-17:59:34.617|56=NEXBOOK|1=00214|11=3e83107f-ef32-4525-87dd-e16aa00b7c86|38=91000|40=2|44=0.72263|54=1|55=AUD/USD|60=20151222-17:59:34.617|10=199|
8=FIX.4.4|9=179|35=D|34=96|49=FIX_ORDER_GEN4|52=20151222-17:59:34.618|56=NEXBOOK|1=00041|11=367448d1-25bc-4c07-8a86-28345632cb46|38=38000|40=2|44=1.48178|54=1|55=GBP/USD|60=20151222-17:59:34.617|10=023|
8=FIX.4.4|9=179|35=D|34=96|49=FIX_ORDER_GEN3|52=20151222-17:59:34.619|56=NEXBOOK|1=00255|11=4f460be5-2985-44d0-829d-5d18ddee0932|38=79000|40=2|44=1.39363|54=2|55=USD/CAD|60=20151222-17:59:34.618|10=167|
8=FIX.4.4|9=179|35=D|34=97|49=FIX_ORDER_GEN1|52=20151222-17:59:34.619|56=NEXBOOK|1=00460|11=ff01c2d1-851f-42cb-8db3-20fd2bb1a7b6|38=24000|40=2|44=132.695|54=1|55=EUR/JPY|60=20151222-17:59:34.619|10=147|
8=FIX.4.4|9=177|35=D|34=97|49=FIX_ORDER_GEN2|52=20151222-17:59:34.620|56=NEXBOOK|1=00082|11=c6a250ad-9bc8-4ee0-9367-d8e2b4eef0d3|38=8000|40=2|44=1.0964|54=1|55=EUR/USD|60=20151222-17:59:34.619|10=056|
8=FIX.4.4|9=180|35=D|34=97|49=FIX_ORDER_GEN4|52=20151222-17:59:34.620|56=NEXBOOK|1=00195|11=375a50a0-2cb8-4f35-a2ef-0570ef40c600|38=89000|40=2|44=132.7615|54=1|55=EUR/JPY|60=20151222-17:59:34.620|10=252|
8=FIX.4.4|9=180|35=D|34=97|49=FIX_ORDER_GEN3|52=20151222-17:59:34.621|56=NEXBOOK|1=00365|11=ca40f809-72dc-44da-a60d-9bded80f24ee|38=31000|40=2|44=132.7125|54=1|55=EUR/JPY|60=20151222-17:59:34.620|10=238|
8=FIX.4.4|9=179|35=D|34=98|49=FIX_ORDER_GEN1|52=20151222-17:59:34.622|56=NEXBOOK|1=00096|11=b47c58c7-d8be-42cb-97b7-3d85a6c4a968|38=25000|40=2|44=1.39349|54=1|55=USD/CAD|60=20151222-17:59:34.621|10=051|
8=FIX.4.4|9=179|35=D|34=98|49=FIX_ORDER_GEN2|52=20151222-17:59:34.622|56=NEXBOOK|1=00140|11=b2367f7c-a640-43f6-b4fe-756c07c44a9d|38=71000|40=2|44=0.72293|54=1|55=AUD/USD|60=20151222-17:59:34.621|10=247|
8=FIX.4.4|9=179|35=D|34=98|49=FIX_ORDER_GEN4|52=20151222-17:59:34.623|56=NEXBOOK|1=00383|11=92aedbeb-49a0-41e3-a00e-553faf4f4c4b|38=63000|40=2|44=0.98688|54=2|55=USD/CHF|60=20151222-17:59:34.622|10=181|
8=FIX.4.4|9=168|35=D|34=98|49=FIX_ORDER_GEN3|52=20151222-17:59:34.623|56=NEXBOOK|1=00369|11=e451884e-a231-42bb-9cc1-1d1f2591983b|38=66000|40=1|54=1|55=USD/CHF|60=20151222-17:59:34.623|10=137|
8=FIX.4.4|9=178|35=D|34=99|49=FIX_ORDER_GEN1|52=20151222-17:59:34.624|56=NEXBOOK|1=00035|11=65ca2f9d-28e8-48fc-b428-1433ee89d328|38=46000|40=2|44=0.9856|54=1|55=USD/CHF|60=20151222-17:59:34.623|10=170|
8=FIX.4.4|9=168|35=D|34=99|49=FIX_ORDER_GEN2|52=20151222-17:59:34.624|56=NEXBOOK|1=00238|11=f22cf18f-f2ae-4545-96eb-4c499e5377d2|38=36000|40=1|54=1|55=USD/JPY|60=20151222-17:59:34.624|10=031|
8=FIX.4.4|9=177|35=D|34=99|49=FIX_ORDER_GEN4|52=20151222-17:59:34.625|56=NEXBOOK|1=00397|11=9fda5630-cf4f-4467-baac-e66f8664dbc6|38=9000|40=2|44=0.7232|54=2|55=AUD/USD|60=20151222-17:59:34.624|10=060|
8=FIX.4.4|9=168|35=D|34=99|49=FIX_ORDER_GEN3|52=20151222-17:59:34.625|56=NEXBOOK|1=00264|11=c0c3b4b8-2dac-4e5a-890b-5ba7acd060cc|38=67000|40=1|54=1|55=EUR/JPY|60=20151222-17:59:34.625|10=231|
8=FIX.4.4|9=180|35=D|34=100|49=FIX_ORDER_GEN1|52=20151222-17:59:34.626|56=NEXBOOK|1=00093|11=5ba6e6d1-86ce-45f2-9c8e-685474a01728|38=66000|40=2|44=1.39262|54=1|55=USD/CAD|60=20151222-17:59:34.625|10=186|
8=FIX.4.4|9=180|35=D|34=100|49=FIX_ORDER_GEN2|52=20151222-17:59:34.627|56=NEXBOOK|1=00230|11=2e0e707d-0436-4e40-9988-b0eb7f59cdae|38=56000|40=2|44=0.74064|54=2|55=EUR/GBP|60=20151222-17:59:34.626|10=029|
8=FIX.4.4|9=180|35=D|34=100|49=FIX_ORDER_GEN4|52=20151222-17:59:34.627|56=NEXBOOK|1=00032|11=13b04e75-2804-4842-b35b-f9ed42a0164f|38=39000|40=2|44=0.72326|54=1|55=AUD/USD|60=20151222-17:59:34.627|10=124|
8=FIX.4.4|9=170|35=D|34=100|49=FIX_ORDER_GEN3|52=20151222-17:59:34.628|56=NEXBOOK|1=00337|11=19a99d5c-adcc-4ab0-b9c1-97b8ea505eba|38=100000|40=1|54=2|55=EUR/JPY|60=20151222-17:59:34.627|10=062|
8=FIX.4.4|9=180|35=D|34=101|49=FIX_ORDER_GEN1|52=20151222-17:59:34.629|56=NEXBOOK|1=00103|11=af2232eb-7e3f-450c-85b4-ae8db92fa245|38=35000|40=2|44=1.39381|54=2|55=USD/CAD|60=20151222-17:59:34.628|10=097|
8=FIX.4.4|9=179|35=D|34=101|49=FIX_ORDER_GEN2|52=20151222-17:59:34.629|56=NEXBOOK|1=00438|11=925525ce-0a15-4c12-9b0e-918129349adb|38=3000|40=2|44=1.39283|54=1|55=USD/CAD|60=20151222-17:59:34.629|10=079|
8=FIX.4.4|9=180|35=D|34=101|49=FIX_ORDER_GEN4|52=20151222-17:59:34.630|56=NEXBOOK|1=00240|11=463d6191-5d66-4031-b491-84f20b1e8b1e|38=62000|40=2|44=0.72407|54=2|55=AUD/USD|60=20151222-17:59:34.629|10=075|
8=FIX.4.4|9=182|35=D|34=101|49=FIX_ORDER_GEN3|52=20151222-17:59:34.630|56=NEXBOOK|1=00443|11=d7dd3489-495f-4871-913f-86df3a326c64|38=36000|40=2|44=120.99298|54=1|55=USD/JPY|60=20151222-17:59:34.630|10=041|
8=FIX.4.4|9=182|35=D|34=102|49=FIX_ORDER_GEN1|52=20151222-17:59:34.631|56=NEXBOOK|1=00041|11=9886ec98-5500-412f-8e91-228c11458a7e|38=10000|40=2|44=121.05174|54=2|55=USD/JPY|60=20151222-17:59:34.630|10=160|
8=FIX.4.4|9=180|35=D|34=102|49=FIX_ORDER_GEN2|52=20151222-17:59:34.632|56=NEXBOOK|1=00189|11=34ebd0a6-8e1c-459e-8be0-809dbbddd5bc|38=58000|40=2|44=0.74049|54=2|55=EUR/GBP|60=20151222-17:59:34.631|10=013|
8=FIX.4.4|9=180|35=D|34=102|49=FIX_ORDER_GEN4|52=20151222-17:59:34.632|56=NEXBOOK|1=00298|11=00ab169c-5fff-42e1-9a1e-b14642da4c87|38=59000|40=2|44=1.48187|54=1|55=GBP/USD|60=20151222-17:59:34.632|10=078|
8=FIX.4.4|9=169|35=D|34=102|49=FIX_ORDER_GEN3|52=20151222-17:59:34.633|56=NEXBOOK|1=00250|11=9f6af160-6bb8-4fd5-9230-dc76304f2e35|38=95000|40=1|54=2|55=GBP/USD|60=20151222-17:59:34.632|10=231|
8=FIX.4.4|9=182|35=D|34=103|49=FIX_ORDER_GEN1|52=20151222-17:59:34.633|56=NEXBOOK|1=00160|11=d309ff77-9a95-4dcc-a182-edf36d660a6f|38=99000|40=2|44=121.00366|54=1|55=USD/JPY|60=20151222-17:59:34.633|10=002|
8=FIX.4.4|9=179|35=D|34=103|49=FIX_ORDER_GEN2|52=20151222-17:59:34.634|56=NEXBOOK|1=00130|11=0f1f3a98-1447-4f0b-903d-22dd6e911541|38=79000|40=2|44=0.9872|54=2|55=USD/CHF|60=20151222-17:59:34.633|10=084|
8=FIX.4.4|9=180|35=D|34=103|49=FIX_ORDER_GEN4|52=20151222-17:59:34.635|56=NEXBOOK|1=00094|11=593e8068-a9af-4d2b-9d7d-5e388641c502|38=16000|40=2|44=1.09748|54=2|55=EUR/USD|60=20151222-17:59:34.634|10=231|
8=FIX.4.4|9=180|35=D|34=103|49=FIX_ORDER_GEN3|52=20151222-17:59:34.635|56=NEXBOOK|1=00122|11=25f61e16-643d-4870-8c51-1f439ae20776|38=12000|40=2|44=132.807|54=2|55=EUR/JPY|60=20151222-17:59:34.635|10=063|
8=FIX.4.4|9=180|35=D|34=104|49=FIX_ORDER_GEN1|52=20151222-17:59:34.636|56=NEXBOOK|1=00422|11=7dbe0268-f867-4a39-b175-19dc51f3966c|38=31000|40=2|44=0.72248|54=1|55=AUD/USD|60=20151222-17:59:34.635|10=200|
8=FIX.4.4|9=180|35=D|34=104|49=FIX_ORDER_GEN2|52=20151222-17:59:34.636|56=NEXBOOK|1=00088|11=30a7ecc2-c687-4f1f-890e-e53399b4948a|38=83000|40=2|44=1.39268|54=1|55=USD/CAD|60=20151222-17:59:34.636|10=253|
8=FIX.4.4|9=180|35=D|34=104|49=FIX_ORDER_GEN4|52=20151222-17:59:34.637|56=NEXBOOK|1=00406|11=e51f7032-5e69-4a14-a1e0-9cb3ed3af413|38=97000|40=2|44=0.98648|54=2|55=USD/CHF|60=20151222-17:59:34.636|10=029|
8=FIX.4.4|9=169|35=D|34=104|49=FIX_ORDER_GEN3|52=20151222-17:59:34.638|56=NEXBOOK|1=00207|11=0750e7ee-4510-475c-8791-c58e40872844|38=41000|40=1|54=2|55=EUR/USD|60=20151222-17:59:34.637|10=027|
8=FIX.4.4|9=182|35=D|34=105|49=FIX_ORDER_GEN1|52=20151222-17:59:34.638|56=NEXBOOK|1=00447|11=97a2772b-a30d-4698-be3b-b925db1b0645|38=19000|40=2|44=121.03305|54=2|55=USD/JPY|60=20151222-17:59:34.638|10=104|
8=FIX.4.4|9=180|35=D|34=105|49=FIX_ORDER_GEN2|52=20151222-17:59:34.639|56=NEXBOOK|1=00186|11=ba4bec9e-6473-404b-b4af-0cbcce280409|38=75000|40=2|44=1.48157|54=1|55=GBP/USD|60=20151222-17:59:34.638|10=173|
8=FIX.4.4|9=180|35=D|34=105|49=FIX_ORDER_GEN4|52=20151222-17:59:34.639|56=NEXBOOK|1=00283|11=18ab8577-26f7-400f-957d-62cbb56638ab|38=13000|40=2|44=0.72374|54=2|55=AUD/USD|60=20151222-17:59:34.639|10=209|
8=FIX.4.4|9=169|35=D|34=105|49=FIX_ORDER_GEN3|52=20151222-17:59:34.640|56=NEXBOOK|1=00128|11=6f330f61-2f86-4055-8900-8768cff1d382|38=48000|40=1|54=2|55=EUR/GBP|60=20151222-17:59:34.639|10=061|
8=FIX.4.4|9=180|35=D|34=106|49=FIX_ORDER_GEN2|52=20151222-17:59:34.641|56=NEXBOOK|1=00102|11=532c380a-995a-49e5-9bf7-3585007021a6|38=19000|40=2|44=0.98624|54=1|55=USD/CHF|60=20151222-17:59:34.640|10=034|
8=FIX.4.4|9=180|35=D|34=106|49=FIX_ORDER_GEN1|52=20151222-17:59:34.640|56=NEXBOOK|1=00261|11=17a0a2cc-9f5d-47a5-8e96-6c5fc3041bfd|38=56000|40=2|44=0.72272|54=1|55=AUD/USD|60=20151222-17:59:34.640|10=115|
8=FIX.4.4|9=180|35=D|34=106|49=FIX_ORDER_GEN4|52=20151222-17:59:34.642|56=NEXBOOK|1=00461|11=24a79041-c7a1-4879-ac82-7833c0f62227|38=87000|40=2|44=0.74082|54=2|55=EUR/GBP|60=20151222-17:59:34.641|10=049|
8=FIX.4.4|9=169|35=D|34=107|49=FIX_ORDER_GEN1|52=20151222-17:59:34.643|56=NEXBOOK|1=00072|11=056b75c9-bd32-43a6-9468-bcaf666e8514|38=60000|40=1|54=1|55=EUR/USD|60=20151222-17:59:34.642|10=208|
8=FIX.4.4|9=182|35=D|34=106|49=FIX_ORDER_GEN3|52=20151222-17:59:34.642|56=NEXBOOK|1=00383|11=a88704f8-aaf3-42bc-b4dc-fd244b05e124|38=53000|40=2|44=121.00099|54=1|55=USD/JPY|60=20151222-17:59:34.641|10=233|
8=FIX.4.4|9=182|35=D|34=107|49=FIX_ORDER_GEN2|52=20151222-17:59:34.643|56=NEXBOOK|1=00066|11=017b0c11-d8a0-4c85-801c-d5109d60cebf|38=33000|40=2|44=120.93157|54=1|55=USD/JPY|60=20151222-17:59:34.643|10=131|
8=FIX.4.4|9=180|35=D|34=107|49=FIX_ORDER_GEN4|52=20151222-17:59:34.644|56=NEXBOOK|1=00457|11=3345295f-0336-4312-9f93-47ee3e4727cd|38=57000|40=2|44=132.688|54=1|55=EUR/JPY|60=20151222-17:59:34.643|10=099|
8=FIX.4.4|9=181|35=D|34=107|49=FIX_ORDER_GEN3|52=20151222-17:59:34.644|56=NEXBOOK|1=00289|11=a3653349-b1d1-46cd-a39c-77da313a824a|38=68000|40=2|44=132.7195|54=1|55=EUR/JPY|60=20151222-17:59:34.644|10=064|
8=FIX.4.4|9=181|35=D|34=108|49=FIX_ORDER_GEN1|52=20151222-17:59:34.645|56=NEXBOOK|1=00331|11=afe3fdf1-4955-48a9-a958-ed33c4124c3a|38=30000|40=2|44=132.7195|54=1|55=EUR/JPY|60=20151222-17:59:34.644|10=156|
8=FIX.4.4|9=168|35=D|34=108|49=FIX_ORDER_GEN2|52=20151222-17:59:34.645|56=NEXBOOK|1=00038|11=3aec55bc-5a7c-4add-93bf-bff202befc0a|38=5000|40=1|54=1|55=EUR/USD|60=20151222-17:59:34.645|10=104|
8=FIX.4.4|9=180|35=D|34=108|49=FIX_ORDER_GEN4|52=20151222-17:59:34.646|56=NEXBOOK|1=00066|11=6c5b2bb4-92a9-4c85-9bd7-328bc2521eff|38=25000|40=2|44=1.48133|54=1|55=GBP/USD|60=20151222-17:59:34.645|10=085|
8=FIX.4.4|9=181|35=D|34=108|49=FIX_ORDER_GEN3|52=20151222-17:59:34.647|56=NEXBOOK|1=00335|11=001c6ec1-923d-4425-8e21-c3871b0088da|38=60000|40=2|44=132.8455|54=2|55=EUR/JPY|60=20151222-17:59:34.646|10=211|
8=FIX.4.4|9=180|35=D|34=109|49=FIX_ORDER_GEN1|52=20151222-17:59:34.650|56=NEXBOOK|1=00339|11=ccf6a07d-f5c7-469e-9f29-91fb609703d3|38=79000|40=2|44=1.39316|54=1|55=USD/CAD|60=20151222-17:59:34.649|10=049|
8=FIX.4.4|9=179|35=D|34=109|49=FIX_ORDER_GEN2|52=20151222-17:59:34.651|56=NEXBOOK|1=00445|11=9afa9be2-013b-4644-9bc4-77ab2411539e|38=1000|40=2|44=1.09748|54=2|55=EUR/USD|60=20151222-17:59:34.650|10=210|
8=FIX.4.4|9=180|35=D|34=109|49=FIX_ORDER_GEN4|52=20151222-17:59:34.651|56=NEXBOOK|1=00119|11=a548956a-2f01-4fe2-865e-8d23c4981391|38=35000|40=2|44=0.98616|54=1|55=USD/CHF|60=20151222-17:59:34.651|10=107|
8=FIX.4.4|9=180|35=D|34=109|49=FIX_ORDER_GEN3|52=20151222-17:59:34.652|56=NEXBOOK|1=00205|11=4b2349f2-57ae-4096-b9f3-d5a66f1dbe15|38=63000|40=2|44=1.48198|54=2|55=GBP/USD|60=20151222-17:59:34.651|10=041|
8=FIX.4.4|9=180|35=D|34=110|49=FIX_ORDER_GEN1|52=20151222-17:59:34.652|56=NEXBOOK|1=00460|11=a9edd5f7-9c81-41dc-a0d4-1d03d9b58c29|38=93000|40=2|44=0.74012|54=1|55=EUR/GBP|60=20151222-17:59:34.652|10=114|
8=FIX.4.4|9=180|35=D|34=110|49=FIX_ORDER_GEN2|52=20151222-17:59:34.653|56=NEXBOOK|1=00404|11=b9ab1f1d-2d40-4ed4-a7a6-97a9c34bc6cb|38=56000|40=2|44=0.72371|54=2|55=AUD/USD|60=20151222-17:59:34.652|10=204|
8=FIX.4.4|9=180|35=D|34=110|49=FIX_ORDER_GEN4|52=20151222-17:59:34.662|56=NEXBOOK|1=00277|11=46a9bf92-0d59-4876-81c7-747d1adb3e0f|38=90000|40=2|44=0.72323|54=2|55=AUD/USD|60=20151222-17:59:34.653|10=251|
8=FIX.4.4|9=182|35=D|34=110|49=FIX_ORDER_GEN3|52=20151222-17:59:34.663|56=NEXBOOK|1=00489|11=3e2c059e-52ea-4fc0-9d56-3de5005d0339|38=58000|40=2|44=121.01703|54=2|55=USD/JPY|60=20151222-17:59:34.662|10=103|
8=FIX.4.4|9=180|35=D|34=111|49=FIX_ORDER_GEN1|52=20151222-17:59:34.663|56=NEXBOOK|1=00061|11=2001e406-037f-4cd9-b803-5ae205436095|38=68000|40=2|44=0.74088|54=2|55=EUR/GBP|60=20151222-17:59:34.663|10=031|
8=FIX.4.4|9=179|35=D|34=111|49=FIX_ORDER_GEN2|52=20151222-17:59:34.663|56=NEXBOOK|1=00026|11=106050e8-48f8-44f7-82ab-8d5c36ac9842|38=36000|40=2|44=1.3931|54=1|55=USD/CAD|60=20151222-17:59:34.663|10=085|
8=FIX.4.4|9=181|35=D|34=111|49=FIX_ORDER_GEN4|52=20151222-17:59:34.664|56=NEXBOOK|1=00108|11=1c00cfb7-b670-40b7-9606-47792e56e987|38=93000|40=2|44=132.8175|54=2|55=EUR/JPY|60=20151222-17:59:34.663|10=191|
8=FIX.4.4|9=180|35=D|34=111|49=FIX_ORDER_GEN3|52=20151222-17:59:34.664|56=NEXBOOK|1=00440|11=20bc91d9-cb2c-404a-a635-eb564d1ed794|38=47000|40=2|44=1.48127|54=1|55=GBP/USD|60=20151222-17:59:34.664|10=068|
8=FIX.4.4|9=182|35=D|34=112|49=FIX_ORDER_GEN1|52=20151222-17:59:34.664|56=NEXBOOK|1=00270|11=cac4f062-697c-4a7b-a6d8-425fecced64f|38=13000|40=2|44=121.03305|54=2|55=USD/JPY|60=20151222-17:59:34.664|10=082|
8=FIX.4.4|9=180|35=D|34=112|49=FIX_ORDER_GEN2|52=20151222-17:59:34.665|56=NEXBOOK|1=00388|11=0e0e2b48-cab8-4936-b227-aeaa6c8bcb3b|38=71000|40=2|44=0.72368|54=2|55=AUD/USD|60=20151222-17:59:34.664|10=218|
8=FIX.4.4|9=179|35=D|34=112|49=FIX_ORDER_GEN4|52=20151222-17:59:34.665|56=NEXBOOK|1=00390|11=7d077efd-4e96-46e5-a07f-66d632aaa3bd|38=43000|40=2|44=1.4821|54=2|55=GBP/USD|60=20151222-17:59:34.665|10=091|
8=FIX.4.4|9=180|35=D|34=112|49=FIX_ORDER_GEN3|52=20151222-17:59:34.665|56=NEXBOOK|1=00238|11=3db2abca-312c-46e3-8932-45a8d94ec263|38=37000|40=2|44=1.48181|54=1|55=GBP/USD|60=20151222-17:59:34.665|10=028|
8=FIX.4.4|9=180|35=D|34=113|49=FIX_ORDER_GEN1|52=20151222-17:59:34.666|56=NEXBOOK|1=00143|11=65bfc72b-9d39-4095-b323-80a6f09d06dd|38=97000|40=2|44=1.09781|54=2|55=EUR/USD|60=20151222-17:59:34.665|10=017|
8=FIX.4.4|9=180|35=D|34=113|49=FIX_ORDER_GEN2|52=20151222-17:59:34.666|56=NEXBOOK|1=00164|11=7cc043cd-c961-4bc8-ac58-17ebd7425931|38=85000|40=2|44=0.74058|54=2|55=EUR/GBP|60=20151222-17:59:34.666|10=042|
8=FIX.4.4|9=180|35=D|34=113|49=FIX_ORDER_GEN4|52=20151222-17:59:34.667|56=NEXBOOK|1=00440|11=66283979-b9c9-4631-904e-ebea7bdceb5c|38=19000|40=2|44=0.98744|54=2|55=USD/CHF|60=20151222-17:59:34.666|10=106|
8=FIX.4.4|9=169|35=D|34=113|49=FIX_ORDER_GEN3|52=20151222-17:59:34.667|56=NEXBOOK|1=00471|11=b1d8f2f8-5848-482c-9169-36616722e193|38=83000|40=1|54=1|55=USD/JPY|60=20151222-17:59:34.666|10=055|
8=FIX.4.4|9=180|35=D|34=114|49=FIX_ORDER_GEN1|52=20151222-17:59:34.667|56=NEXBOOK|1=00292|11=240ae49b-d6ad-47f7-af09-ad95c2c4f27f|38=64000|40=2|44=0.98576|54=1|55=USD/CHF|60=20151222-17:59:34.667|10=193|
8=FIX.4.4|9=182|35=D|34=114|49=FIX_ORDER_GEN2|52=20151222-17:59:34.668|56=NEXBOOK|1=00116|11=c45f9adb-5c23-4e72-8a11-1d9241a1c126|38=94000|40=2|44=120.99565|54=1|55=USD/JPY|60=20151222-17:59:34.667|10=112|
8=FIX.4.4|9=180|35=D|34=114|49=FIX_ORDER_GEN4|52=20151222-17:59:34.668|56=NEXBOOK|1=00249|11=9d10f85e-ce2f-4ff3-80fc-89e7d8030c50|38=38000|40=2|44=0.74085|54=2|55=EUR/GBP|60=20151222-17:59:34.667|10=110|
8=FIX.4.4|9=180|35=D|34=114|49=FIX_ORDER_GEN3|52=20151222-17:59:34.668|56=NEXBOOK|1=00441|11=820b1eeb-bc3e-4b89-95e6-30e8b679ced9|38=81000|40=2|44=1.09649|54=1|55=EUR/USD|60=20151222-17:59:34.668|10=178|
8=FIX.4.4|9=169|35=D|34=115|49=FIX_ORDER_GEN1|52=20151222-17:59:34.669|56=NEXBOOK|1=00149|11=aa96516a-0889-41e0-a46b-f2725215e308|38=80000|40=1|54=1|55=USD/CAD|60=20151222-17:59:34.668|10=080|
8=FIX.4.4|9=181|35=D|34=115|49=FIX_ORDER_GEN2|52=20151222-17:59:34.669|56=NEXBOOK|1=00421|11=80c040f6-290c-4523-a2a9-b5ec13b41912|38=2000|40=2|44=120.96361|54=1|55=USD/JPY|60=20151222-17:59:34.669|10=201|
8=FIX.4.4|9=180|35=D|34=115|49=FIX_ORDER_GEN4|52=20151222-17:59:34.670|56=NEXBOOK|1=00478|11=186fd776-f851-44dc-954a-f7595413c1fc|38=47000|40=2|44=1.48181|54=1|55=GBP/USD|60=20151222-17:59:34.669|10=230|
8=FIX.4.4|9=182|35=D|34=115|49=FIX_ORDER_GEN3|52=20151222-17:59:34.670|56=NEXBOOK|1=00198|11=328335ed-fadc-41d3-bbe0-85b2f3c823e5|38=68000|40=2|44=121.04106|54=2|55=USD/JPY|60=20151222-17:59:34.669|10=252|
8=FIX.4.4|9=169|35=D|34=116|49=FIX_ORDER_GEN1|52=20151222-17:59:34.670|56=NEXBOOK|1=00297|11=757aaa5d-2b77-4ca3-a377-b8e69caf38a1|38=95000|40=1|54=2|55=USD/CHF|60=20151222-17:59:34.670|10=125|
8=FIX.4.4|9=180|35=D|34=116|49=FIX_ORDER_GEN2|52=20151222-17:59:34.671|56=NEXBOOK|1=00045|11=ea34d61f-2cac-414e-ba32-0ebdcfc32943|38=44000|40=2|44=1.48225|54=2|55=GBP/USD|60=20151222-17:59:34.670|10=194|
8=FIX.4.4|9=180|35=D|34=116|49=FIX_ORDER_GEN4|52=20151222-17:59:34.671|56=NEXBOOK|1=00111|11=c7eee452-b397-4b6f-a7da-103333d46506|38=45000|40=2|44=0.72332|54=2|55=AUD/USD|60=20151222-17:59:34.671|10=225|
8=FIX.4.4|9=169|35=D|34=116|49=FIX_ORDER_GEN3|52=20151222-17:59:34.671|56=NEXBOOK|1=00147|11=b6adf93e-7bfb-4677-b5bb-a5e6905fa30c|38=58000|40=1|54=2|55=EUR/JPY|60=20151222-17:59:34.671|10=253|
8=FIX.4.4|9=180|35=D|34=117|49=FIX_ORDER_GEN1|52=20151222-17:59:34.672|56=NEXBOOK|1=00340|11=a859c4f2-9c5c-42e7-830c-6d54f996c532|38=35000|40=2|44=0.74085|54=2|55=EUR/GBP|60=20151222-17:59:34.671|10=211|
8=FIX.4.4|9=178|35=D|34=117|49=FIX_ORDER_GEN2|52=20151222-17:59:34.672|56=NEXBOOK|1=00305|11=89c52c75-b2df-424c-a9c6-c8e74a8c0a75|38=34000|40=2|44=1.097|54=2|55=EUR/USD|60=20151222-17:59:34.672|10=012|
8=FIX.4.4|9=180|35=D|34=117|49=FIX_ORDER_GEN4|52=20151222-17:59:34.673|56=NEXBOOK|1=00278|11=0a8df218-6ed9-4750-b15b-8198ef47cf38|38=21000|40=2|44=1.39405|54=2|55=USD/CAD|60=20151222-17:59:34.672|10=246|
8=FIX.4.4|9=180|35=D|34=117|49=FIX_ORDER_GEN3|52=20151222-17:59:34.673|56=NEXBOOK|1=00213|11=ca10e09d-3470-49dd-9c98-55821cfe15a5|38=77000|40=2|44=1.39286|54=1|55=USD/CAD|60=20151222-17:59:34.673|10=238|
8=FIX.4.4|9=180|35=D|34=118|49=FIX_ORDER_GEN1|52=20151222-17:59:34.674|56=NEXBOOK|1=00283|11=fba0f01f-ad8b-48d7-a32d-4d76cd393393|38=33000|40=2|44=1.09676|54=1|55=EUR/USD|60=20151222-17:59:34.673|10=155|
8=FIX.4.4|9=169|35=D|34=118|49=FIX_ORDER_GEN2|52=20151222-17:59:34.674|56=NEXBOOK|1=00199|11=d15391a0-ab2d-458f-97d4-6d8c94cc3d43|38=35000|40=1|54=2|55=USD/JPY|60=20151222-17:59:34.674|10=072|
8=FIX.4.4|9=180|35=D|34=118|49=FIX_ORDER_GEN4|52=20151222-17:59:34.677|56=NEXBOOK|1=00483|11=f85562c6-5ae0-4e2f-aae4-59cb2ef69169|38=91000|40=2|44=1.39295|54=1|55=USD/CAD|60=20151222-17:59:34.674|10=099|
8=FIX.4.4|9=178|35=D|34=119|49=FIX_ORDER_GEN2|52=20151222-17:59:34.678|56=NEXBOOK|1=00371|11=7b99a4f8-e84a-434c-888e-a5c449f24dff|38=5000|40=2|44=1.0976|54=2|55=EUR/USD|60=20151222-17:59:34.676|10=052|
8=FIX.4.4|9=180|35=D|34=119|49=FIX_ORDER_GEN1|52=20151222-17:59:34.678|56=NEXBOOK|1=00452|11=26904719-4323-4a5b-b869-2330e776d758|38=26000|40=2|44=120.993|54=2|55=USD/JPY|60=20151222-17:59:34.677|10=007|
8=FIX.4.4|9=169|35=D|34=118|49=FIX_ORDER_GEN3|52=20151222-17:59:34.677|56=NEXBOOK|1=00147|11=efa5d748-1ffa-4069-8251-0b4fe3578e22|38=88000|40=1|54=1|55=USD/CAD|60=20151222-17:59:34.675|10=246|
8=FIX.4.4|9=182|35=D|34=120|49=FIX_ORDER_GEN1|52=20151222-17:59:34.678|56=NEXBOOK|1=00366|11=e8a496f2-5c60-4dce-b73d-463582d939c2|38=82000|40=2|44=121.00633|54=1|55=USD/JPY|60=20151222-17:59:34.675|10=125|
8=FIX.4.4|9=180|35=D|34=120|49=FIX_ORDER_GEN2|52=20151222-17:59:34.678|56=NEXBOOK|1=00200|11=fff8d60c-5145-4e21-95c5-5b8ec67a01ee|38=33000|40=2|44=0.73982|54=1|55=EUR/GBP|60=20151222-17:59:34.677|10=087|
8=FIX.4.4|9=179|35=D|34=119|49=FIX_ORDER_GEN4|52=20151222-17:59:34.678|56=NEXBOOK|1=00144|11=86fe71b0-935b-4535-b94f-aa8ae72dddee|38=6000|40=2|44=0.72284|54=1|55=AUD/USD|60=20151222-17:59:34.676|10=157|
8=FIX.4.4|9=180|35=D|34=119|49=FIX_ORDER_GEN3|52=20151222-17:59:34.678|56=NEXBOOK|1=00100|11=94dddded-ad7e-4e59-b04f-d75efc0c97b1|38=56000|40=2|44=1.09625|54=1|55=EUR/USD|60=20151222-17:59:34.677|10=103|
8=FIX.4.4|9=180|35=D|34=120|49=FIX_ORDER_GEN4|52=20151222-17:59:34.679|56=NEXBOOK|1=00411|11=9e098b0f-139d-4dd7-8470-270d151f1969|38=18000|40=2|44=1.48139|54=1|55=GBP/USD|60=20151222-17:59:34.678|10=120|
8=FIX.4.4|9=180|35=D|34=120|49=FIX_ORDER_GEN3|52=20151222-17:59:34.679|56=NEXBOOK|1=00387|11=99b815af-6d1a-4448-b94b-413caee5d0f9|38=20000|40=2|44=1.39346|54=1|55=USD/CAD|60=20151222-17:59:34.678|10=082|
8=FIX.4.4|9=179|35=D|34=121|49=FIX_ORDER_GEN1|52=20151222-17:59:34.680|56=NEXBOOK|1=00364|11=8938c9ac-5cdb-4192-b526-d50e90a7b112|38=57000|40=2|44=0.9864|54=2|55=USD/CHF|60=20151222-17:59:34.679|10=200|
8=FIX.4.4|9=182|35=D|34=121|49=FIX_ORDER_GEN2|52=20151222-17:59:34.680|56=NEXBOOK|1=00198|11=620d987d-4b26-462b-a618-6a182209e5e5|38=19000|40=2|44=120.97696|54=1|55=USD/JPY|60=20151222-17:59:34.679|10=251|
8=FIX.4.4|9=169|35=D|34=121|49=FIX_ORDER_GEN4|52=20151222-17:59:34.681|56=NEXBOOK|1=00432|11=8234ea5d-a547-4bfb-a029-ea8d21e456bb|38=22000|40=1|54=1|55=EUR/JPY|60=20151222-17:59:34.680|10=130|
8=FIX.4.4|9=180|35=D|34=121|49=FIX_ORDER_GEN3|52=20151222-17:59:34.681|56=NEXBOOK|1=00066|11=5083d25e-9cd1-4e66-82f2-52c36e6efb5d|38=77000|40=2|44=1.39381|54=2|55=USD/CAD|60=20151222-17:59:34.680|10=031|
8=FIX.4.4|9=180|35=D|34=122|49=FIX_ORDER_GEN1|52=20151222-17:59:34.682|56=NEXBOOK|1=00407|11=85ffeb81-c267-4bd9-933e-9fa6a0766dec|38=38000|40=2|44=0.72308|54=1|55=AUD/USD|60=20151222-17:59:34.681|10=148|
8=FIX.4.4|9=180|35=D|34=122|49=FIX_ORDER_GEN2|52=20151222-17:59:34.682|56=NEXBOOK|1=00325|11=c0857a8d-2e82-4300-af0c-8a2b7f5f3ce2|38=37000|40=2|44=0.74018|54=1|55=EUR/GBP|60=20151222-17:59:34.682|10=067|
8=FIX.4.4|9=180|35=D|34=122|49=FIX_ORDER_GEN4|52=20151222-17:59:34.683|56=NEXBOOK|1=00350|11=42459cd2-8c28-468a-a38e-3fbcc797953b|38=88000|40=2|44=0.74027|54=1|55=EUR/GBP|60=20151222-17:59:34.682|10=007|
8=FIX.4.4|9=179|35=D|34=122|49=FIX_ORDER_GEN3|52=20151222-17:59:34.683|56=NEXBOOK|1=00482|11=2dbb7d41-9b24-40b7-8fb3-522c513652da|38=53000|40=2|44=0.7397|54=1|55=EUR/GBP|60=20151222-17:59:34.683|10=192|
8=FIX.4.4|9=182|35=D|34=123|49=FIX_ORDER_GEN1|52=20151222-17:59:34.684|56=NEXBOOK|1=00424|11=76b8974b-8a06-411c-a8cc-151ef8ec9610|38=26000|40=2|44=120.97162|54=1|55=USD/JPY|60=20151222-17:59:34.683|10=118|
8=FIX.4.4|9=180|35=D|34=123|49=FIX_ORDER_GEN2|52=20151222-17:59:34.684|56=NEXBOOK|1=00348|11=a5004541-754d-400b-9255-3b880f70e969|38=66000|40=2|44=1.09649|54=1|55=EUR/USD|60=20151222-17:59:34.684|10=037|
8=FIX.4.4|9=180|35=D|34=123|49=FIX_ORDER_GEN4|52=20151222-17:59:34.685|56=NEXBOOK|1=00457|11=39620226-a776-46f3-8906-b596f8f210d9|38=18000|40=2|44=1.39268|54=1|55=USD/CAD|60=20151222-17:59:34.684|10=023|
8=FIX.4.4|9=170|35=D|34=123|49=FIX_ORDER_GEN3|52=20151222-17:59:34.685|56=NEXBOOK|1=00236|11=3f62004b-49b5-4750-b784-1bd2b02c5425|38=100000|40=1|54=2|55=USD/CAD|60=20151222-17:59:34.685|10=097|
8=FIX.4.4|9=180|35=D|34=124|49=FIX_ORDER_GEN1|52=20151222-17:59:34.686|56=NEXBOOK|1=00067|11=4b1d6ef0-a889-4c9d-b20c-9e5b1e532756|38=2000|40=2|44=132.7545|54=1|55=EUR/JPY|60=20151222-17:59:34.685|10=071|
8=FIX.4.4|9=169|35=D|34=124|49=FIX_ORDER_GEN4|52=20151222-17:59:34.687|56=NEXBOOK|1=00237|11=322b596b-b012-4104-a42c-13932f9579bf|38=44000|40=1|54=2|55=EUR/JPY|60=20151222-17:59:34.686|10=118|
8=FIX.4.4|9=169|35=D|34=124|49=FIX_ORDER_GEN3|52=20151222-17:59:34.687|56=NEXBOOK|1=00289|11=77fcd51c-7721-47fd-980e-a848bf03e3de|38=45000|40=1|54=1|55=GBP/USD|60=20151222-17:59:34.687|10=111|
8=FIX.4.4|9=180|35=D|34=124|49=FIX_ORDER_GEN2|52=20151222-17:59:34.686|56=NEXBOOK|1=00282|11=e8da2563-91c8-455b-a1f1-f03f16246727|38=52000|40=2|44=0.98628|54=2|55=USD/CHF|60=20151222-17:59:34.686|10=156|
8=FIX.4.4|9=180|35=D|34=125|49=FIX_ORDER_GEN1|52=20151222-17:59:34.688|56=NEXBOOK|1=00170|11=b47eff74-3630-48fb-940d-edd1586408ef|38=42000|40=2|44=132.695|54=1|55=EUR/JPY|60=20151222-17:59:34.687|10=084|
8=FIX.4.4|9=169|35=D|34=125|49=FIX_ORDER_GEN2|52=20151222-17:59:34.689|56=NEXBOOK|1=00028|11=b5cb7b25-9c07-4b08-873d-b31bea4fa2eb|38=37000|40=1|54=2|55=EUR/JPY|60=20151222-17:59:34.688|10=201|
8=FIX.4.4|9=180|35=D|34=125|49=FIX_ORDER_GEN4|52=20151222-17:59:34.690|56=NEXBOOK|1=00160|11=23379b5b-0c6d-4d0d-9e84-26d0f421ba2a|38=38000|40=2|44=1.39337|54=1|55=USD/CAD|60=20151222-17:59:34.689|10=012|
8=FIX.4.4|9=180|35=D|34=125|49=FIX_ORDER_GEN3|52=20151222-17:59:34.690|56=NEXBOOK|1=00494|11=b0bb0c18-ef83-4ffc-815b-5860c11d2607|38=43000|40=2|44=0.72377|54=2|55=AUD/USD|60=20151222-17:59:34.690|10=031|
